{"contracts/AntiFraud.sol":{"AntiFraud":{"abi":[{"inputs":[],"stateMutability":"nonpayable","type":"constructor"},{"inputs":[{"internalType":"string","name":"imageHash","type":"string"},{"internalType":"address","name":"originalWorker","type":"address"}],"name":"DuplicateImageDetected","type":"error"},{"inputs":[{"internalType":"address","name":"addr","type":"address"}],"name":"InvalidAddress","type":"error"},{"inputs":[{"internalType":"string","name":"reason","type":"string"}],"name":"InvalidMetadata","type":"error"},{"inputs":[{"internalType":"address","name":"worker","type":"address"}],"name":"NoStakeToForfeit","type":"error"},{"inputs":[{"internalType":"address","name":"owner","type":"address"}],"name":"OwnableInvalidOwner","type":"error"},{"inputs":[{"internalType":"address","name":"account","type":"address"}],"name":"OwnableUnauthorizedAccount","type":"error"},{"inputs":[{"internalType":"address","name":"worker","type":"address"},{"internalType":"uint256","name":"currentCount","type":"uint256"}],"name":"RateLimitExceededError","type":"error"},{"inputs":[{"internalType":"address","name":"caller","type":"address"}],"name":"UnauthorizedCaller","type":"error"},{"inputs":[{"internalType":"address","name":"worker","type":"address"}],"name":"WorkerBlacklistedError","type":"error"},{"anonymous":false,"inputs":[{"indexed":true,"internalType":"address","name":"worker","type":"address"},{"indexed":false,"internalType":"string","name":"imageHash","type":"string"},{"indexed":false,"internalType":"address","name":"originalWorker","type":"address"}],"name":"DuplicateDetected","type":"event"},{"anonymous":false,"inputs":[{"indexed":true,"internalType":"address","name":"previousOwner","type":"address"},{"indexed":true,"internalType":"address","name":"newOwner","type":"address"}],"name":"OwnershipTransferred","type":"event"},{"anonymous":false,"inputs":[{"indexed":true,"internalType":"address","name":"worker","type":"address"},{"indexed":false,"internalType":"uint256","name":"currentCount","type":"uint256"},{"indexed":false,"internalType":"uint256","name":"maxAllowed","type":"uint256"}],"name":"RateLimitExceeded","type":"event"},{"anonymous":false,"inputs":[{"indexed":true,"internalType":"address","name":"worker","type":"address"},{"indexed":false,"internalType":"uint256","name":"amount","type":"uint256"},{"indexed":false,"internalType":"string","name":"reason","type":"string"}],"name":"StakeForfeited","type":"event"},{"anonymous":false,"inputs":[{"indexed":true,"internalType":"address","name":"worker","type":"address"},{"indexed":true,"internalType":"uint256","name":"taskId","type":"uint256"},{"indexed":false,"internalType":"string","name":"imageHash","type":"string"},{"indexed":false,"internalType":"uint256","name":"timestamp","type":"uint256"}],"name":"SubmissionRecorded","type":"event"},{"anonymous":false,"inputs":[{"indexed":true,"internalType":"address","name":"worker","type":"address"},{"indexed":false,"internalType":"string","name":"reason","type":"string"}],"name":"WorkerBlacklisted","type":"event"},{"anonymous":false,"inputs":[{"indexed":true,"internalType":"address","name":"worker","type":"address"}],"name":"WorkerUnblacklisted","type":"event"},{"inputs":[],"name":"DUPLICATE_SIMILARITY_THRESHOLD","outputs":[{"internalType":"uint256","name":"","type":"uint256"}],"stateMutability":"view","type":"function"},{"inputs":[],"name":"MAX_SUBMISSIONS_PER_DAY","outputs":[{"internalType":"uint256","name":"","type":"uint256"}],"stateMutability":"view","type":"function"},{"inputs":[],"name":"ONE_DAY","outputs":[{"internalType":"uint256","name":"","type":"uint256"}],"stateMutability":"view","type":"function"},{"inputs":[{"internalType":"address","name":"worker","type":"address"},{"internalType":"string","name":"reason","type":"string"}],"name":"blacklistWorker","outputs":[],"stateMutability":"nonpayable","type":"function"},{"inputs":[{"internalType":"address","name":"","type":"address"}],"name":"blacklistedWorkers","outputs":[{"internalType":"bool","name":"","type":"bool"}],"stateMutability":"view","type":"function"},{"inputs":[{"internalType":"address","name":"worker","type":"address"},{"internalType":"uint256","name":"taskId","type":"uint256"},{"internalType":"string","name":"imageHash","type":"string"},{"internalType":"bytes32","name":"metadataHash","type":"bytes32"}],"name":"checkAndRecordSubmission","outputs":[{"internalType":"bool","name":"","type":"bool"}],"stateMutability":"nonpayable","type":"function"},{"inputs":[{"internalType":"string","name":"imageHash","type":"string"},{"internalType":"uint256","name":"similarityThreshold","type":"uint256"}],"name":"checkImageSimilarity","outputs":[{"internalType":"bool","name":"isSimilar","type":"bool"},{"internalType":"address","name":"originalWorker","type":"address"}],"stateMutability":"view","type":"function"},{"inputs":[{"internalType":"address","name":"worker","type":"address"},{"internalType":"string","name":"reason","type":"string"}],"name":"forfeitStake","outputs":[],"stateMutability":"nonpayable","type":"function"},{"inputs":[{"internalType":"string","name":"imageHash","type":"string"}],"name":"getImageHashWorker","outputs":[{"internalType":"address","name":"","type":"address"}],"stateMutability":"view","type":"function"},{"inputs":[{"internalType":"address","name":"worker","type":"address"}],"name":"getTodaySubmissionCount","outputs":[{"internalType":"uint256","name":"","type":"uint256"}],"stateMutability":"view","type":"function"},{"inputs":[{"internalType":"address","name":"worker","type":"address"}],"name":"getWorkerSubmissions","outputs":[{"components":[{"internalType":"uint256","name":"timestamp","type":"uint256"},{"internalType":"string","name":"imageHash","type":"string"},{"internalType":"bytes32","name":"metadataHash","type":"bytes32"}],"internalType":"struct AntiFraud.SubmissionRecord[]","name":"","type":"tuple[]"}],"stateMutability":"view","type":"function"},{"inputs":[{"internalType":"string","name":"","type":"string"}],"name":"imageHashToWorker","outputs":[{"internalType":"address","name":"","type":"address"}],"stateMutability":"view","type":"function"},{"inputs":[{"internalType":"string","name":"imageHash","type":"string"}],"name":"isImageHashUsed","outputs":[{"internalType":"bool","name":"","type":"bool"}],"stateMutability":"view","type":"function"},{"inputs":[{"internalType":"address","name":"worker","type":"address"}],"name":"isWorkerBlacklisted","outputs":[{"internalType":"bool","name":"","type":"bool"}],"stateMutability":"view","type":"function"},{"inputs":[],"name":"owner","outputs":[{"internalType":"address","name":"","type":"address"}],"stateMutability":"view","type":"function"},{"inputs":[],"name":"renounceOwnership","outputs":[],"stateMutability":"nonpayable","type":"function"},{"inputs":[{"internalType":"address","name":"_taskManager","type":"address"}],"name":"setTaskManager","outputs":[],"stateMutability":"nonpayable","type":"function"},{"inputs":[{"internalType":"address","name":"_verificationContract","type":"address"}],"name":"setVerificationContract","outputs":[],"stateMutability":"nonpayable","type":"function"},{"inputs":[],"name":"taskManagerAddress","outputs":[{"internalType":"address","name":"","type":"address"}],"stateMutability":"view","type":"function"},{"inputs":[{"internalType":"address","name":"newOwner","type":"address"}],"name":"transferOwnership","outputs":[],"stateMutability":"nonpayable","type":"function"},{"inputs":[{"internalType":"address","name":"worker","type":"address"}],"name":"unblacklistWorker","outputs":[],"stateMutability":"nonpayable","type":"function"},{"inputs":[{"internalType":"string","name":"","type":"string"}],"name":"usedImageHashes","outputs":[{"internalType":"bool","name":"","type":"bool"}],"stateMutability":"view","type":"function"},{"inputs":[{"internalType":"uint256","name":"timestamp","type":"uint256"},{"internalType":"uint256","name":"maxAge","type":"uint256"}],"name":"validateTimestamp","outputs":[{"internalType":"bool","name":"","type":"bool"}],"stateMutability":"view","type":"function"},{"inputs":[],"name":"verificationContractAddress","outputs":[{"internalType":"address","name":"","type":"address"}],"stateMutability":"view","type":"function"},{"inputs":[{"internalType":"address","name":"","type":"address"}],"name":"workerDailySubmissions","outputs":[{"internalType":"uint256","name":"date","type":"uint256"},{"internalType":"uint256","name":"count","type":"uint256"}],"stateMutability":"view","type":"function"},{"inputs":[{"internalType":"address","name":"","type":"address"}],"name":"workerStakes","outputs":[{"internalType":"uint256","name":"","type":"uint256"}],"stateMutability":"view","type":"function"},{"inputs":[{"internalType":"address","name":"","type":"address"},{"internalType":"uint256","name":"","type":"uint256"}],"name":"workerSubmissions","outputs":[{"internalType":"uint256","name":"timestamp","type":"uint256"},{"internalType":"string","name":"imageHash","type":"string"},{"internalType":"bytes32","name":"metadataHash","type":"bytes32"}],"stateMutability":"view","type":"function"}],"evm":{"bytecode":{"linkReferences":{},"object":"608060405234801561001057600080fd5b50338061003757604051631e4fbdf760e01b81526000600482015260240160405180910390fd5b61004081610046565b50610096565b600080546001600160a01b038381166001600160a01b0319831681178455604051919092169283917f8be0079c531659141344cd1fd0a4f28419497f9722a3daafe3b4186f6b6457e09190a35050565b611490806100a56000396000f3fe608060405234801561001057600080fd5b50600436106101a95760003560e01c80637a236549116100f9578063ba17981611610097578063e19fbc0311610071578063e19fbc0314610414578063e7f355eb14610450578063f2fde38b14610470578063fb48d6be1461048357600080fd5b8063ba179816146103aa578063c164bba0146103de578063d78133aa146103f157600080fd5b80638ddec546116100d35780638ddec5461461035c578063a7c74da51461036f578063afa66a6f14610382578063b3212e691461038a57600080fd5b80637a2365491461032e578063863e76db146103415780638da5cb5b1461034b57600080fd5b80632da2e7c51161016657806343b3e2eb1161014057806343b3e2eb146102b55780634535f3df146102c857806364cd72ec146102f4578063715018a61461032657600080fd5b80632da2e7c514610279578063327d0a601461028f57806333ebed30146102a257600080fd5b806304ff2f82146101ae57806308f9a9ed146101c35780631532de2b146101f35780632040e70e1461020657806327c17d3e146102285780632992e27b14610266575b600080fd5b6101c16101bc366004610ec8565b610496565b005b6101d66101d1366004610f8d565b6104e7565b6040516001600160a01b0390911681526020015b60405180910390f35b6008546101d6906001600160a01b031681565b610219610214366004610fca565b610518565b6040516101ea93929190611044565b610256610236366004610f8d565b805160208183018101805160038252928201919093012091525460ff1681565b60405190151581526020016101ea565b61025661027436600461106d565b6105e7565b610281605f81565b6040519081526020016101ea565b6101c161029d366004610ec8565b61061c565b6007546101d6906001600160a01b031681565b6102566102c336600461108f565b61067d565b6102566102d6366004610ec8565b6001600160a01b031660009081526006602052604090205460ff1690565b6103076103023660046110ee565b610741565b6040805192151583526001600160a01b039091166020830152016101ea565b6101c16107af565b6101c161033c366004611133565b6107c3565b6102816201518081565b6000546001600160a01b03166101d6565b61028161036a366004610ec8565b61088f565b61025661037d366004610f8d565b6108d4565b610281601481565b610281610398366004610ec8565b60056020526000908152604090205481565b6101d66103b8366004610f8d565b80516020818301810180516004825292820191909301209152546001600160a01b031681565b6101c16103ec366004611133565b6108ff565b6102566103ff366004610ec8565b60066020526000908152604090205460ff1681565b61043b610422366004610ec8565b6001602081905260009182526040909120805491015482565b604080519283526020830191909152016101ea565b61046361045e366004610ec8565b610966565b6040516101ea9190611181565b6101c161047e366004610ec8565b610a81565b6101c1610491366004610ec8565b610abf565b61049e610b1b565b6001600160a01b038116600081815260066020526040808220805460ff19169055517f5d1486fa181b8555e5156e631ab8de4ca6956c2600ad009f623b98413ee583dc9190a250565b60006004826040516104f99190611202565b908152604051908190036020019020546001600160a01b031692915050565b6002602052816000526040600020818154811061053457600080fd5b90600052602060002090600302016000915091505080600001549080600101805461055e9061121e565b80601f016020809104026020016040519081016040528092919081815260200182805461058a9061121e565b80156105d75780601f106105ac576101008083540402835291602001916105d7565b820191906000526020600020905b8154815290600101906020018083116105ba57829003601f168201915b5050505050908060020154905083565b6000428311156105f957506000610616565b81610604844261126e565b111561061257506000610616565b5060015b92915050565b610624610b1b565b6001600160a01b03811661065b57604051634726455360e11b81526001600160a01b03821660048201526024015b60405180910390fd5b600880546001600160a01b0319166001600160a01b0392909216919091179055565b6007546000906001600160a01b031633148015906106a657506008546001600160a01b03163314155b156106c65760405163d86ad9cf60e01b8152336004820152602401610652565b6001600160a01b038516600090815260066020526040902054859060ff161561070d57604051630c10e2a560e31b81526001600160a01b0382166004820152602401610652565b61071686610b48565b6107208685610c23565b61072983610cd5565b61073586868686610d23565b50600195945050505050565b6000806003846040516107549190611202565b9081526040519081900360200190205460ff16156107a157600160048560405161077e9190611202565b908152604051908190036020019020549092506001600160a01b031690506107a8565b5060009050805b9250929050565b6107b7610b1b565b6107c16000610e3d565b565b6007546001600160a01b031633146107f05760405163d86ad9cf60e01b8152336004820152602401610652565b6001600160a01b0382166000908152600560205260408120549081900361083557604051636c65ddcf60e01b81526001600160a01b0384166004820152602401610652565b6001600160a01b03831660008181526005602052604080822091909155517f2cf29c4d53c38277a9ad492bd60fccc26b0bf83363383f22bde9bc3c0fa79f64906108829084908690611281565b60405180910390a2505050565b60008061089a610e8d565b6001600160a01b03841660009081526001602052604090208054919250908290036108ca57600101549392505050565b5060009392505050565b60006003826040516108e69190611202565b9081526040519081900360200190205460ff1692915050565b610907610b1b565b6001600160a01b03821660008181526006602052604090819020805460ff19166001179055517ff74fa97e352c4a3426dbc4f571677f91da19b1180c4a06caa1be423792cd24c39061095a90849061129a565b60405180910390a25050565b6001600160a01b0381166000908152600260209081526040808320805482518185028101850190935280835260609492939192909184015b82821015610a765783829060005260206000209060030201604051806060016040529081600082015481526020016001820180546109db9061121e565b80601f0160208091040260200160405190810160405280929190818152602001828054610a079061121e565b8015610a545780601f10610a2957610100808354040283529160200191610a54565b820191906000526020600020905b815481529060010190602001808311610a3757829003601f168201915b505050505081526020016002820154815250508152602001906001019061099e565b505050509050919050565b610a89610b1b565b6001600160a01b038116610ab357604051631e4fbdf760e01b815260006004820152602401610652565b610abc81610e3d565b50565b610ac7610b1b565b6001600160a01b038116610af957604051634726455360e11b81526001600160a01b0382166004820152602401610652565b600780546001600160a01b0319166001600160a01b0392909216919091179055565b6000546001600160a01b031633146107c15760405163118cdaa760e01b8152336004820152602401610652565b6000610b52610e8d565b6001600160a01b03831660009081526001602052604090208054919250908214610b8157818155600060018201555b6014816001015410610c0757600181015460408051918252601460208301526001600160a01b038516917f853d8bc84624b52a1a6244e2d8e0961ad8035ee7ed75d6054cd4d49a2c247a42910160405180910390a260018101546040516361d728f960e11b81526001600160a01b03851660048201526024810191909152604401610652565b600181018054906000610c19836112ad565b9190505550505050565b600381604051610c339190611202565b9081526040519081900360200190205460ff1615610cd1576000600482604051610c5d9190611202565b908152604051908190036020018120546001600160a01b0390811692508416907faa3c85c862e47ddd5ec91fd6fb417d704b426f86acab82db01c3f2208722eae790610cac90859085906112c6565b60405180910390a281816040516303782f7d60e31b81526004016106529291906112c6565b5050565b80610abc5760405163c016d38960e01b815260206004820152601d60248201527f4d6574616461746120686173682063616e6e6f7420626520656d7074790000006044820152606401610652565b6001600160a01b03841660009081526002602090815260408083208151606081018352428152808401878152928101869052815460018181018455928652939094208451600390940201928355905190820190610d80908261133f565b506040820151816002015550506001600383604051610d9f9190611202565b908152604051908190036020018120805492151560ff19909316929092179091558490600490610dd0908590611202565b90815260405190819003602001812080546001600160a01b039384166001600160a01b031990911617905584918616907f9ae10898e3d52f581aae6ddba0531ccaf6c21d9ef8593b66359be8227ecc6ff190610e2f90869042906113ff565b60405180910390a350505050565b600080546001600160a01b038381166001600160a01b0319831681178455604051919092169283917f8be0079c531659141344cd1fd0a4f28419497f9722a3daafe3b4186f6b6457e09190a35050565b600062015180610e9d8142611421565b610ea79190611443565b905090565b80356001600160a01b0381168114610ec357600080fd5b919050565b600060208284031215610eda57600080fd5b610ee382610eac565b9392505050565b634e487b7160e01b600052604160045260246000fd5b600082601f830112610f1157600080fd5b813567ffffffffffffffff80821115610f2c57610f2c610eea565b604051601f8301601f19908116603f01168101908282118183101715610f5457610f54610eea565b81604052838152866020858801011115610f6d57600080fd5b836020870160208301376000602085830101528094505050505092915050565b600060208284031215610f9f57600080fd5b813567ffffffffffffffff811115610fb657600080fd5b610fc284828501610f00565b949350505050565b60008060408385031215610fdd57600080fd5b610fe683610eac565b946020939093013593505050565b60005b8381101561100f578181015183820152602001610ff7565b50506000910152565b60008151808452611030816020860160208601610ff4565b601f01601f19169290920160200192915050565b83815260606020820152600061105d6060830185611018565b9050826040830152949350505050565b6000806040838503121561108057600080fd5b50508035926020909101359150565b600080600080608085870312156110a557600080fd5b6110ae85610eac565b935060208501359250604085013567ffffffffffffffff8111156110d157600080fd5b6110dd87828801610f00565b949793965093946060013593505050565b6000806040838503121561110157600080fd5b823567ffffffffffffffff81111561111857600080fd5b61112485828601610f00565b95602094909401359450505050565b6000806040838503121561114657600080fd5b61114f83610eac565b9150602083013567ffffffffffffffff81111561116b57600080fd5b61117785828601610f00565b9150509250929050565b60006020808301818452808551808352604092508286019150828160051b87010184880160005b838110156111f457603f19898403018552815160608151855288820151818a8701526111d682870182611018565b928901519589019590955250948701949250908601906001016111a8565b509098975050505050505050565b60008251611214818460208701610ff4565b9190910192915050565b600181811c9082168061123257607f821691505b60208210810361125257634e487b7160e01b600052602260045260246000fd5b50919050565b634e487b7160e01b600052601160045260246000fd5b8181038181111561061657610616611258565b828152604060208201526000610fc26040830184611018565b602081526000610ee36020830184611018565b6000600182016112bf576112bf611258565b5060010190565b6040815260006112d96040830185611018565b905060018060a01b03831660208301529392505050565b601f82111561133a57600081815260208120601f850160051c810160208610156113175750805b601f850160051c820191505b8181101561133657828155600101611323565b5050505b505050565b815167ffffffffffffffff81111561135957611359610eea565b61136d81611367845461121e565b846112f0565b602080601f8311600181146113a2576000841561138a5750858301515b600019600386901b1c1916600185901b178555611336565b600085815260208120601f198616915b828110156113d1578886015182559484019460019091019084016113b2565b50858210156113ef5787850151600019600388901b60f8161c191681555b5050505050600190811b01905550565b6040815260006114126040830185611018565b90508260208301529392505050565b60008261143e57634e487b7160e01b600052601260045260246000fd5b500490565b80820281158282048414176106165761061661125856fea2646970667358221220bd7a472cc14f8c7fd93af1498fc679e702014e2f7a3781288b8381b106031b5364736f6c63430008140033","opcodes":"PUSH1 0x80 PUSH1 0x40 MSTORE CALLVALUE DUP1 ISZERO PUSH2 0x10 JUMPI PUSH1 0x0 DUP1 REVERT JUMPDEST POP CALLER DUP1 PUSH2 0x37 JUMPI PUSH1 0x40 MLOAD PUSH4 0x1E4FBDF7 PUSH1 0xE0 SHL DUP2 MSTORE PUSH1 0x0 PUSH1 0x4 DUP3 ADD MSTORE PUSH1 0x24 ADD PUSH1 0x40 MLOAD DUP1 SWAP2 SUB SWAP1 REVERT JUMPDEST PUSH2 0x40 DUP2 PUSH2 0x46 JUMP JUMPDEST POP PUSH2 0x96 JUMP JUMPDEST PUSH1 0x0 DUP1 SLOAD PUSH1 0x1 PUSH1 0x1 PUSH1 0xA0 SHL SUB DUP4 DUP2 AND PUSH1 0x1 PUSH1 0x1 PUSH1 0xA0 SHL SUB NOT DUP4 AND DUP2 OR DUP5 SSTORE PUSH1 0x40 MLOAD SWAP2 SWAP1 SWAP3 AND SWAP3 DUP4 SWAP2 PUSH32 0x8BE0079C531659141344CD1FD0A4F28419497F9722A3DAAFE3B4186F6B6457E0 SWAP2 SWAP1 LOG3 POP POP JUMP JUMPDEST PUSH2 0x1490 DUP1 PUSH2 0xA5 PUSH1 0x0 CODECOPY PUSH1 0x0 RETURN INVALID PUSH1 0x80 PUSH1 0x40 MSTORE CALLVALUE DUP1 ISZERO PUSH2 0x10 JUMPI PUSH1 0x0 DUP1 REVERT JUMPDEST POP PUSH1 0x4 CALLDATASIZE LT PUSH2 0x1A9 JUMPI PUSH1 0x0 CALLDATALOAD PUSH1 0xE0 SHR DUP1 PUSH4 0x7A236549 GT PUSH2 0xF9 JUMPI DUP1 PUSH4 0xBA179816 GT PUSH2 0x97 JUMPI DUP1 PUSH4 0xE19FBC03 GT PUSH2 0x71 JUMPI DUP1 PUSH4 0xE19FBC03 EQ PUSH2 0x414 JUMPI DUP1 PUSH4 0xE7F355EB EQ PUSH2 0x450 JUMPI DUP1 PUSH4 0xF2FDE38B EQ PUSH2 0x470 JUMPI DUP1 PUSH4 0xFB48D6BE EQ PUSH2 0x483 JUMPI PUSH1 0x0 DUP1 REVERT JUMPDEST DUP1 PUSH4 0xBA179816 EQ PUSH2 0x3AA JUMPI DUP1 PUSH4 0xC164BBA0 EQ PUSH2 0x3DE JUMPI DUP1 PUSH4 0xD78133AA EQ PUSH2 0x3F1 JUMPI PUSH1 0x0 DUP1 REVERT JUMPDEST DUP1 PUSH4 0x8DDEC546 GT PUSH2 0xD3 JUMPI DUP1 PUSH4 0x8DDEC546 EQ PUSH2 0x35C JUMPI DUP1 PUSH4 0xA7C74DA5 EQ PUSH2 0x36F JUMPI DUP1 PUSH4 0xAFA66A6F EQ PUSH2 0x382 JUMPI DUP1 PUSH4 0xB3212E69 EQ PUSH2 0x38A JUMPI PUSH1 0x0 DUP1 REVERT JUMPDEST DUP1 PUSH4 0x7A236549 EQ PUSH2 0x32E JUMPI DUP1 PUSH4 0x863E76DB EQ PUSH2 0x341 JUMPI DUP1 PUSH4 0x8DA5CB5B EQ PUSH2 0x34B JUMPI PUSH1 0x0 DUP1 REVERT JUMPDEST DUP1 PUSH4 0x2DA2E7C5 GT PUSH2 0x166 JUMPI DUP1 PUSH4 0x43B3E2EB GT PUSH2 0x140 JUMPI DUP1 PUSH4 0x43B3E2EB EQ PUSH2 0x2B5 JUMPI DUP1 PUSH4 0x4535F3DF EQ PUSH2 0x2C8 JUMPI DUP1 PUSH4 0x64CD72EC EQ PUSH2 0x2F4 JUMPI DUP1 PUSH4 0x715018A6 EQ PUSH2 0x326 JUMPI PUSH1 0x0 DUP1 REVERT JUMPDEST DUP1 PUSH4 0x2DA2E7C5 EQ PUSH2 0x279 JUMPI DUP1 PUSH4 0x327D0A60 EQ PUSH2 0x28F JUMPI DUP1 PUSH4 0x33EBED30 EQ PUSH2 0x2A2 JUMPI PUSH1 0x0 DUP1 REVERT JUMPDEST DUP1 PUSH4 0x4FF2F82 EQ PUSH2 0x1AE JUMPI DUP1 PUSH4 0x8F9A9ED EQ PUSH2 0x1C3 JUMPI DUP1 PUSH4 0x1532DE2B EQ PUSH2 0x1F3 JUMPI DUP1 PUSH4 0x2040E70E EQ PUSH2 0x206 JUMPI DUP1 PUSH4 0x27C17D3E EQ PUSH2 0x228 JUMPI DUP1 PUSH4 0x2992E27B EQ PUSH2 0x266 JUMPI JUMPDEST PUSH1 0x0 DUP1 REVERT JUMPDEST PUSH2 0x1C1 PUSH2 0x1BC CALLDATASIZE PUSH1 0x4 PUSH2 0xEC8 JUMP JUMPDEST PUSH2 0x496 JUMP JUMPDEST STOP JUMPDEST PUSH2 0x1D6 PUSH2 0x1D1 CALLDATASIZE PUSH1 0x4 PUSH2 0xF8D JUMP JUMPDEST PUSH2 0x4E7 JUMP JUMPDEST PUSH1 0x40 MLOAD PUSH1 0x1 PUSH1 0x1 PUSH1 0xA0 SHL SUB SWAP1 SWAP2 AND DUP2 MSTORE PUSH1 0x20 ADD JUMPDEST PUSH1 0x40 MLOAD DUP1 SWAP2 SUB SWAP1 RETURN JUMPDEST PUSH1 0x8 SLOAD PUSH2 0x1D6 SWAP1 PUSH1 0x1 PUSH1 0x1 PUSH1 0xA0 SHL SUB AND DUP2 JUMP JUMPDEST PUSH2 0x219 PUSH2 0x214 CALLDATASIZE PUSH1 0x4 PUSH2 0xFCA JUMP JUMPDEST PUSH2 0x518 JUMP JUMPDEST PUSH1 0x40 MLOAD PUSH2 0x1EA SWAP4 SWAP3 SWAP2 SWAP1 PUSH2 0x1044 JUMP JUMPDEST PUSH2 0x256 PUSH2 0x236 CALLDATASIZE PUSH1 0x4 PUSH2 0xF8D JUMP JUMPDEST DUP1 MLOAD PUSH1 0x20 DUP2 DUP4 ADD DUP2 ADD DUP1 MLOAD PUSH1 0x3 DUP3 MSTORE SWAP3 DUP3 ADD SWAP2 SWAP1 SWAP4 ADD KECCAK256 SWAP2 MSTORE SLOAD PUSH1 0xFF AND DUP2 JUMP JUMPDEST PUSH1 0x40 MLOAD SWAP1 ISZERO ISZERO DUP2 MSTORE PUSH1 0x20 ADD PUSH2 0x1EA JUMP JUMPDEST PUSH2 0x256 PUSH2 0x274 CALLDATASIZE PUSH1 0x4 PUSH2 0x106D JUMP JUMPDEST PUSH2 0x5E7 JUMP JUMPDEST PUSH2 0x281 PUSH1 0x5F DUP2 JUMP JUMPDEST PUSH1 0x40 MLOAD SWAP1 DUP2 MSTORE PUSH1 0x20 ADD PUSH2 0x1EA JUMP JUMPDEST PUSH2 0x1C1 PUSH2 0x29D CALLDATASIZE PUSH1 0x4 PUSH2 0xEC8 JUMP JUMPDEST PUSH2 0x61C JUMP JUMPDEST PUSH1 0x7 SLOAD PUSH2 0x1D6 SWAP1 PUSH1 0x1 PUSH1 0x1 PUSH1 0xA0 SHL SUB AND DUP2 JUMP JUMPDEST PUSH2 0x256 PUSH2 0x2C3 CALLDATASIZE PUSH1 0x4 PUSH2 0x108F JUMP JUMPDEST PUSH2 0x67D JUMP JUMPDEST PUSH2 0x256 PUSH2 0x2D6 CALLDATASIZE PUSH1 0x4 PUSH2 0xEC8 JUMP JUMPDEST PUSH1 0x1 PUSH1 0x1 PUSH1 0xA0 SHL SUB AND PUSH1 0x0 SWAP1 DUP2 MSTORE PUSH1 0x6 PUSH1 0x20 MSTORE PUSH1 0x40 SWAP1 KECCAK256 SLOAD PUSH1 0xFF AND SWAP1 JUMP JUMPDEST PUSH2 0x307 PUSH2 0x302 CALLDATASIZE PUSH1 0x4 PUSH2 0x10EE JUMP JUMPDEST PUSH2 0x741 JUMP JUMPDEST PUSH1 0x40 DUP1 MLOAD SWAP3 ISZERO ISZERO DUP4 MSTORE PUSH1 0x1 PUSH1 0x1 PUSH1 0xA0 SHL SUB SWAP1 SWAP2 AND PUSH1 0x20 DUP4 ADD MSTORE ADD PUSH2 0x1EA JUMP JUMPDEST PUSH2 0x1C1 PUSH2 0x7AF JUMP JUMPDEST PUSH2 0x1C1 PUSH2 0x33C CALLDATASIZE PUSH1 0x4 PUSH2 0x1133 JUMP JUMPDEST PUSH2 0x7C3 JUMP JUMPDEST PUSH2 0x281 PUSH3 0x15180 DUP2 JUMP JUMPDEST PUSH1 0x0 SLOAD PUSH1 0x1 PUSH1 0x1 PUSH1 0xA0 SHL SUB AND PUSH2 0x1D6 JUMP JUMPDEST PUSH2 0x281 PUSH2 0x36A CALLDATASIZE PUSH1 0x4 PUSH2 0xEC8 JUMP JUMPDEST PUSH2 0x88F JUMP JUMPDEST PUSH2 0x256 PUSH2 0x37D CALLDATASIZE PUSH1 0x4 PUSH2 0xF8D JUMP JUMPDEST PUSH2 0x8D4 JUMP JUMPDEST PUSH2 0x281 PUSH1 0x14 DUP2 JUMP JUMPDEST PUSH2 0x281 PUSH2 0x398 CALLDATASIZE PUSH1 0x4 PUSH2 0xEC8 JUMP JUMPDEST PUSH1 0x5 PUSH1 0x20 MSTORE PUSH1 0x0 SWAP1 DUP2 MSTORE PUSH1 0x40 SWAP1 KECCAK256 SLOAD DUP2 JUMP JUMPDEST PUSH2 0x1D6 PUSH2 0x3B8 CALLDATASIZE PUSH1 0x4 PUSH2 0xF8D JUMP JUMPDEST DUP1 MLOAD PUSH1 0x20 DUP2 DUP4 ADD DUP2 ADD DUP1 MLOAD PUSH1 0x4 DUP3 MSTORE SWAP3 DUP3 ADD SWAP2 SWAP1 SWAP4 ADD KECCAK256 SWAP2 MSTORE SLOAD PUSH1 0x1 PUSH1 0x1 PUSH1 0xA0 SHL SUB AND DUP2 JUMP JUMPDEST PUSH2 0x1C1 PUSH2 0x3EC CALLDATASIZE PUSH1 0x4 PUSH2 0x1133 JUMP JUMPDEST PUSH2 0x8FF JUMP JUMPDEST PUSH2 0x256 PUSH2 0x3FF CALLDATASIZE PUSH1 0x4 PUSH2 0xEC8 JUMP JUMPDEST PUSH1 0x6 PUSH1 0x20 MSTORE PUSH1 0x0 SWAP1 DUP2 MSTORE PUSH1 0x40 SWAP1 KECCAK256 SLOAD PUSH1 0xFF AND DUP2 JUMP JUMPDEST PUSH2 0x43B PUSH2 0x422 CALLDATASIZE PUSH1 0x4 PUSH2 0xEC8 JUMP JUMPDEST PUSH1 0x1 PUSH1 0x20 DUP2 SWAP1 MSTORE PUSH1 0x0 SWAP2 DUP3 MSTORE PUSH1 0x40 SWAP1 SWAP2 KECCAK256 DUP1 SLOAD SWAP2 ADD SLOAD DUP3 JUMP JUMPDEST PUSH1 0x40 DUP1 MLOAD SWAP3 DUP4 MSTORE PUSH1 0x20 DUP4 ADD SWAP2 SWAP1 SWAP2 MSTORE ADD PUSH2 0x1EA JUMP JUMPDEST PUSH2 0x463 PUSH2 0x45E CALLDATASIZE PUSH1 0x4 PUSH2 0xEC8 JUMP JUMPDEST PUSH2 0x966 JUMP JUMPDEST PUSH1 0x40 MLOAD PUSH2 0x1EA SWAP2 SWAP1 PUSH2 0x1181 JUMP JUMPDEST PUSH2 0x1C1 PUSH2 0x47E CALLDATASIZE PUSH1 0x4 PUSH2 0xEC8 JUMP JUMPDEST PUSH2 0xA81 JUMP JUMPDEST PUSH2 0x1C1 PUSH2 0x491 CALLDATASIZE PUSH1 0x4 PUSH2 0xEC8 JUMP JUMPDEST PUSH2 0xABF JUMP JUMPDEST PUSH2 0x49E PUSH2 0xB1B JUMP JUMPDEST PUSH1 0x1 PUSH1 0x1 PUSH1 0xA0 SHL SUB DUP2 AND PUSH1 0x0 DUP2 DUP2 MSTORE PUSH1 0x6 PUSH1 0x20 MSTORE PUSH1 0x40 DUP1 DUP3 KECCAK256 DUP1 SLOAD PUSH1 0xFF NOT AND SWAP1 SSTORE MLOAD PUSH32 0x5D1486FA181B8555E5156E631AB8DE4CA6956C2600AD009F623B98413EE583DC SWAP2 SWAP1 LOG2 POP JUMP JUMPDEST PUSH1 0x0 PUSH1 0x4 DUP3 PUSH1 0x40 MLOAD PUSH2 0x4F9 SWAP2 SWAP1 PUSH2 0x1202 JUMP JUMPDEST SWAP1 DUP2 MSTORE PUSH1 0x40 MLOAD SWAP1 DUP2 SWAP1 SUB PUSH1 0x20 ADD SWAP1 KECCAK256 SLOAD PUSH1 0x1 PUSH1 0x1 PUSH1 0xA0 SHL SUB AND SWAP3 SWAP2 POP POP JUMP JUMPDEST PUSH1 0x2 PUSH1 0x20 MSTORE DUP2 PUSH1 0x0 MSTORE PUSH1 0x40 PUSH1 0x0 KECCAK256 DUP2 DUP2 SLOAD DUP2 LT PUSH2 0x534 JUMPI PUSH1 0x0 DUP1 REVERT JUMPDEST SWAP1 PUSH1 0x0 MSTORE PUSH1 0x20 PUSH1 0x0 KECCAK256 SWAP1 PUSH1 0x3 MUL ADD PUSH1 0x0 SWAP2 POP SWAP2 POP POP DUP1 PUSH1 0x0 ADD SLOAD SWAP1 DUP1 PUSH1 0x1 ADD DUP1 SLOAD PUSH2 0x55E SWAP1 PUSH2 0x121E JUMP JUMPDEST DUP1 PUSH1 0x1F ADD PUSH1 0x20 DUP1 SWAP2 DIV MUL PUSH1 0x20 ADD PUSH1 0x40 MLOAD SWAP1 DUP2 ADD PUSH1 0x40 MSTORE DUP1 SWAP3 SWAP2 SWAP1 DUP2 DUP2 MSTORE PUSH1 0x20 ADD DUP3 DUP1 SLOAD PUSH2 0x58A SWAP1 PUSH2 0x121E JUMP JUMPDEST DUP1 ISZERO PUSH2 0x5D7 JUMPI DUP1 PUSH1 0x1F LT PUSH2 0x5AC JUMPI PUSH2 0x100 DUP1 DUP4 SLOAD DIV MUL DUP4 MSTORE SWAP2 PUSH1 0x20 ADD SWAP2 PUSH2 0x5D7 JUMP JUMPDEST DUP3 ADD SWAP2 SWAP1 PUSH1 0x0 MSTORE PUSH1 0x20 PUSH1 0x0 KECCAK256 SWAP1 JUMPDEST DUP2 SLOAD DUP2 MSTORE SWAP1 PUSH1 0x1 ADD SWAP1 PUSH1 0x20 ADD DUP1 DUP4 GT PUSH2 0x5BA JUMPI DUP3 SWAP1 SUB PUSH1 0x1F AND DUP3 ADD SWAP2 JUMPDEST POP POP POP POP POP SWAP1 DUP1 PUSH1 0x2 ADD SLOAD SWAP1 POP DUP4 JUMP JUMPDEST PUSH1 0x0 TIMESTAMP DUP4 GT ISZERO PUSH2 0x5F9 JUMPI POP PUSH1 0x0 PUSH2 0x616 JUMP JUMPDEST DUP2 PUSH2 0x604 DUP5 TIMESTAMP PUSH2 0x126E JUMP JUMPDEST GT ISZERO PUSH2 0x612 JUMPI POP PUSH1 0x0 PUSH2 0x616 JUMP JUMPDEST POP PUSH1 0x1 JUMPDEST SWAP3 SWAP2 POP POP JUMP JUMPDEST PUSH2 0x624 PUSH2 0xB1B JUMP JUMPDEST PUSH1 0x1 PUSH1 0x1 PUSH1 0xA0 SHL SUB DUP2 AND PUSH2 0x65B JUMPI PUSH1 0x40 MLOAD PUSH4 0x47264553 PUSH1 0xE1 SHL DUP2 MSTORE PUSH1 0x1 PUSH1 0x1 PUSH1 0xA0 SHL SUB DUP3 AND PUSH1 0x4 DUP3 ADD MSTORE PUSH1 0x24 ADD JUMPDEST PUSH1 0x40 MLOAD DUP1 SWAP2 SUB SWAP1 REVERT JUMPDEST PUSH1 0x8 DUP1 SLOAD PUSH1 0x1 PUSH1 0x1 PUSH1 0xA0 SHL SUB NOT AND PUSH1 0x1 PUSH1 0x1 PUSH1 0xA0 SHL SUB SWAP3 SWAP1 SWAP3 AND SWAP2 SWAP1 SWAP2 OR SWAP1 SSTORE JUMP JUMPDEST PUSH1 0x7 SLOAD PUSH1 0x0 SWAP1 PUSH1 0x1 PUSH1 0x1 PUSH1 0xA0 SHL SUB AND CALLER EQ DUP1 ISZERO SWAP1 PUSH2 0x6A6 JUMPI POP PUSH1 0x8 SLOAD PUSH1 0x1 PUSH1 0x1 PUSH1 0xA0 SHL SUB AND CALLER EQ ISZERO JUMPDEST ISZERO PUSH2 0x6C6 JUMPI PUSH1 0x40 MLOAD PUSH4 0xD86AD9CF PUSH1 0xE0 SHL DUP2 MSTORE CALLER PUSH1 0x4 DUP3 ADD MSTORE PUSH1 0x24 ADD PUSH2 0x652 JUMP JUMPDEST PUSH1 0x1 PUSH1 0x1 PUSH1 0xA0 SHL SUB DUP6 AND PUSH1 0x0 SWAP1 DUP2 MSTORE PUSH1 0x6 PUSH1 0x20 MSTORE PUSH1 0x40 SWAP1 KECCAK256 SLOAD DUP6 SWAP1 PUSH1 0xFF AND ISZERO PUSH2 0x70D JUMPI PUSH1 0x40 MLOAD PUSH4 0xC10E2A5 PUSH1 0xE3 SHL DUP2 MSTORE PUSH1 0x1 PUSH1 0x1 PUSH1 0xA0 SHL SUB DUP3 AND PUSH1 0x4 DUP3 ADD MSTORE PUSH1 0x24 ADD PUSH2 0x652 JUMP JUMPDEST PUSH2 0x716 DUP7 PUSH2 0xB48 JUMP JUMPDEST PUSH2 0x720 DUP7 DUP6 PUSH2 0xC23 JUMP JUMPDEST PUSH2 0x729 DUP4 PUSH2 0xCD5 JUMP JUMPDEST PUSH2 0x735 DUP7 DUP7 DUP7 DUP7 PUSH2 0xD23 JUMP JUMPDEST POP PUSH1 0x1 SWAP6 SWAP5 POP POP POP POP POP JUMP JUMPDEST PUSH1 0x0 DUP1 PUSH1 0x3 DUP5 PUSH1 0x40 MLOAD PUSH2 0x754 SWAP2 SWAP1 PUSH2 0x1202 JUMP JUMPDEST SWAP1 DUP2 MSTORE PUSH1 0x40 MLOAD SWAP1 DUP2 SWAP1 SUB PUSH1 0x20 ADD SWAP1 KECCAK256 SLOAD PUSH1 0xFF AND ISZERO PUSH2 0x7A1 JUMPI PUSH1 0x1 PUSH1 0x4 DUP6 PUSH1 0x40 MLOAD PUSH2 0x77E SWAP2 SWAP1 PUSH2 0x1202 JUMP JUMPDEST SWAP1 DUP2 MSTORE PUSH1 0x40 MLOAD SWAP1 DUP2 SWAP1 SUB PUSH1 0x20 ADD SWAP1 KECCAK256 SLOAD SWAP1 SWAP3 POP PUSH1 0x1 PUSH1 0x1 PUSH1 0xA0 SHL SUB AND SWAP1 POP PUSH2 0x7A8 JUMP JUMPDEST POP PUSH1 0x0 SWAP1 POP DUP1 JUMPDEST SWAP3 POP SWAP3 SWAP1 POP JUMP JUMPDEST PUSH2 0x7B7 PUSH2 0xB1B JUMP JUMPDEST PUSH2 0x7C1 PUSH1 0x0 PUSH2 0xE3D JUMP JUMPDEST JUMP JUMPDEST PUSH1 0x7 SLOAD PUSH1 0x1 PUSH1 0x1 PUSH1 0xA0 SHL SUB AND CALLER EQ PUSH2 0x7F0 JUMPI PUSH1 0x40 MLOAD PUSH4 0xD86AD9CF PUSH1 0xE0 SHL DUP2 MSTORE CALLER PUSH1 0x4 DUP3 ADD MSTORE PUSH1 0x24 ADD PUSH2 0x652 JUMP JUMPDEST PUSH1 0x1 PUSH1 0x1 PUSH1 0xA0 SHL SUB DUP3 AND PUSH1 0x0 SWAP1 DUP2 MSTORE PUSH1 0x5 PUSH1 0x20 MSTORE PUSH1 0x40 DUP2 KECCAK256 SLOAD SWAP1 DUP2 SWAP1 SUB PUSH2 0x835 JUMPI PUSH1 0x40 MLOAD PUSH4 0x6C65DDCF PUSH1 0xE0 SHL DUP2 MSTORE PUSH1 0x1 PUSH1 0x1 PUSH1 0xA0 SHL SUB DUP5 AND PUSH1 0x4 DUP3 ADD MSTORE PUSH1 0x24 ADD PUSH2 0x652 JUMP JUMPDEST PUSH1 0x1 PUSH1 0x1 PUSH1 0xA0 SHL SUB DUP4 AND PUSH1 0x0 DUP2 DUP2 MSTORE PUSH1 0x5 PUSH1 0x20 MSTORE PUSH1 0x40 DUP1 DUP3 KECCAK256 SWAP2 SWAP1 SWAP2 SSTORE MLOAD PUSH32 0x2CF29C4D53C38277A9AD492BD60FCCC26B0BF83363383F22BDE9BC3C0FA79F64 SWAP1 PUSH2 0x882 SWAP1 DUP5 SWAP1 DUP7 SWAP1 PUSH2 0x1281 JUMP JUMPDEST PUSH1 0x40 MLOAD DUP1 SWAP2 SUB SWAP1 LOG2 POP POP POP JUMP JUMPDEST PUSH1 0x0 DUP1 PUSH2 0x89A PUSH2 0xE8D JUMP JUMPDEST PUSH1 0x1 PUSH1 0x1 PUSH1 0xA0 SHL SUB DUP5 AND PUSH1 0x0 SWAP1 DUP2 MSTORE PUSH1 0x1 PUSH1 0x20 MSTORE PUSH1 0x40 SWAP1 KECCAK256 DUP1 SLOAD SWAP2 SWAP3 POP SWAP1 DUP3 SWAP1 SUB PUSH2 0x8CA JUMPI PUSH1 0x1 ADD SLOAD SWAP4 SWAP3 POP POP POP JUMP JUMPDEST POP PUSH1 0x0 SWAP4 SWAP3 POP POP POP JUMP JUMPDEST PUSH1 0x0 PUSH1 0x3 DUP3 PUSH1 0x40 MLOAD PUSH2 0x8E6 SWAP2 SWAP1 PUSH2 0x1202 JUMP JUMPDEST SWAP1 DUP2 MSTORE PUSH1 0x40 MLOAD SWAP1 DUP2 SWAP1 SUB PUSH1 0x20 ADD SWAP1 KECCAK256 SLOAD PUSH1 0xFF AND SWAP3 SWAP2 POP POP JUMP JUMPDEST PUSH2 0x907 PUSH2 0xB1B JUMP JUMPDEST PUSH1 0x1 PUSH1 0x1 PUSH1 0xA0 SHL SUB DUP3 AND PUSH1 0x0 DUP2 DUP2 MSTORE PUSH1 0x6 PUSH1 0x20 MSTORE PUSH1 0x40 SWAP1 DUP2 SWAP1 KECCAK256 DUP1 SLOAD PUSH1 0xFF NOT AND PUSH1 0x1 OR SWAP1 SSTORE MLOAD PUSH32 0xF74FA97E352C4A3426DBC4F571677F91DA19B1180C4A06CAA1BE423792CD24C3 SWAP1 PUSH2 0x95A SWAP1 DUP5 SWAP1 PUSH2 0x129A JUMP JUMPDEST PUSH1 0x40 MLOAD DUP1 SWAP2 SUB SWAP1 LOG2 POP POP JUMP JUMPDEST PUSH1 0x1 PUSH1 0x1 PUSH1 0xA0 SHL SUB DUP2 AND PUSH1 0x0 SWAP1 DUP2 MSTORE PUSH1 0x2 PUSH1 0x20 SWAP1 DUP2 MSTORE PUSH1 0x40 DUP1 DUP4 KECCAK256 DUP1 SLOAD DUP3 MLOAD DUP2 DUP6 MUL DUP2 ADD DUP6 ADD SWAP1 SWAP4 MSTORE DUP1 DUP4 MSTORE PUSH1 0x60 SWAP5 SWAP3 SWAP4 SWAP2 SWAP3 SWAP1 SWAP2 DUP5 ADD JUMPDEST DUP3 DUP3 LT ISZERO PUSH2 0xA76 JUMPI DUP4 DUP3 SWAP1 PUSH1 0x0 MSTORE PUSH1 0x20 PUSH1 0x0 KECCAK256 SWAP1 PUSH1 0x3 MUL ADD PUSH1 0x40 MLOAD DUP1 PUSH1 0x60 ADD PUSH1 0x40 MSTORE SWAP1 DUP2 PUSH1 0x0 DUP3 ADD SLOAD DUP2 MSTORE PUSH1 0x20 ADD PUSH1 0x1 DUP3 ADD DUP1 SLOAD PUSH2 0x9DB SWAP1 PUSH2 0x121E JUMP JUMPDEST DUP1 PUSH1 0x1F ADD PUSH1 0x20 DUP1 SWAP2 DIV MUL PUSH1 0x20 ADD PUSH1 0x40 MLOAD SWAP1 DUP2 ADD PUSH1 0x40 MSTORE DUP1 SWAP3 SWAP2 SWAP1 DUP2 DUP2 MSTORE PUSH1 0x20 ADD DUP3 DUP1 SLOAD PUSH2 0xA07 SWAP1 PUSH2 0x121E JUMP JUMPDEST DUP1 ISZERO PUSH2 0xA54 JUMPI DUP1 PUSH1 0x1F LT PUSH2 0xA29 JUMPI PUSH2 0x100 DUP1 DUP4 SLOAD DIV MUL DUP4 MSTORE SWAP2 PUSH1 0x20 ADD SWAP2 PUSH2 0xA54 JUMP JUMPDEST DUP3 ADD SWAP2 SWAP1 PUSH1 0x0 MSTORE PUSH1 0x20 PUSH1 0x0 KECCAK256 SWAP1 JUMPDEST DUP2 SLOAD DUP2 MSTORE SWAP1 PUSH1 0x1 ADD SWAP1 PUSH1 0x20 ADD DUP1 DUP4 GT PUSH2 0xA37 JUMPI DUP3 SWAP1 SUB PUSH1 0x1F AND DUP3 ADD SWAP2 JUMPDEST POP POP POP POP POP DUP2 MSTORE PUSH1 0x20 ADD PUSH1 0x2 DUP3 ADD SLOAD DUP2 MSTORE POP POP DUP2 MSTORE PUSH1 0x20 ADD SWAP1 PUSH1 0x1 ADD SWAP1 PUSH2 0x99E JUMP JUMPDEST POP POP POP POP SWAP1 POP SWAP2 SWAP1 POP JUMP JUMPDEST PUSH2 0xA89 PUSH2 0xB1B JUMP JUMPDEST PUSH1 0x1 PUSH1 0x1 PUSH1 0xA0 SHL SUB DUP2 AND PUSH2 0xAB3 JUMPI PUSH1 0x40 MLOAD PUSH4 0x1E4FBDF7 PUSH1 0xE0 SHL DUP2 MSTORE PUSH1 0x0 PUSH1 0x4 DUP3 ADD MSTORE PUSH1 0x24 ADD PUSH2 0x652 JUMP JUMPDEST PUSH2 0xABC DUP2 PUSH2 0xE3D JUMP JUMPDEST POP JUMP JUMPDEST PUSH2 0xAC7 PUSH2 0xB1B JUMP JUMPDEST PUSH1 0x1 PUSH1 0x1 PUSH1 0xA0 SHL SUB DUP2 AND PUSH2 0xAF9 JUMPI PUSH1 0x40 MLOAD PUSH4 0x47264553 PUSH1 0xE1 SHL DUP2 MSTORE PUSH1 0x1 PUSH1 0x1 PUSH1 0xA0 SHL SUB DUP3 AND PUSH1 0x4 DUP3 ADD MSTORE PUSH1 0x24 ADD PUSH2 0x652 JUMP JUMPDEST PUSH1 0x7 DUP1 SLOAD PUSH1 0x1 PUSH1 0x1 PUSH1 0xA0 SHL SUB NOT AND PUSH1 0x1 PUSH1 0x1 PUSH1 0xA0 SHL SUB SWAP3 SWAP1 SWAP3 AND SWAP2 SWAP1 SWAP2 OR SWAP1 SSTORE JUMP JUMPDEST PUSH1 0x0 SLOAD PUSH1 0x1 PUSH1 0x1 PUSH1 0xA0 SHL SUB AND CALLER EQ PUSH2 0x7C1 JUMPI PUSH1 0x40 MLOAD PUSH4 0x118CDAA7 PUSH1 0xE0 SHL DUP2 MSTORE CALLER PUSH1 0x4 DUP3 ADD MSTORE PUSH1 0x24 ADD PUSH2 0x652 JUMP JUMPDEST PUSH1 0x0 PUSH2 0xB52 PUSH2 0xE8D JUMP JUMPDEST PUSH1 0x1 PUSH1 0x1 PUSH1 0xA0 SHL SUB DUP4 AND PUSH1 0x0 SWAP1 DUP2 MSTORE PUSH1 0x1 PUSH1 0x20 MSTORE PUSH1 0x40 SWAP1 KECCAK256 DUP1 SLOAD SWAP2 SWAP3 POP SWAP1 DUP3 EQ PUSH2 0xB81 JUMPI DUP2 DUP2 SSTORE PUSH1 0x0 PUSH1 0x1 DUP3 ADD SSTORE JUMPDEST PUSH1 0x14 DUP2 PUSH1 0x1 ADD SLOAD LT PUSH2 0xC07 JUMPI PUSH1 0x1 DUP2 ADD SLOAD PUSH1 0x40 DUP1 MLOAD SWAP2 DUP3 MSTORE PUSH1 0x14 PUSH1 0x20 DUP4 ADD MSTORE PUSH1 0x1 PUSH1 0x1 PUSH1 0xA0 SHL SUB DUP6 AND SWAP2 PUSH32 0x853D8BC84624B52A1A6244E2D8E0961AD8035EE7ED75D6054CD4D49A2C247A42 SWAP2 ADD PUSH1 0x40 MLOAD DUP1 SWAP2 SUB SWAP1 LOG2 PUSH1 0x1 DUP2 ADD SLOAD PUSH1 0x40 MLOAD PUSH4 0x61D728F9 PUSH1 0xE1 SHL DUP2 MSTORE PUSH1 0x1 PUSH1 0x1 PUSH1 0xA0 SHL SUB DUP6 AND PUSH1 0x4 DUP3 ADD MSTORE PUSH1 0x24 DUP2 ADD SWAP2 SWAP1 SWAP2 MSTORE PUSH1 0x44 ADD PUSH2 0x652 JUMP JUMPDEST PUSH1 0x1 DUP2 ADD DUP1 SLOAD SWAP1 PUSH1 0x0 PUSH2 0xC19 DUP4 PUSH2 0x12AD JUMP JUMPDEST SWAP2 SWAP1 POP SSTORE POP POP POP POP JUMP JUMPDEST PUSH1 0x3 DUP2 PUSH1 0x40 MLOAD PUSH2 0xC33 SWAP2 SWAP1 PUSH2 0x1202 JUMP JUMPDEST SWAP1 DUP2 MSTORE PUSH1 0x40 MLOAD SWAP1 DUP2 SWAP1 SUB PUSH1 0x20 ADD SWAP1 KECCAK256 SLOAD PUSH1 0xFF AND ISZERO PUSH2 0xCD1 JUMPI PUSH1 0x0 PUSH1 0x4 DUP3 PUSH1 0x40 MLOAD PUSH2 0xC5D SWAP2 SWAP1 PUSH2 0x1202 JUMP JUMPDEST SWAP1 DUP2 MSTORE PUSH1 0x40 MLOAD SWAP1 DUP2 SWAP1 SUB PUSH1 0x20 ADD DUP2 KECCAK256 SLOAD PUSH1 0x1 PUSH1 0x1 PUSH1 0xA0 SHL SUB SWAP1 DUP2 AND SWAP3 POP DUP5 AND SWAP1 PUSH32 0xAA3C85C862E47DDD5EC91FD6FB417D704B426F86ACAB82DB01C3F2208722EAE7 SWAP1 PUSH2 0xCAC SWAP1 DUP6 SWAP1 DUP6 SWAP1 PUSH2 0x12C6 JUMP JUMPDEST PUSH1 0x40 MLOAD DUP1 SWAP2 SUB SWAP1 LOG2 DUP2 DUP2 PUSH1 0x40 MLOAD PUSH4 0x3782F7D PUSH1 0xE3 SHL DUP2 MSTORE PUSH1 0x4 ADD PUSH2 0x652 SWAP3 SWAP2 SWAP1 PUSH2 0x12C6 JUMP JUMPDEST POP POP JUMP JUMPDEST DUP1 PUSH2 0xABC JUMPI PUSH1 0x40 MLOAD PUSH4 0xC016D389 PUSH1 0xE0 SHL DUP2 MSTORE PUSH1 0x20 PUSH1 0x4 DUP3 ADD MSTORE PUSH1 0x1D PUSH1 0x24 DUP3 ADD MSTORE PUSH32 0x4D6574616461746120686173682063616E6E6F7420626520656D707479000000 PUSH1 0x44 DUP3 ADD MSTORE PUSH1 0x64 ADD PUSH2 0x652 JUMP JUMPDEST PUSH1 0x1 PUSH1 0x1 PUSH1 0xA0 SHL SUB DUP5 AND PUSH1 0x0 SWAP1 DUP2 MSTORE PUSH1 0x2 PUSH1 0x20 SWAP1 DUP2 MSTORE PUSH1 0x40 DUP1 DUP4 KECCAK256 DUP2 MLOAD PUSH1 0x60 DUP2 ADD DUP4 MSTORE TIMESTAMP DUP2 MSTORE DUP1 DUP5 ADD DUP8 DUP2 MSTORE SWAP3 DUP2 ADD DUP7 SWAP1 MSTORE DUP2 SLOAD PUSH1 0x1 DUP2 DUP2 ADD DUP5 SSTORE SWAP3 DUP7 MSTORE SWAP4 SWAP1 SWAP5 KECCAK256 DUP5 MLOAD PUSH1 0x3 SWAP1 SWAP5 MUL ADD SWAP3 DUP4 SSTORE SWAP1 MLOAD SWAP1 DUP3 ADD SWAP1 PUSH2 0xD80 SWAP1 DUP3 PUSH2 0x133F JUMP JUMPDEST POP PUSH1 0x40 DUP3 ADD MLOAD DUP2 PUSH1 0x2 ADD SSTORE POP POP PUSH1 0x1 PUSH1 0x3 DUP4 PUSH1 0x40 MLOAD PUSH2 0xD9F SWAP2 SWAP1 PUSH2 0x1202 JUMP JUMPDEST SWAP1 DUP2 MSTORE PUSH1 0x40 MLOAD SWAP1 DUP2 SWAP1 SUB PUSH1 0x20 ADD DUP2 KECCAK256 DUP1 SLOAD SWAP3 ISZERO ISZERO PUSH1 0xFF NOT SWAP1 SWAP4 AND SWAP3 SWAP1 SWAP3 OR SWAP1 SWAP2 SSTORE DUP5 SWAP1 PUSH1 0x4 SWAP1 PUSH2 0xDD0 SWAP1 DUP6 SWAP1 PUSH2 0x1202 JUMP JUMPDEST SWAP1 DUP2 MSTORE PUSH1 0x40 MLOAD SWAP1 DUP2 SWAP1 SUB PUSH1 0x20 ADD DUP2 KECCAK256 DUP1 SLOAD PUSH1 0x1 PUSH1 0x1 PUSH1 0xA0 SHL SUB SWAP4 DUP5 AND PUSH1 0x1 PUSH1 0x1 PUSH1 0xA0 SHL SUB NOT SWAP1 SWAP2 AND OR SWAP1 SSTORE DUP5 SWAP2 DUP7 AND SWAP1 PUSH32 0x9AE10898E3D52F581AAE6DDBA0531CCAF6C21D9EF8593B66359BE8227ECC6FF1 SWAP1 PUSH2 0xE2F SWAP1 DUP7 SWAP1 TIMESTAMP SWAP1 PUSH2 0x13FF JUMP JUMPDEST PUSH1 0x40 MLOAD DUP1 SWAP2 SUB SWAP1 LOG3 POP POP POP POP JUMP JUMPDEST PUSH1 0x0 DUP1 SLOAD PUSH1 0x1 PUSH1 0x1 PUSH1 0xA0 SHL SUB DUP4 DUP2 AND PUSH1 0x1 PUSH1 0x1 PUSH1 0xA0 SHL SUB NOT DUP4 AND DUP2 OR DUP5 SSTORE PUSH1 0x40 MLOAD SWAP2 SWAP1 SWAP3 AND SWAP3 DUP4 SWAP2 PUSH32 0x8BE0079C531659141344CD1FD0A4F28419497F9722A3DAAFE3B4186F6B6457E0 SWAP2 SWAP1 LOG3 POP POP JUMP JUMPDEST PUSH1 0x0 PUSH3 0x15180 PUSH2 0xE9D DUP2 TIMESTAMP PUSH2 0x1421 JUMP JUMPDEST PUSH2 0xEA7 SWAP2 SWAP1 PUSH2 0x1443 JUMP JUMPDEST SWAP1 POP SWAP1 JUMP JUMPDEST DUP1 CALLDATALOAD PUSH1 0x1 PUSH1 0x1 PUSH1 0xA0 SHL SUB DUP2 AND DUP2 EQ PUSH2 0xEC3 JUMPI PUSH1 0x0 DUP1 REVERT JUMPDEST SWAP2 SWAP1 POP JUMP JUMPDEST PUSH1 0x0 PUSH1 0x20 DUP3 DUP5 SUB SLT ISZERO PUSH2 0xEDA JUMPI PUSH1 0x0 DUP1 REVERT JUMPDEST PUSH2 0xEE3 DUP3 PUSH2 0xEAC JUMP JUMPDEST SWAP4 SWAP3 POP POP POP JUMP JUMPDEST PUSH4 0x4E487B71 PUSH1 0xE0 SHL PUSH1 0x0 MSTORE PUSH1 0x41 PUSH1 0x4 MSTORE PUSH1 0x24 PUSH1 0x0 REVERT JUMPDEST PUSH1 0x0 DUP3 PUSH1 0x1F DUP4 ADD SLT PUSH2 0xF11 JUMPI PUSH1 0x0 DUP1 REVERT JUMPDEST DUP2 CALLDATALOAD PUSH8 0xFFFFFFFFFFFFFFFF DUP1 DUP3 GT ISZERO PUSH2 0xF2C JUMPI PUSH2 0xF2C PUSH2 0xEEA JUMP JUMPDEST PUSH1 0x40 MLOAD PUSH1 0x1F DUP4 ADD PUSH1 0x1F NOT SWAP1 DUP2 AND PUSH1 0x3F ADD AND DUP2 ADD SWAP1 DUP3 DUP3 GT DUP2 DUP4 LT OR ISZERO PUSH2 0xF54 JUMPI PUSH2 0xF54 PUSH2 0xEEA JUMP JUMPDEST DUP2 PUSH1 0x40 MSTORE DUP4 DUP2 MSTORE DUP7 PUSH1 0x20 DUP6 DUP9 ADD ADD GT ISZERO PUSH2 0xF6D JUMPI PUSH1 0x0 DUP1 REVERT JUMPDEST DUP4 PUSH1 0x20 DUP8 ADD PUSH1 0x20 DUP4 ADD CALLDATACOPY PUSH1 0x0 PUSH1 0x20 DUP6 DUP4 ADD ADD MSTORE DUP1 SWAP5 POP POP POP POP POP SWAP3 SWAP2 POP POP JUMP JUMPDEST PUSH1 0x0 PUSH1 0x20 DUP3 DUP5 SUB SLT ISZERO PUSH2 0xF9F JUMPI PUSH1 0x0 DUP1 REVERT JUMPDEST DUP2 CALLDATALOAD PUSH8 0xFFFFFFFFFFFFFFFF DUP2 GT ISZERO PUSH2 0xFB6 JUMPI PUSH1 0x0 DUP1 REVERT JUMPDEST PUSH2 0xFC2 DUP5 DUP3 DUP6 ADD PUSH2 0xF00 JUMP JUMPDEST SWAP5 SWAP4 POP POP POP POP JUMP JUMPDEST PUSH1 0x0 DUP1 PUSH1 0x40 DUP4 DUP6 SUB SLT ISZERO PUSH2 0xFDD JUMPI PUSH1 0x0 DUP1 REVERT JUMPDEST PUSH2 0xFE6 DUP4 PUSH2 0xEAC JUMP JUMPDEST SWAP5 PUSH1 0x20 SWAP4 SWAP1 SWAP4 ADD CALLDATALOAD SWAP4 POP POP POP JUMP JUMPDEST PUSH1 0x0 JUMPDEST DUP4 DUP2 LT ISZERO PUSH2 0x100F JUMPI DUP2 DUP2 ADD MLOAD DUP4 DUP3 ADD MSTORE PUSH1 0x20 ADD PUSH2 0xFF7 JUMP JUMPDEST POP POP PUSH1 0x0 SWAP2 ADD MSTORE JUMP JUMPDEST PUSH1 0x0 DUP2 MLOAD DUP1 DUP5 MSTORE PUSH2 0x1030 DUP2 PUSH1 0x20 DUP7 ADD PUSH1 0x20 DUP7 ADD PUSH2 0xFF4 JUMP JUMPDEST PUSH1 0x1F ADD PUSH1 0x1F NOT AND SWAP3 SWAP1 SWAP3 ADD PUSH1 0x20 ADD SWAP3 SWAP2 POP POP JUMP JUMPDEST DUP4 DUP2 MSTORE PUSH1 0x60 PUSH1 0x20 DUP3 ADD MSTORE PUSH1 0x0 PUSH2 0x105D PUSH1 0x60 DUP4 ADD DUP6 PUSH2 0x1018 JUMP JUMPDEST SWAP1 POP DUP3 PUSH1 0x40 DUP4 ADD MSTORE SWAP5 SWAP4 POP POP POP POP JUMP JUMPDEST PUSH1 0x0 DUP1 PUSH1 0x40 DUP4 DUP6 SUB SLT ISZERO PUSH2 0x1080 JUMPI PUSH1 0x0 DUP1 REVERT JUMPDEST POP POP DUP1 CALLDATALOAD SWAP3 PUSH1 0x20 SWAP1 SWAP2 ADD CALLDATALOAD SWAP2 POP JUMP JUMPDEST PUSH1 0x0 DUP1 PUSH1 0x0 DUP1 PUSH1 0x80 DUP6 DUP8 SUB SLT ISZERO PUSH2 0x10A5 JUMPI PUSH1 0x0 DUP1 REVERT JUMPDEST PUSH2 0x10AE DUP6 PUSH2 0xEAC JUMP JUMPDEST SWAP4 POP PUSH1 0x20 DUP6 ADD CALLDATALOAD SWAP3 POP PUSH1 0x40 DUP6 ADD CALLDATALOAD PUSH8 0xFFFFFFFFFFFFFFFF DUP2 GT ISZERO PUSH2 0x10D1 JUMPI PUSH1 0x0 DUP1 REVERT JUMPDEST PUSH2 0x10DD DUP8 DUP3 DUP9 ADD PUSH2 0xF00 JUMP JUMPDEST SWAP5 SWAP8 SWAP4 SWAP7 POP SWAP4 SWAP5 PUSH1 0x60 ADD CALLDATALOAD SWAP4 POP POP POP JUMP JUMPDEST PUSH1 0x0 DUP1 PUSH1 0x40 DUP4 DUP6 SUB SLT ISZERO PUSH2 0x1101 JUMPI PUSH1 0x0 DUP1 REVERT JUMPDEST DUP3 CALLDATALOAD PUSH8 0xFFFFFFFFFFFFFFFF DUP2 GT ISZERO PUSH2 0x1118 JUMPI PUSH1 0x0 DUP1 REVERT JUMPDEST PUSH2 0x1124 DUP6 DUP3 DUP7 ADD PUSH2 0xF00 JUMP JUMPDEST SWAP6 PUSH1 0x20 SWAP5 SWAP1 SWAP5 ADD CALLDATALOAD SWAP5 POP POP POP POP JUMP JUMPDEST PUSH1 0x0 DUP1 PUSH1 0x40 DUP4 DUP6 SUB SLT ISZERO PUSH2 0x1146 JUMPI PUSH1 0x0 DUP1 REVERT JUMPDEST PUSH2 0x114F DUP4 PUSH2 0xEAC JUMP JUMPDEST SWAP2 POP PUSH1 0x20 DUP4 ADD CALLDATALOAD PUSH8 0xFFFFFFFFFFFFFFFF DUP2 GT ISZERO PUSH2 0x116B JUMPI PUSH1 0x0 DUP1 REVERT JUMPDEST PUSH2 0x1177 DUP6 DUP3 DUP7 ADD PUSH2 0xF00 JUMP JUMPDEST SWAP2 POP POP SWAP3 POP SWAP3 SWAP1 POP JUMP JUMPDEST PUSH1 0x0 PUSH1 0x20 DUP1 DUP4 ADD DUP2 DUP5 MSTORE DUP1 DUP6 MLOAD DUP1 DUP4 MSTORE PUSH1 0x40 SWAP3 POP DUP3 DUP7 ADD SWAP2 POP DUP3 DUP2 PUSH1 0x5 SHL DUP8 ADD ADD DUP5 DUP9 ADD PUSH1 0x0 JUMPDEST DUP4 DUP2 LT ISZERO PUSH2 0x11F4 JUMPI PUSH1 0x3F NOT DUP10 DUP5 SUB ADD DUP6 MSTORE DUP2 MLOAD PUSH1 0x60 DUP2 MLOAD DUP6 MSTORE DUP9 DUP3 ADD MLOAD DUP2 DUP11 DUP8 ADD MSTORE PUSH2 0x11D6 DUP3 DUP8 ADD DUP3 PUSH2 0x1018 JUMP JUMPDEST SWAP3 DUP10 ADD MLOAD SWAP6 DUP10 ADD SWAP6 SWAP1 SWAP6 MSTORE POP SWAP5 DUP8 ADD SWAP5 SWAP3 POP SWAP1 DUP7 ADD SWAP1 PUSH1 0x1 ADD PUSH2 0x11A8 JUMP JUMPDEST POP SWAP1 SWAP9 SWAP8 POP POP POP POP POP POP POP POP JUMP JUMPDEST PUSH1 0x0 DUP3 MLOAD PUSH2 0x1214 DUP2 DUP5 PUSH1 0x20 DUP8 ADD PUSH2 0xFF4 JUMP JUMPDEST SWAP2 SWAP1 SWAP2 ADD SWAP3 SWAP2 POP POP JUMP JUMPDEST PUSH1 0x1 DUP2 DUP2 SHR SWAP1 DUP3 AND DUP1 PUSH2 0x1232 JUMPI PUSH1 0x7F DUP3 AND SWAP2 POP JUMPDEST PUSH1 0x20 DUP3 LT DUP2 SUB PUSH2 0x1252 JUMPI PUSH4 0x4E487B71 PUSH1 0xE0 SHL PUSH1 0x0 MSTORE PUSH1 0x22 PUSH1 0x4 MSTORE PUSH1 0x24 PUSH1 0x0 REVERT JUMPDEST POP SWAP2 SWAP1 POP JUMP JUMPDEST PUSH4 0x4E487B71 PUSH1 0xE0 SHL PUSH1 0x0 MSTORE PUSH1 0x11 PUSH1 0x4 MSTORE PUSH1 0x24 PUSH1 0x0 REVERT JUMPDEST DUP2 DUP2 SUB DUP2 DUP2 GT ISZERO PUSH2 0x616 JUMPI PUSH2 0x616 PUSH2 0x1258 JUMP JUMPDEST DUP3 DUP2 MSTORE PUSH1 0x40 PUSH1 0x20 DUP3 ADD MSTORE PUSH1 0x0 PUSH2 0xFC2 PUSH1 0x40 DUP4 ADD DUP5 PUSH2 0x1018 JUMP JUMPDEST PUSH1 0x20 DUP2 MSTORE PUSH1 0x0 PUSH2 0xEE3 PUSH1 0x20 DUP4 ADD DUP5 PUSH2 0x1018 JUMP JUMPDEST PUSH1 0x0 PUSH1 0x1 DUP3 ADD PUSH2 0x12BF JUMPI PUSH2 0x12BF PUSH2 0x1258 JUMP JUMPDEST POP PUSH1 0x1 ADD SWAP1 JUMP JUMPDEST PUSH1 0x40 DUP2 MSTORE PUSH1 0x0 PUSH2 0x12D9 PUSH1 0x40 DUP4 ADD DUP6 PUSH2 0x1018 JUMP JUMPDEST SWAP1 POP PUSH1 0x1 DUP1 PUSH1 0xA0 SHL SUB DUP4 AND PUSH1 0x20 DUP4 ADD MSTORE SWAP4 SWAP3 POP POP POP JUMP JUMPDEST PUSH1 0x1F DUP3 GT ISZERO PUSH2 0x133A JUMPI PUSH1 0x0 DUP2 DUP2 MSTORE PUSH1 0x20 DUP2 KECCAK256 PUSH1 0x1F DUP6 ADD PUSH1 0x5 SHR DUP2 ADD PUSH1 0x20 DUP7 LT ISZERO PUSH2 0x1317 JUMPI POP DUP1 JUMPDEST PUSH1 0x1F DUP6 ADD PUSH1 0x5 SHR DUP3 ADD SWAP2 POP JUMPDEST DUP2 DUP2 LT ISZERO PUSH2 0x1336 JUMPI DUP3 DUP2 SSTORE PUSH1 0x1 ADD PUSH2 0x1323 JUMP JUMPDEST POP POP POP JUMPDEST POP POP POP JUMP JUMPDEST DUP2 MLOAD PUSH8 0xFFFFFFFFFFFFFFFF DUP2 GT ISZERO PUSH2 0x1359 JUMPI PUSH2 0x1359 PUSH2 0xEEA JUMP JUMPDEST PUSH2 0x136D DUP2 PUSH2 0x1367 DUP5 SLOAD PUSH2 0x121E JUMP JUMPDEST DUP5 PUSH2 0x12F0 JUMP JUMPDEST PUSH1 0x20 DUP1 PUSH1 0x1F DUP4 GT PUSH1 0x1 DUP2 EQ PUSH2 0x13A2 JUMPI PUSH1 0x0 DUP5 ISZERO PUSH2 0x138A JUMPI POP DUP6 DUP4 ADD MLOAD JUMPDEST PUSH1 0x0 NOT PUSH1 0x3 DUP7 SWAP1 SHL SHR NOT AND PUSH1 0x1 DUP6 SWAP1 SHL OR DUP6 SSTORE PUSH2 0x1336 JUMP JUMPDEST PUSH1 0x0 DUP6 DUP2 MSTORE PUSH1 0x20 DUP2 KECCAK256 PUSH1 0x1F NOT DUP7 AND SWAP2 JUMPDEST DUP3 DUP2 LT ISZERO PUSH2 0x13D1 JUMPI DUP9 DUP7 ADD MLOAD DUP3 SSTORE SWAP5 DUP5 ADD SWAP5 PUSH1 0x1 SWAP1 SWAP2 ADD SWAP1 DUP5 ADD PUSH2 0x13B2 JUMP JUMPDEST POP DUP6 DUP3 LT ISZERO PUSH2 0x13EF JUMPI DUP8 DUP6 ADD MLOAD PUSH1 0x0 NOT PUSH1 0x3 DUP9 SWAP1 SHL PUSH1 0xF8 AND SHR NOT AND DUP2 SSTORE JUMPDEST POP POP POP POP POP PUSH1 0x1 SWAP1 DUP2 SHL ADD SWAP1 SSTORE POP JUMP JUMPDEST PUSH1 0x40 DUP2 MSTORE PUSH1 0x0 PUSH2 0x1412 PUSH1 0x40 DUP4 ADD DUP6 PUSH2 0x1018 JUMP JUMPDEST SWAP1 POP DUP3 PUSH1 0x20 DUP4 ADD MSTORE SWAP4 SWAP3 POP POP POP JUMP JUMPDEST PUSH1 0x0 DUP3 PUSH2 0x143E JUMPI PUSH4 0x4E487B71 PUSH1 0xE0 SHL PUSH1 0x0 MSTORE PUSH1 0x12 PUSH1 0x4 MSTORE PUSH1 0x24 PUSH1 0x0 REVERT JUMPDEST POP DIV SWAP1 JUMP JUMPDEST DUP1 DUP3 MUL DUP2 ISZERO DUP3 DUP3 DIV DUP5 EQ OR PUSH2 0x616 JUMPI PUSH2 0x616 PUSH2 0x1258 JUMP INVALID LOG2 PUSH5 0x6970667358 0x22 SLT KECCAK256 0xBD PUSH27 0x472CC14F8C7FD93AF1498FC679E702014E2F7A3781288B8381B106 SUB SHL MSTORE8 PUSH5 0x736F6C6343 STOP ADDMOD EQ STOP CALLER "},"methodIdentifiers":{"DUPLICATE_SIMILARITY_THRESHOLD()":"2da2e7c5","MAX_SUBMISSIONS_PER_DAY()":"afa66a6f","ONE_DAY()":"863e76db","blacklistWorker(address,string)":"c164bba0","blacklistedWorkers(address)":"d78133aa","checkAndRecordSubmission(address,uint256,string,bytes32)":"43b3e2eb","checkImageSimilarity(string,uint256)":"64cd72ec","forfeitStake(address,string)":"7a236549","getImageHashWorker(string)":"08f9a9ed","getTodaySubmissionCount(address)":"8ddec546","getWorkerSubmissions(address)":"e7f355eb","imageHashToWorker(string)":"ba179816","isImageHashUsed(string)":"a7c74da5","isWorkerBlacklisted(address)":"4535f3df","owner()":"8da5cb5b","renounceOwnership()":"715018a6","setTaskManager(address)":"327d0a60","setVerificationContract(address)":"fb48d6be","taskManagerAddress()":"1532de2b","transferOwnership(address)":"f2fde38b","unblacklistWorker(address)":"04ff2f82","usedImageHashes(string)":"27c17d3e","validateTimestamp(uint256,uint256)":"2992e27b","verificationContractAddress()":"33ebed30","workerDailySubmissions(address)":"e19fbc03","workerStakes(address)":"b3212e69","workerSubmissions(address,uint256)":"2040e70e"}}}}}