{"contracts/ReputationContract.sol":{"ReputationContract":{"abi":[{"inputs":[],"stateMutability":"nonpayable","type":"constructor"},{"inputs":[{"internalType":"address","name":"addr","type":"address"}],"name":"InvalidAddress","type":"error"},{"inputs":[{"internalType":"address","name":"owner","type":"address"}],"name":"OwnableInvalidOwner","type":"error"},{"inputs":[{"internalType":"address","name":"account","type":"address"}],"name":"OwnableUnauthorizedAccount","type":"error"},{"inputs":[{"internalType":"address","name":"user","type":"address"}],"name":"ReputationAlreadyInitialized","type":"error"},{"inputs":[{"internalType":"address","name":"caller","type":"address"}],"name":"UnauthorizedCaller","type":"error"},{"anonymous":false,"inputs":[{"indexed":true,"internalType":"address","name":"worker","type":"address"},{"indexed":false,"internalType":"enum ReputationContract.TaskCategory","name":"category","type":"uint8"}],"name":"CategoryBadgeAwarded","type":"event"},{"anonymous":false,"inputs":[{"indexed":true,"internalType":"address","name":"previousOwner","type":"address"},{"indexed":true,"internalType":"address","name":"newOwner","type":"address"}],"name":"OwnershipTransferred","type":"event"},{"anonymous":false,"inputs":[{"indexed":true,"internalType":"address","name":"user","type":"address"},{"indexed":false,"internalType":"uint256","name":"initialScore","type":"uint256"}],"name":"ReputationInitialized","type":"event"},{"anonymous":false,"inputs":[{"indexed":true,"internalType":"address","name":"newContract","type":"address"}],"name":"TaskManagerUpdated","type":"event"},{"anonymous":false,"inputs":[{"indexed":true,"internalType":"address","name":"newContract","type":"address"}],"name":"VerificationContractUpdated","type":"event"},{"anonymous":false,"inputs":[{"indexed":true,"internalType":"address","name":"verifier","type":"address"},{"indexed":false,"internalType":"bool","name":"accurate","type":"bool"},{"indexed":false,"internalType":"uint256","name":"newScore","type":"uint256"}],"name":"VerifierReputationUpdated","type":"event"},{"anonymous":false,"inputs":[{"indexed":true,"internalType":"address","name":"worker","type":"address"},{"indexed":false,"internalType":"bool","name":"successful","type":"bool"},{"indexed":false,"internalType":"uint256","name":"newScore","type":"uint256"}],"name":"WorkerReputationUpdated","type":"event"},{"inputs":[],"name":"BADGE_SUCCESS_RATE_THRESHOLD","outputs":[{"internalType":"uint256","name":"","type":"uint256"}],"stateMutability":"view","type":"function"},{"inputs":[],"name":"BADGE_TASK_THRESHOLD","outputs":[{"internalType":"uint256","name":"","type":"uint256"}],"stateMutability":"view","type":"function"},{"inputs":[],"name":"BASIS_POINTS","outputs":[{"internalType":"uint256","name":"","type":"uint256"}],"stateMutability":"view","type":"function"},{"inputs":[],"name":"HIGH_REPUTATION_THRESHOLD","outputs":[{"internalType":"uint256","name":"","type":"uint256"}],"stateMutability":"view","type":"function"},{"inputs":[],"name":"INITIAL_REPUTATION","outputs":[{"internalType":"uint256","name":"","type":"uint256"}],"stateMutability":"view","type":"function"},{"inputs":[],"name":"MAX_REPUTATION","outputs":[{"internalType":"uint256","name":"","type":"uint256"}],"stateMutability":"view","type":"function"},{"inputs":[],"name":"MIN_REPUTATION","outputs":[{"internalType":"uint256","name":"","type":"uint256"}],"stateMutability":"view","type":"function"},{"inputs":[],"name":"REPUTATION_DECREASE","outputs":[{"internalType":"uint256","name":"","type":"uint256"}],"stateMutability":"view","type":"function"},{"inputs":[],"name":"REPUTATION_INCREASE","outputs":[{"internalType":"uint256","name":"","type":"uint256"}],"stateMutability":"view","type":"function"},{"inputs":[],"name":"REPUTATION_MULTIPLIER_PERCENTAGE","outputs":[{"internalType":"uint256","name":"","type":"uint256"}],"stateMutability":"view","type":"function"},{"inputs":[{"internalType":"address","name":"user","type":"address"},{"internalType":"enum ReputationContract.TaskCategory","name":"category","type":"uint8"}],"name":"getCategoryStats","outputs":[{"internalType":"uint256","name":"successCount","type":"uint256"},{"internalType":"uint256","name":"totalCount","type":"uint256"},{"internalType":"bool","name":"hasBadge","type":"bool"},{"internalType":"uint256","name":"successRate","type":"uint256"}],"stateMutability":"view","type":"function"},{"inputs":[{"internalType":"address","name":"user","type":"address"}],"name":"getReputationData","outputs":[{"internalType":"uint256","name":"score","type":"uint256"},{"internalType":"uint256","name":"tasksCompleted","type":"uint256"},{"internalType":"uint256","name":"tasksRejected","type":"uint256"},{"internalType":"uint256","name":"verificationsPerformed","type":"uint256"},{"internalType":"uint256","name":"accurateVerifications","type":"uint256"}],"stateMutability":"view","type":"function"},{"inputs":[{"internalType":"address","name":"user","type":"address"},{"internalType":"enum ReputationContract.TaskCategory","name":"category","type":"uint8"}],"name":"getReputationMultiplier","outputs":[{"internalType":"uint256","name":"","type":"uint256"}],"stateMutability":"view","type":"function"},{"inputs":[{"internalType":"address","name":"user","type":"address"}],"name":"getReputationScore","outputs":[{"internalType":"uint256","name":"","type":"uint256"}],"stateMutability":"view","type":"function"},{"inputs":[{"internalType":"address","name":"user","type":"address"}],"name":"getSuccessRate","outputs":[{"internalType":"uint256","name":"","type":"uint256"}],"stateMutability":"view","type":"function"},{"inputs":[{"internalType":"address","name":"user","type":"address"}],"name":"getVerificationAccuracy","outputs":[{"internalType":"uint256","name":"","type":"uint256"}],"stateMutability":"view","type":"function"},{"inputs":[{"internalType":"address","name":"user","type":"address"},{"internalType":"enum ReputationContract.TaskCategory","name":"category","type":"uint8"}],"name":"hasCategoryBadge","outputs":[{"internalType":"bool","name":"","type":"bool"}],"stateMutability":"view","type":"function"},{"inputs":[{"internalType":"address","name":"user","type":"address"}],"name":"hasPriorityAccess","outputs":[{"internalType":"bool","name":"","type":"bool"}],"stateMutability":"view","type":"function"},{"inputs":[{"internalType":"address","name":"user","type":"address"}],"name":"initializeReputation","outputs":[],"stateMutability":"nonpayable","type":"function"},{"inputs":[],"name":"owner","outputs":[{"internalType":"address","name":"","type":"address"}],"stateMutability":"view","type":"function"},{"inputs":[],"name":"renounceOwnership","outputs":[],"stateMutability":"nonpayable","type":"function"},{"inputs":[{"internalType":"address","name":"_taskManager","type":"address"}],"name":"setTaskManager","outputs":[],"stateMutability":"nonpayable","type":"function"},{"inputs":[{"internalType":"address","name":"_verificationContract","type":"address"}],"name":"setVerificationContract","outputs":[],"stateMutability":"nonpayable","type":"function"},{"inputs":[],"name":"taskManagerAddress","outputs":[{"internalType":"address","name":"","type":"address"}],"stateMutability":"view","type":"function"},{"inputs":[{"internalType":"address","name":"newOwner","type":"address"}],"name":"transferOwnership","outputs":[],"stateMutability":"nonpayable","type":"function"},{"inputs":[{"internalType":"address","name":"verifier","type":"address"},{"internalType":"bool","name":"accurateVote","type":"bool"}],"name":"updateVerifierReputation","outputs":[],"stateMutability":"nonpayable","type":"function"},{"inputs":[{"internalType":"address","name":"worker","type":"address"},{"internalType":"bool","name":"successful","type":"bool"}],"name":"updateWorkerReputation","outputs":[],"stateMutability":"nonpayable","type":"function"},{"inputs":[{"internalType":"address","name":"worker","type":"address"},{"internalType":"enum ReputationContract.TaskCategory","name":"category","type":"uint8"},{"internalType":"bool","name":"successful","type":"bool"}],"name":"updateWorkerReputationWithCategory","outputs":[],"stateMutability":"nonpayable","type":"function"},{"inputs":[],"name":"verificationContractAddress","outputs":[{"internalType":"address","name":"","type":"address"}],"stateMutability":"view","type":"function"}],"evm":{"bytecode":{"linkReferences":{},"object":"608060405234801561001057600080fd5b50338061003757604051631e4fbdf760e01b81526000600482015260240160405180910390fd5b61004081610046565b50610096565b600080546001600160a01b038381166001600160a01b0319831681178455604051919092169283917f8be0079c531659141344cd1fd0a4f28419497f9722a3daafe3b4186f6b6457e09190a35050565b6110bf806100a56000396000f3fe608060405234801561001057600080fd5b50600436106101cf5760003560e01c80637b05725811610104578063cdc85030116100a2578063e7aeaf2511610071578063e7aeaf25146103ce578063ef2fe5f0146103d7578063f2fde38b146103df578063fb48d6be146103f257600080fd5b8063cdc85030146103aa578063d213c0f2146103bd578063e1f1c4a7146103c5578063e6fc2d8a1461037c57600080fd5b806391321da7116100de57806391321da714610374578063aac38d8c1461037c578063ab92f97e14610384578063cb5103731461039757600080fd5b80637b057258146103485780637bb27c11146103505780638da5cb5b1461036357600080fd5b8063420c843011610171578063697c60451161014b578063697c6045146102ea578063715018a6146102f257806375a67d5c146102fa5780637a00d3c41461030d57600080fd5b8063420c8430146102b15780635dd0cc41146102c4578063686745c3146102d757600080fd5b806319d9d162116101ad57806319d9d1621461023d578063327d0a601461027657806333ebed301461028b57806341cf742c1461029e57600080fd5b8063093cbed5146101d45780630fe3bb74146101fc5780631532de2b14610212575b600080fd5b6101e76101e2366004610ef2565b610405565b60405190151581526020015b60405180910390f35b610204605a81565b6040519081526020016101f3565b600354610225906001600160a01b031681565b6040516001600160a01b0390911681526020016101f3565b61025061024b366004610ef2565b610464565b6040805194855260208501939093529015159183019190915260608201526080016101f3565b610289610284366004610f25565b610501565b005b600254610225906001600160a01b031681565b6101e76102ac366004610f25565b61058a565b6102896102bf366004610f50565b6105b8565b6102046102d2366004610f25565b61070d565b6102896102e5366004610f50565b61075f565b610204600081565b6102896108b6565b610204610308366004610f25565b6108ca565b61032061031b366004610f25565b610924565b604080519586526020860194909452928401919091526060830152608082015260a0016101f3565b610204603281565b61028961035e366004610f25565b61097b565b6000546001600160a01b0316610225565b610204600a81565b610204600581565b610289610392366004610f7a565b610a04565b6102046103a5366004610f25565b610c63565b6102046103b8366004610ef2565b610ccc565b610204606481565b61020461271081565b6102046103e881565b610204605081565b6102896103ed366004610f25565b610d46565b610289610400366004610f25565b610d84565b6001600160a01b03821660009081526001602052604081206005018183600481111561043357610433610fbd565b600481111561044457610444610fbd565b815260208101919091526040016000206002015460ff1690505b92915050565b6001600160a01b038216600090815260016020526040812081908190819081906005018187600481111561049a5761049a610fbd565b60048111156104ab576104ab610fbd565b81526020810191909152604001600020805460018201546002830154919750955060ff1693509050836104df5760006104f5565b836104eb866064610fe9565b6104f59190611000565b91505092959194509250565b610509610e08565b6001600160a01b03811661054057604051634726455360e11b81526001600160a01b03821660048201526024015b60405180910390fd5b600380546001600160a01b0319166001600160a01b0383169081179091556040517f6bda90d69c86c08b1548541b058aa7e292b7a440758ba7a3437fe31f9d72d7c890600090a250565b6001600160a01b0381166000908152600160205260408120548082036105ae575060325b6050111592915050565b6002546001600160a01b031633146105e55760405163d86ad9cf60e01b8152336004820152602401610537565b6001600160a01b0382166000908152600160205260409020805415801561060e57506003810154155b1561061857603281555b60038101805490600061062a83611022565b9190505550811561068c5780546064906106469060059061103b565b1161066b576005816000016000828254610660919061103b565b909155506106709050565b606481555b60048101805490600061068283611022565b91905055506106ba565b80546005116106b55760058160000160008282546106aa919061104e565b909155506106ba9050565b600081555b80546040516001600160a01b038516917fd36a46bea375412f6bf5fcc61b0d647c90f29122b2d0d04edbdfe20edc16a57191610700918615158252602082015260400190565b60405180910390a2505050565b6001600160a01b0381166000908152600160205260408120600381015482036107395750600092915050565b6003810154600482015461074e906064610fe9565b6107589190611000565b9392505050565b6002546001600160a01b0316331461078c5760405163d86ad9cf60e01b8152336004820152602401610537565b6001600160a01b038216600090815260016020526040902080541580156107b557506001810154155b80156107c357506002810154155b156107cd57603281555b811561082a5780546064906107e49060059061103b565b116108095760058160000160008282546107fe919061103b565b9091555061080e9050565b606481555b60018101805490600061082083611022565b9190505550610870565b8054600511610853576005816000016000828254610848919061104e565b909155506108589050565b600081555b60028101805490600061086a83611022565b91905055505b80546040516001600160a01b038516917f7b2bc3ac22e1443bfb50610f409a7b5a81e116516ce36f0a78b0ce1657f2779091610700918615158252602082015260400190565b6108be610e08565b6108c86000610e35565b565b6001600160a01b038116600090815260016020526040812080541580156108f357506001810154155b801561090157506002810154155b801561090f57506003810154155b1561091d5750603292915050565b5492915050565b6001600160a01b03811660009081526001602052604081208054829182918291829115610952578054610955565b60325b600182015460028301546003840154600490940154929a91995097509195509350915050565b6001600160a01b03811660009081526001602052604090208054156109be5760405163f29542a560e01b81526001600160a01b0383166004820152602401610537565b60328082556040519081526001600160a01b038316907e0143ba88ded9808e3f60de522fa585f0874534e7a2fe23b106311a77577f559060200160405180910390a25050565b6002546001600160a01b03163314801590610a2a57506003546001600160a01b03163314155b15610a4a5760405163d86ad9cf60e01b8152336004820152602401610537565b6001600160a01b03831660009081526001602052604090208054158015610a7357506001810154155b8015610a8157506002810154155b15610a8b57603281555b8115610ae8578054606490610aa29060059061103b565b11610ac7576005816000016000828254610abc919061103b565b90915550610acc9050565b606481555b600181018054906000610ade83611022565b9190505550610b2e565b8054600511610b11576005816000016000828254610b06919061104e565b90915550610b169050565b600081555b600281018054906000610b2883611022565b91905055505b6000816005016000856004811115610b4857610b48610fbd565b6004811115610b5957610b59610fbd565b81526020019081526020016000209050806001016000815480929190610b7e90611022565b91905055508215610b9d578054816000610b9783611022565b91905055505b600281015460ff16158015610bb65750610bb681610e85565b15610c0e5760028101805460ff191660011790556040516001600160a01b038616907fa1d6123b5748f3ace0f4fac103a3d76aa48050b31e69390135b174e6f5c9e54790610c05908790611061565b60405180910390a25b81546040516001600160a01b038716917f7b2bc3ac22e1443bfb50610f409a7b5a81e116516ce36f0a78b0ce1657f2779091610c54918715158252602082015260400190565b60405180910390a25050505050565b6001600160a01b0381166000908152600160208190526040822060028101549181015490918391610c94919061103b565b905080600003610ca8575060009392505050565b8082600101546064610cba9190610fe9565b610cc49190611000565b949350505050565b6001600160a01b038216600090815260016020526040812060050181836004811115610cfa57610cfa610fbd565b6004811115610d0b57610d0b610fbd565b815260208101919091526040016000206002015460ff1615610d3c57610d356103e861271061103b565b905061045e565b5061271092915050565b610d4e610e08565b6001600160a01b038116610d7857604051631e4fbdf760e01b815260006004820152602401610537565b610d8181610e35565b50565b610d8c610e08565b6001600160a01b038116610dbe57604051634726455360e11b81526001600160a01b0382166004820152602401610537565b600280546001600160a01b0319166001600160a01b0383169081179091556040517fc94639d1214701da4f99305bbd305a310b09328aaeaea5c8fd49cd2685d4962890600090a250565b6000546001600160a01b031633146108c85760405163118cdaa760e01b8152336004820152602401610537565b600080546001600160a01b038381166001600160a01b0319831681178455604051919092169283917f8be0079c531659141344cd1fd0a4f28419497f9722a3daafe3b4186f6b6457e09190a35050565b6000600a82600101541015610e9c57506000919050565b6001820154825460009190610eb2906064610fe9565b610ebc9190611000565b605a11159392505050565b80356001600160a01b0381168114610ede57600080fd5b919050565b803560058110610ede57600080fd5b60008060408385031215610f0557600080fd5b610f0e83610ec7565b9150610f1c60208401610ee3565b90509250929050565b600060208284031215610f3757600080fd5b61075882610ec7565b80358015158114610ede57600080fd5b60008060408385031215610f6357600080fd5b610f6c83610ec7565b9150610f1c60208401610f40565b600080600060608486031215610f8f57600080fd5b610f9884610ec7565b9250610fa660208501610ee3565b9150610fb460408501610f40565b90509250925092565b634e487b7160e01b600052602160045260246000fd5b634e487b7160e01b600052601160045260246000fd5b808202811582820484141761045e5761045e610fd3565b60008261101d57634e487b7160e01b600052601260045260246000fd5b500490565b60006001820161103457611034610fd3565b5060010190565b8082018082111561045e5761045e610fd3565b8181038181111561045e5761045e610fd3565b602081016005831061108357634e487b7160e01b600052602160045260246000fd5b9190529056fea26469706673582212206f835152cfaa1253477dee92d1c91b7b157fc217fc354087a970a1456ae738df64736f6c63430008140033","opcodes":"PUSH1 0x80 PUSH1 0x40 MSTORE CALLVALUE DUP1 ISZERO PUSH2 0x10 JUMPI PUSH1 0x0 DUP1 REVERT JUMPDEST POP CALLER DUP1 PUSH2 0x37 JUMPI PUSH1 0x40 MLOAD PUSH4 0x1E4FBDF7 PUSH1 0xE0 SHL DUP2 MSTORE PUSH1 0x0 PUSH1 0x4 DUP3 ADD MSTORE PUSH1 0x24 ADD PUSH1 0x40 MLOAD DUP1 SWAP2 SUB SWAP1 REVERT JUMPDEST PUSH2 0x40 DUP2 PUSH2 0x46 JUMP JUMPDEST POP PUSH2 0x96 JUMP JUMPDEST PUSH1 0x0 DUP1 SLOAD PUSH1 0x1 PUSH1 0x1 PUSH1 0xA0 SHL SUB DUP4 DUP2 AND PUSH1 0x1 PUSH1 0x1 PUSH1 0xA0 SHL SUB NOT DUP4 AND DUP2 OR DUP5 SSTORE PUSH1 0x40 MLOAD SWAP2 SWAP1 SWAP3 AND SWAP3 DUP4 SWAP2 PUSH32 0x8BE0079C531659141344CD1FD0A4F28419497F9722A3DAAFE3B4186F6B6457E0 SWAP2 SWAP1 LOG3 POP POP JUMP JUMPDEST PUSH2 0x10BF DUP1 PUSH2 0xA5 PUSH1 0x0 CODECOPY PUSH1 0x0 RETURN INVALID PUSH1 0x80 PUSH1 0x40 MSTORE CALLVALUE DUP1 ISZERO PUSH2 0x10 JUMPI PUSH1 0x0 DUP1 REVERT JUMPDEST POP PUSH1 0x4 CALLDATASIZE LT PUSH2 0x1CF JUMPI PUSH1 0x0 CALLDATALOAD PUSH1 0xE0 SHR DUP1 PUSH4 0x7B057258 GT PUSH2 0x104 JUMPI DUP1 PUSH4 0xCDC85030 GT PUSH2 0xA2 JUMPI DUP1 PUSH4 0xE7AEAF25 GT PUSH2 0x71 JUMPI DUP1 PUSH4 0xE7AEAF25 EQ PUSH2 0x3CE JUMPI DUP1 PUSH4 0xEF2FE5F0 EQ PUSH2 0x3D7 JUMPI DUP1 PUSH4 0xF2FDE38B EQ PUSH2 0x3DF JUMPI DUP1 PUSH4 0xFB48D6BE EQ PUSH2 0x3F2 JUMPI PUSH1 0x0 DUP1 REVERT JUMPDEST DUP1 PUSH4 0xCDC85030 EQ PUSH2 0x3AA JUMPI DUP1 PUSH4 0xD213C0F2 EQ PUSH2 0x3BD JUMPI DUP1 PUSH4 0xE1F1C4A7 EQ PUSH2 0x3C5 JUMPI DUP1 PUSH4 0xE6FC2D8A EQ PUSH2 0x37C JUMPI PUSH1 0x0 DUP1 REVERT JUMPDEST DUP1 PUSH4 0x91321DA7 GT PUSH2 0xDE JUMPI DUP1 PUSH4 0x91321DA7 EQ PUSH2 0x374 JUMPI DUP1 PUSH4 0xAAC38D8C EQ PUSH2 0x37C JUMPI DUP1 PUSH4 0xAB92F97E EQ PUSH2 0x384 JUMPI DUP1 PUSH4 0xCB510373 EQ PUSH2 0x397 JUMPI PUSH1 0x0 DUP1 REVERT JUMPDEST DUP1 PUSH4 0x7B057258 EQ PUSH2 0x348 JUMPI DUP1 PUSH4 0x7BB27C11 EQ PUSH2 0x350 JUMPI DUP1 PUSH4 0x8DA5CB5B EQ PUSH2 0x363 JUMPI PUSH1 0x0 DUP1 REVERT JUMPDEST DUP1 PUSH4 0x420C8430 GT PUSH2 0x171 JUMPI DUP1 PUSH4 0x697C6045 GT PUSH2 0x14B JUMPI DUP1 PUSH4 0x697C6045 EQ PUSH2 0x2EA JUMPI DUP1 PUSH4 0x715018A6 EQ PUSH2 0x2F2 JUMPI DUP1 PUSH4 0x75A67D5C EQ PUSH2 0x2FA JUMPI DUP1 PUSH4 0x7A00D3C4 EQ PUSH2 0x30D JUMPI PUSH1 0x0 DUP1 REVERT JUMPDEST DUP1 PUSH4 0x420C8430 EQ PUSH2 0x2B1 JUMPI DUP1 PUSH4 0x5DD0CC41 EQ PUSH2 0x2C4 JUMPI DUP1 PUSH4 0x686745C3 EQ PUSH2 0x2D7 JUMPI PUSH1 0x0 DUP1 REVERT JUMPDEST DUP1 PUSH4 0x19D9D162 GT PUSH2 0x1AD JUMPI DUP1 PUSH4 0x19D9D162 EQ PUSH2 0x23D JUMPI DUP1 PUSH4 0x327D0A60 EQ PUSH2 0x276 JUMPI DUP1 PUSH4 0x33EBED30 EQ PUSH2 0x28B JUMPI DUP1 PUSH4 0x41CF742C EQ PUSH2 0x29E JUMPI PUSH1 0x0 DUP1 REVERT JUMPDEST DUP1 PUSH4 0x93CBED5 EQ PUSH2 0x1D4 JUMPI DUP1 PUSH4 0xFE3BB74 EQ PUSH2 0x1FC JUMPI DUP1 PUSH4 0x1532DE2B EQ PUSH2 0x212 JUMPI JUMPDEST PUSH1 0x0 DUP1 REVERT JUMPDEST PUSH2 0x1E7 PUSH2 0x1E2 CALLDATASIZE PUSH1 0x4 PUSH2 0xEF2 JUMP JUMPDEST PUSH2 0x405 JUMP JUMPDEST PUSH1 0x40 MLOAD SWAP1 ISZERO ISZERO DUP2 MSTORE PUSH1 0x20 ADD JUMPDEST PUSH1 0x40 MLOAD DUP1 SWAP2 SUB SWAP1 RETURN JUMPDEST PUSH2 0x204 PUSH1 0x5A DUP2 JUMP JUMPDEST PUSH1 0x40 MLOAD SWAP1 DUP2 MSTORE PUSH1 0x20 ADD PUSH2 0x1F3 JUMP JUMPDEST PUSH1 0x3 SLOAD PUSH2 0x225 SWAP1 PUSH1 0x1 PUSH1 0x1 PUSH1 0xA0 SHL SUB AND DUP2 JUMP JUMPDEST PUSH1 0x40 MLOAD PUSH1 0x1 PUSH1 0x1 PUSH1 0xA0 SHL SUB SWAP1 SWAP2 AND DUP2 MSTORE PUSH1 0x20 ADD PUSH2 0x1F3 JUMP JUMPDEST PUSH2 0x250 PUSH2 0x24B CALLDATASIZE PUSH1 0x4 PUSH2 0xEF2 JUMP JUMPDEST PUSH2 0x464 JUMP JUMPDEST PUSH1 0x40 DUP1 MLOAD SWAP5 DUP6 MSTORE PUSH1 0x20 DUP6 ADD SWAP4 SWAP1 SWAP4 MSTORE SWAP1 ISZERO ISZERO SWAP2 DUP4 ADD SWAP2 SWAP1 SWAP2 MSTORE PUSH1 0x60 DUP3 ADD MSTORE PUSH1 0x80 ADD PUSH2 0x1F3 JUMP JUMPDEST PUSH2 0x289 PUSH2 0x284 CALLDATASIZE PUSH1 0x4 PUSH2 0xF25 JUMP JUMPDEST PUSH2 0x501 JUMP JUMPDEST STOP JUMPDEST PUSH1 0x2 SLOAD PUSH2 0x225 SWAP1 PUSH1 0x1 PUSH1 0x1 PUSH1 0xA0 SHL SUB AND DUP2 JUMP JUMPDEST PUSH2 0x1E7 PUSH2 0x2AC CALLDATASIZE PUSH1 0x4 PUSH2 0xF25 JUMP JUMPDEST PUSH2 0x58A JUMP JUMPDEST PUSH2 0x289 PUSH2 0x2BF CALLDATASIZE PUSH1 0x4 PUSH2 0xF50 JUMP JUMPDEST PUSH2 0x5B8 JUMP JUMPDEST PUSH2 0x204 PUSH2 0x2D2 CALLDATASIZE PUSH1 0x4 PUSH2 0xF25 JUMP JUMPDEST PUSH2 0x70D JUMP JUMPDEST PUSH2 0x289 PUSH2 0x2E5 CALLDATASIZE PUSH1 0x4 PUSH2 0xF50 JUMP JUMPDEST PUSH2 0x75F JUMP JUMPDEST PUSH2 0x204 PUSH1 0x0 DUP2 JUMP JUMPDEST PUSH2 0x289 PUSH2 0x8B6 JUMP JUMPDEST PUSH2 0x204 PUSH2 0x308 CALLDATASIZE PUSH1 0x4 PUSH2 0xF25 JUMP JUMPDEST PUSH2 0x8CA JUMP JUMPDEST PUSH2 0x320 PUSH2 0x31B CALLDATASIZE PUSH1 0x4 PUSH2 0xF25 JUMP JUMPDEST PUSH2 0x924 JUMP JUMPDEST PUSH1 0x40 DUP1 MLOAD SWAP6 DUP7 MSTORE PUSH1 0x20 DUP7 ADD SWAP5 SWAP1 SWAP5 MSTORE SWAP3 DUP5 ADD SWAP2 SWAP1 SWAP2 MSTORE PUSH1 0x60 DUP4 ADD MSTORE PUSH1 0x80 DUP3 ADD MSTORE PUSH1 0xA0 ADD PUSH2 0x1F3 JUMP JUMPDEST PUSH2 0x204 PUSH1 0x32 DUP2 JUMP JUMPDEST PUSH2 0x289 PUSH2 0x35E CALLDATASIZE PUSH1 0x4 PUSH2 0xF25 JUMP JUMPDEST PUSH2 0x97B JUMP JUMPDEST PUSH1 0x0 SLOAD PUSH1 0x1 PUSH1 0x1 PUSH1 0xA0 SHL SUB AND PUSH2 0x225 JUMP JUMPDEST PUSH2 0x204 PUSH1 0xA DUP2 JUMP JUMPDEST PUSH2 0x204 PUSH1 0x5 DUP2 JUMP JUMPDEST PUSH2 0x289 PUSH2 0x392 CALLDATASIZE PUSH1 0x4 PUSH2 0xF7A JUMP JUMPDEST PUSH2 0xA04 JUMP JUMPDEST PUSH2 0x204 PUSH2 0x3A5 CALLDATASIZE PUSH1 0x4 PUSH2 0xF25 JUMP JUMPDEST PUSH2 0xC63 JUMP JUMPDEST PUSH2 0x204 PUSH2 0x3B8 CALLDATASIZE PUSH1 0x4 PUSH2 0xEF2 JUMP JUMPDEST PUSH2 0xCCC JUMP JUMPDEST PUSH2 0x204 PUSH1 0x64 DUP2 JUMP JUMPDEST PUSH2 0x204 PUSH2 0x2710 DUP2 JUMP JUMPDEST PUSH2 0x204 PUSH2 0x3E8 DUP2 JUMP JUMPDEST PUSH2 0x204 PUSH1 0x50 DUP2 JUMP JUMPDEST PUSH2 0x289 PUSH2 0x3ED CALLDATASIZE PUSH1 0x4 PUSH2 0xF25 JUMP JUMPDEST PUSH2 0xD46 JUMP JUMPDEST PUSH2 0x289 PUSH2 0x400 CALLDATASIZE PUSH1 0x4 PUSH2 0xF25 JUMP JUMPDEST PUSH2 0xD84 JUMP JUMPDEST PUSH1 0x1 PUSH1 0x1 PUSH1 0xA0 SHL SUB DUP3 AND PUSH1 0x0 SWAP1 DUP2 MSTORE PUSH1 0x1 PUSH1 0x20 MSTORE PUSH1 0x40 DUP2 KECCAK256 PUSH1 0x5 ADD DUP2 DUP4 PUSH1 0x4 DUP2 GT ISZERO PUSH2 0x433 JUMPI PUSH2 0x433 PUSH2 0xFBD JUMP JUMPDEST PUSH1 0x4 DUP2 GT ISZERO PUSH2 0x444 JUMPI PUSH2 0x444 PUSH2 0xFBD JUMP JUMPDEST DUP2 MSTORE PUSH1 0x20 DUP2 ADD SWAP2 SWAP1 SWAP2 MSTORE PUSH1 0x40 ADD PUSH1 0x0 KECCAK256 PUSH1 0x2 ADD SLOAD PUSH1 0xFF AND SWAP1 POP JUMPDEST SWAP3 SWAP2 POP POP JUMP JUMPDEST PUSH1 0x1 PUSH1 0x1 PUSH1 0xA0 SHL SUB DUP3 AND PUSH1 0x0 SWAP1 DUP2 MSTORE PUSH1 0x1 PUSH1 0x20 MSTORE PUSH1 0x40 DUP2 KECCAK256 DUP2 SWAP1 DUP2 SWAP1 DUP2 SWAP1 DUP2 SWAP1 PUSH1 0x5 ADD DUP2 DUP8 PUSH1 0x4 DUP2 GT ISZERO PUSH2 0x49A JUMPI PUSH2 0x49A PUSH2 0xFBD JUMP JUMPDEST PUSH1 0x4 DUP2 GT ISZERO PUSH2 0x4AB JUMPI PUSH2 0x4AB PUSH2 0xFBD JUMP JUMPDEST DUP2 MSTORE PUSH1 0x20 DUP2 ADD SWAP2 SWAP1 SWAP2 MSTORE PUSH1 0x40 ADD PUSH1 0x0 KECCAK256 DUP1 SLOAD PUSH1 0x1 DUP3 ADD SLOAD PUSH1 0x2 DUP4 ADD SLOAD SWAP2 SWAP8 POP SWAP6 POP PUSH1 0xFF AND SWAP4 POP SWAP1 POP DUP4 PUSH2 0x4DF JUMPI PUSH1 0x0 PUSH2 0x4F5 JUMP JUMPDEST DUP4 PUSH2 0x4EB DUP7 PUSH1 0x64 PUSH2 0xFE9 JUMP JUMPDEST PUSH2 0x4F5 SWAP2 SWAP1 PUSH2 0x1000 JUMP JUMPDEST SWAP2 POP POP SWAP3 SWAP6 SWAP2 SWAP5 POP SWAP3 POP JUMP JUMPDEST PUSH2 0x509 PUSH2 0xE08 JUMP JUMPDEST PUSH1 0x1 PUSH1 0x1 PUSH1 0xA0 SHL SUB DUP2 AND PUSH2 0x540 JUMPI PUSH1 0x40 MLOAD PUSH4 0x47264553 PUSH1 0xE1 SHL DUP2 MSTORE PUSH1 0x1 PUSH1 0x1 PUSH1 0xA0 SHL SUB DUP3 AND PUSH1 0x4 DUP3 ADD MSTORE PUSH1 0x24 ADD JUMPDEST PUSH1 0x40 MLOAD DUP1 SWAP2 SUB SWAP1 REVERT JUMPDEST PUSH1 0x3 DUP1 SLOAD PUSH1 0x1 PUSH1 0x1 PUSH1 0xA0 SHL SUB NOT AND PUSH1 0x1 PUSH1 0x1 PUSH1 0xA0 SHL SUB DUP4 AND SWAP1 DUP2 OR SWAP1 SWAP2 SSTORE PUSH1 0x40 MLOAD PUSH32 0x6BDA90D69C86C08B1548541B058AA7E292B7A440758BA7A3437FE31F9D72D7C8 SWAP1 PUSH1 0x0 SWAP1 LOG2 POP JUMP JUMPDEST PUSH1 0x1 PUSH1 0x1 PUSH1 0xA0 SHL SUB DUP2 AND PUSH1 0x0 SWAP1 DUP2 MSTORE PUSH1 0x1 PUSH1 0x20 MSTORE PUSH1 0x40 DUP2 KECCAK256 SLOAD DUP1 DUP3 SUB PUSH2 0x5AE JUMPI POP PUSH1 0x32 JUMPDEST PUSH1 0x50 GT ISZERO SWAP3 SWAP2 POP POP JUMP JUMPDEST PUSH1 0x2 SLOAD PUSH1 0x1 PUSH1 0x1 PUSH1 0xA0 SHL SUB AND CALLER EQ PUSH2 0x5E5 JUMPI PUSH1 0x40 MLOAD PUSH4 0xD86AD9CF PUSH1 0xE0 SHL DUP2 MSTORE CALLER PUSH1 0x4 DUP3 ADD MSTORE PUSH1 0x24 ADD PUSH2 0x537 JUMP JUMPDEST PUSH1 0x1 PUSH1 0x1 PUSH1 0xA0 SHL SUB DUP3 AND PUSH1 0x0 SWAP1 DUP2 MSTORE PUSH1 0x1 PUSH1 0x20 MSTORE PUSH1 0x40 SWAP1 KECCAK256 DUP1 SLOAD ISZERO DUP1 ISZERO PUSH2 0x60E JUMPI POP PUSH1 0x3 DUP2 ADD SLOAD ISZERO JUMPDEST ISZERO PUSH2 0x618 JUMPI PUSH1 0x32 DUP2 SSTORE JUMPDEST PUSH1 0x3 DUP2 ADD DUP1 SLOAD SWAP1 PUSH1 0x0 PUSH2 0x62A DUP4 PUSH2 0x1022 JUMP JUMPDEST SWAP2 SWAP1 POP SSTORE POP DUP2 ISZERO PUSH2 0x68C JUMPI DUP1 SLOAD PUSH1 0x64 SWAP1 PUSH2 0x646 SWAP1 PUSH1 0x5 SWAP1 PUSH2 0x103B JUMP JUMPDEST GT PUSH2 0x66B JUMPI PUSH1 0x5 DUP2 PUSH1 0x0 ADD PUSH1 0x0 DUP3 DUP3 SLOAD PUSH2 0x660 SWAP2 SWAP1 PUSH2 0x103B JUMP JUMPDEST SWAP1 SWAP2 SSTORE POP PUSH2 0x670 SWAP1 POP JUMP JUMPDEST PUSH1 0x64 DUP2 SSTORE JUMPDEST PUSH1 0x4 DUP2 ADD DUP1 SLOAD SWAP1 PUSH1 0x0 PUSH2 0x682 DUP4 PUSH2 0x1022 JUMP JUMPDEST SWAP2 SWAP1 POP SSTORE POP PUSH2 0x6BA JUMP JUMPDEST DUP1 SLOAD PUSH1 0x5 GT PUSH2 0x6B5 JUMPI PUSH1 0x5 DUP2 PUSH1 0x0 ADD PUSH1 0x0 DUP3 DUP3 SLOAD PUSH2 0x6AA SWAP2 SWAP1 PUSH2 0x104E JUMP JUMPDEST SWAP1 SWAP2 SSTORE POP PUSH2 0x6BA SWAP1 POP JUMP JUMPDEST PUSH1 0x0 DUP2 SSTORE JUMPDEST DUP1 SLOAD PUSH1 0x40 MLOAD PUSH1 0x1 PUSH1 0x1 PUSH1 0xA0 SHL SUB DUP6 AND SWAP2 PUSH32 0xD36A46BEA375412F6BF5FCC61B0D647C90F29122B2D0D04EDBDFE20EDC16A571 SWAP2 PUSH2 0x700 SWAP2 DUP7 ISZERO ISZERO DUP3 MSTORE PUSH1 0x20 DUP3 ADD MSTORE PUSH1 0x40 ADD SWAP1 JUMP JUMPDEST PUSH1 0x40 MLOAD DUP1 SWAP2 SUB SWAP1 LOG2 POP POP POP JUMP JUMPDEST PUSH1 0x1 PUSH1 0x1 PUSH1 0xA0 SHL SUB DUP2 AND PUSH1 0x0 SWAP1 DUP2 MSTORE PUSH1 0x1 PUSH1 0x20 MSTORE PUSH1 0x40 DUP2 KECCAK256 PUSH1 0x3 DUP2 ADD SLOAD DUP3 SUB PUSH2 0x739 JUMPI POP PUSH1 0x0 SWAP3 SWAP2 POP POP JUMP JUMPDEST PUSH1 0x3 DUP2 ADD SLOAD PUSH1 0x4 DUP3 ADD SLOAD PUSH2 0x74E SWAP1 PUSH1 0x64 PUSH2 0xFE9 JUMP JUMPDEST PUSH2 0x758 SWAP2 SWAP1 PUSH2 0x1000 JUMP JUMPDEST SWAP4 SWAP3 POP POP POP JUMP JUMPDEST PUSH1 0x2 SLOAD PUSH1 0x1 PUSH1 0x1 PUSH1 0xA0 SHL SUB AND CALLER EQ PUSH2 0x78C JUMPI PUSH1 0x40 MLOAD PUSH4 0xD86AD9CF PUSH1 0xE0 SHL DUP2 MSTORE CALLER PUSH1 0x4 DUP3 ADD MSTORE PUSH1 0x24 ADD PUSH2 0x537 JUMP JUMPDEST PUSH1 0x1 PUSH1 0x1 PUSH1 0xA0 SHL SUB DUP3 AND PUSH1 0x0 SWAP1 DUP2 MSTORE PUSH1 0x1 PUSH1 0x20 MSTORE PUSH1 0x40 SWAP1 KECCAK256 DUP1 SLOAD ISZERO DUP1 ISZERO PUSH2 0x7B5 JUMPI POP PUSH1 0x1 DUP2 ADD SLOAD ISZERO JUMPDEST DUP1 ISZERO PUSH2 0x7C3 JUMPI POP PUSH1 0x2 DUP2 ADD SLOAD ISZERO JUMPDEST ISZERO PUSH2 0x7CD JUMPI PUSH1 0x32 DUP2 SSTORE JUMPDEST DUP2 ISZERO PUSH2 0x82A JUMPI DUP1 SLOAD PUSH1 0x64 SWAP1 PUSH2 0x7E4 SWAP1 PUSH1 0x5 SWAP1 PUSH2 0x103B JUMP JUMPDEST GT PUSH2 0x809 JUMPI PUSH1 0x5 DUP2 PUSH1 0x0 ADD PUSH1 0x0 DUP3 DUP3 SLOAD PUSH2 0x7FE SWAP2 SWAP1 PUSH2 0x103B JUMP JUMPDEST SWAP1 SWAP2 SSTORE POP PUSH2 0x80E SWAP1 POP JUMP JUMPDEST PUSH1 0x64 DUP2 SSTORE JUMPDEST PUSH1 0x1 DUP2 ADD DUP1 SLOAD SWAP1 PUSH1 0x0 PUSH2 0x820 DUP4 PUSH2 0x1022 JUMP JUMPDEST SWAP2 SWAP1 POP SSTORE POP PUSH2 0x870 JUMP JUMPDEST DUP1 SLOAD PUSH1 0x5 GT PUSH2 0x853 JUMPI PUSH1 0x5 DUP2 PUSH1 0x0 ADD PUSH1 0x0 DUP3 DUP3 SLOAD PUSH2 0x848 SWAP2 SWAP1 PUSH2 0x104E JUMP JUMPDEST SWAP1 SWAP2 SSTORE POP PUSH2 0x858 SWAP1 POP JUMP JUMPDEST PUSH1 0x0 DUP2 SSTORE JUMPDEST PUSH1 0x2 DUP2 ADD DUP1 SLOAD SWAP1 PUSH1 0x0 PUSH2 0x86A DUP4 PUSH2 0x1022 JUMP JUMPDEST SWAP2 SWAP1 POP SSTORE POP JUMPDEST DUP1 SLOAD PUSH1 0x40 MLOAD PUSH1 0x1 PUSH1 0x1 PUSH1 0xA0 SHL SUB DUP6 AND SWAP2 PUSH32 0x7B2BC3AC22E1443BFB50610F409A7B5A81E116516CE36F0A78B0CE1657F27790 SWAP2 PUSH2 0x700 SWAP2 DUP7 ISZERO ISZERO DUP3 MSTORE PUSH1 0x20 DUP3 ADD MSTORE PUSH1 0x40 ADD SWAP1 JUMP JUMPDEST PUSH2 0x8BE PUSH2 0xE08 JUMP JUMPDEST PUSH2 0x8C8 PUSH1 0x0 PUSH2 0xE35 JUMP JUMPDEST JUMP JUMPDEST PUSH1 0x1 PUSH1 0x1 PUSH1 0xA0 SHL SUB DUP2 AND PUSH1 0x0 SWAP1 DUP2 MSTORE PUSH1 0x1 PUSH1 0x20 MSTORE PUSH1 0x40 DUP2 KECCAK256 DUP1 SLOAD ISZERO DUP1 ISZERO PUSH2 0x8F3 JUMPI POP PUSH1 0x1 DUP2 ADD SLOAD ISZERO JUMPDEST DUP1 ISZERO PUSH2 0x901 JUMPI POP PUSH1 0x2 DUP2 ADD SLOAD ISZERO JUMPDEST DUP1 ISZERO PUSH2 0x90F JUMPI POP PUSH1 0x3 DUP2 ADD SLOAD ISZERO JUMPDEST ISZERO PUSH2 0x91D JUMPI POP PUSH1 0x32 SWAP3 SWAP2 POP POP JUMP JUMPDEST SLOAD SWAP3 SWAP2 POP POP JUMP JUMPDEST PUSH1 0x1 PUSH1 0x1 PUSH1 0xA0 SHL SUB DUP2 AND PUSH1 0x0 SWAP1 DUP2 MSTORE PUSH1 0x1 PUSH1 0x20 MSTORE PUSH1 0x40 DUP2 KECCAK256 DUP1 SLOAD DUP3 SWAP2 DUP3 SWAP2 DUP3 SWAP2 DUP3 SWAP2 ISZERO PUSH2 0x952 JUMPI DUP1 SLOAD PUSH2 0x955 JUMP JUMPDEST PUSH1 0x32 JUMPDEST PUSH1 0x1 DUP3 ADD SLOAD PUSH1 0x2 DUP4 ADD SLOAD PUSH1 0x3 DUP5 ADD SLOAD PUSH1 0x4 SWAP1 SWAP5 ADD SLOAD SWAP3 SWAP11 SWAP2 SWAP10 POP SWAP8 POP SWAP2 SWAP6 POP SWAP4 POP SWAP2 POP POP JUMP JUMPDEST PUSH1 0x1 PUSH1 0x1 PUSH1 0xA0 SHL SUB DUP2 AND PUSH1 0x0 SWAP1 DUP2 MSTORE PUSH1 0x1 PUSH1 0x20 MSTORE PUSH1 0x40 SWAP1 KECCAK256 DUP1 SLOAD ISZERO PUSH2 0x9BE JUMPI PUSH1 0x40 MLOAD PUSH4 0xF29542A5 PUSH1 0xE0 SHL DUP2 MSTORE PUSH1 0x1 PUSH1 0x1 PUSH1 0xA0 SHL SUB DUP4 AND PUSH1 0x4 DUP3 ADD MSTORE PUSH1 0x24 ADD PUSH2 0x537 JUMP JUMPDEST PUSH1 0x32 DUP1 DUP3 SSTORE PUSH1 0x40 MLOAD SWAP1 DUP2 MSTORE PUSH1 0x1 PUSH1 0x1 PUSH1 0xA0 SHL SUB DUP4 AND SWAP1 PUSH31 0x143BA88DED9808E3F60DE522FA585F0874534E7A2FE23B106311A77577F55 SWAP1 PUSH1 0x20 ADD PUSH1 0x40 MLOAD DUP1 SWAP2 SUB SWAP1 LOG2 POP POP JUMP JUMPDEST PUSH1 0x2 SLOAD PUSH1 0x1 PUSH1 0x1 PUSH1 0xA0 SHL SUB AND CALLER EQ DUP1 ISZERO SWAP1 PUSH2 0xA2A JUMPI POP PUSH1 0x3 SLOAD PUSH1 0x1 PUSH1 0x1 PUSH1 0xA0 SHL SUB AND CALLER EQ ISZERO JUMPDEST ISZERO PUSH2 0xA4A JUMPI PUSH1 0x40 MLOAD PUSH4 0xD86AD9CF PUSH1 0xE0 SHL DUP2 MSTORE CALLER PUSH1 0x4 DUP3 ADD MSTORE PUSH1 0x24 ADD PUSH2 0x537 JUMP JUMPDEST PUSH1 0x1 PUSH1 0x1 PUSH1 0xA0 SHL SUB DUP4 AND PUSH1 0x0 SWAP1 DUP2 MSTORE PUSH1 0x1 PUSH1 0x20 MSTORE PUSH1 0x40 SWAP1 KECCAK256 DUP1 SLOAD ISZERO DUP1 ISZERO PUSH2 0xA73 JUMPI POP PUSH1 0x1 DUP2 ADD SLOAD ISZERO JUMPDEST DUP1 ISZERO PUSH2 0xA81 JUMPI POP PUSH1 0x2 DUP2 ADD SLOAD ISZERO JUMPDEST ISZERO PUSH2 0xA8B JUMPI PUSH1 0x32 DUP2 SSTORE JUMPDEST DUP2 ISZERO PUSH2 0xAE8 JUMPI DUP1 SLOAD PUSH1 0x64 SWAP1 PUSH2 0xAA2 SWAP1 PUSH1 0x5 SWAP1 PUSH2 0x103B JUMP JUMPDEST GT PUSH2 0xAC7 JUMPI PUSH1 0x5 DUP2 PUSH1 0x0 ADD PUSH1 0x0 DUP3 DUP3 SLOAD PUSH2 0xABC SWAP2 SWAP1 PUSH2 0x103B JUMP JUMPDEST SWAP1 SWAP2 SSTORE POP PUSH2 0xACC SWAP1 POP JUMP JUMPDEST PUSH1 0x64 DUP2 SSTORE JUMPDEST PUSH1 0x1 DUP2 ADD DUP1 SLOAD SWAP1 PUSH1 0x0 PUSH2 0xADE DUP4 PUSH2 0x1022 JUMP JUMPDEST SWAP2 SWAP1 POP SSTORE POP PUSH2 0xB2E JUMP JUMPDEST DUP1 SLOAD PUSH1 0x5 GT PUSH2 0xB11 JUMPI PUSH1 0x5 DUP2 PUSH1 0x0 ADD PUSH1 0x0 DUP3 DUP3 SLOAD PUSH2 0xB06 SWAP2 SWAP1 PUSH2 0x104E JUMP JUMPDEST SWAP1 SWAP2 SSTORE POP PUSH2 0xB16 SWAP1 POP JUMP JUMPDEST PUSH1 0x0 DUP2 SSTORE JUMPDEST PUSH1 0x2 DUP2 ADD DUP1 SLOAD SWAP1 PUSH1 0x0 PUSH2 0xB28 DUP4 PUSH2 0x1022 JUMP JUMPDEST SWAP2 SWAP1 POP SSTORE POP JUMPDEST PUSH1 0x0 DUP2 PUSH1 0x5 ADD PUSH1 0x0 DUP6 PUSH1 0x4 DUP2 GT ISZERO PUSH2 0xB48 JUMPI PUSH2 0xB48 PUSH2 0xFBD JUMP JUMPDEST PUSH1 0x4 DUP2 GT ISZERO PUSH2 0xB59 JUMPI PUSH2 0xB59 PUSH2 0xFBD JUMP JUMPDEST DUP2 MSTORE PUSH1 0x20 ADD SWAP1 DUP2 MSTORE PUSH1 0x20 ADD PUSH1 0x0 KECCAK256 SWAP1 POP DUP1 PUSH1 0x1 ADD PUSH1 0x0 DUP2 SLOAD DUP1 SWAP3 SWAP2 SWAP1 PUSH2 0xB7E SWAP1 PUSH2 0x1022 JUMP JUMPDEST SWAP2 SWAP1 POP SSTORE POP DUP3 ISZERO PUSH2 0xB9D JUMPI DUP1 SLOAD DUP2 PUSH1 0x0 PUSH2 0xB97 DUP4 PUSH2 0x1022 JUMP JUMPDEST SWAP2 SWAP1 POP SSTORE POP JUMPDEST PUSH1 0x2 DUP2 ADD SLOAD PUSH1 0xFF AND ISZERO DUP1 ISZERO PUSH2 0xBB6 JUMPI POP PUSH2 0xBB6 DUP2 PUSH2 0xE85 JUMP JUMPDEST ISZERO PUSH2 0xC0E JUMPI PUSH1 0x2 DUP2 ADD DUP1 SLOAD PUSH1 0xFF NOT AND PUSH1 0x1 OR SWAP1 SSTORE PUSH1 0x40 MLOAD PUSH1 0x1 PUSH1 0x1 PUSH1 0xA0 SHL SUB DUP7 AND SWAP1 PUSH32 0xA1D6123B5748F3ACE0F4FAC103A3D76AA48050B31E69390135B174E6F5C9E547 SWAP1 PUSH2 0xC05 SWAP1 DUP8 SWAP1 PUSH2 0x1061 JUMP JUMPDEST PUSH1 0x40 MLOAD DUP1 SWAP2 SUB SWAP1 LOG2 JUMPDEST DUP2 SLOAD PUSH1 0x40 MLOAD PUSH1 0x1 PUSH1 0x1 PUSH1 0xA0 SHL SUB DUP8 AND SWAP2 PUSH32 0x7B2BC3AC22E1443BFB50610F409A7B5A81E116516CE36F0A78B0CE1657F27790 SWAP2 PUSH2 0xC54 SWAP2 DUP8 ISZERO ISZERO DUP3 MSTORE PUSH1 0x20 DUP3 ADD MSTORE PUSH1 0x40 ADD SWAP1 JUMP JUMPDEST PUSH1 0x40 MLOAD DUP1 SWAP2 SUB SWAP1 LOG2 POP POP POP POP POP JUMP JUMPDEST PUSH1 0x1 PUSH1 0x1 PUSH1 0xA0 SHL SUB DUP2 AND PUSH1 0x0 SWAP1 DUP2 MSTORE PUSH1 0x1 PUSH1 0x20 DUP2 SWAP1 MSTORE PUSH1 0x40 DUP3 KECCAK256 PUSH1 0x2 DUP2 ADD SLOAD SWAP2 DUP2 ADD SLOAD SWAP1 SWAP2 DUP4 SWAP2 PUSH2 0xC94 SWAP2 SWAP1 PUSH2 0x103B JUMP JUMPDEST SWAP1 POP DUP1 PUSH1 0x0 SUB PUSH2 0xCA8 JUMPI POP PUSH1 0x0 SWAP4 SWAP3 POP POP POP JUMP JUMPDEST DUP1 DUP3 PUSH1 0x1 ADD SLOAD PUSH1 0x64 PUSH2 0xCBA SWAP2 SWAP1 PUSH2 0xFE9 JUMP JUMPDEST PUSH2 0xCC4 SWAP2 SWAP1 PUSH2 0x1000 JUMP JUMPDEST SWAP5 SWAP4 POP POP POP POP JUMP JUMPDEST PUSH1 0x1 PUSH1 0x1 PUSH1 0xA0 SHL SUB DUP3 AND PUSH1 0x0 SWAP1 DUP2 MSTORE PUSH1 0x1 PUSH1 0x20 MSTORE PUSH1 0x40 DUP2 KECCAK256 PUSH1 0x5 ADD DUP2 DUP4 PUSH1 0x4 DUP2 GT ISZERO PUSH2 0xCFA JUMPI PUSH2 0xCFA PUSH2 0xFBD JUMP JUMPDEST PUSH1 0x4 DUP2 GT ISZERO PUSH2 0xD0B JUMPI PUSH2 0xD0B PUSH2 0xFBD JUMP JUMPDEST DUP2 MSTORE PUSH1 0x20 DUP2 ADD SWAP2 SWAP1 SWAP2 MSTORE PUSH1 0x40 ADD PUSH1 0x0 KECCAK256 PUSH1 0x2 ADD SLOAD PUSH1 0xFF AND ISZERO PUSH2 0xD3C JUMPI PUSH2 0xD35 PUSH2 0x3E8 PUSH2 0x2710 PUSH2 0x103B JUMP JUMPDEST SWAP1 POP PUSH2 0x45E JUMP JUMPDEST POP PUSH2 0x2710 SWAP3 SWAP2 POP POP JUMP JUMPDEST PUSH2 0xD4E PUSH2 0xE08 JUMP JUMPDEST PUSH1 0x1 PUSH1 0x1 PUSH1 0xA0 SHL SUB DUP2 AND PUSH2 0xD78 JUMPI PUSH1 0x40 MLOAD PUSH4 0x1E4FBDF7 PUSH1 0xE0 SHL DUP2 MSTORE PUSH1 0x0 PUSH1 0x4 DUP3 ADD MSTORE PUSH1 0x24 ADD PUSH2 0x537 JUMP JUMPDEST PUSH2 0xD81 DUP2 PUSH2 0xE35 JUMP JUMPDEST POP JUMP JUMPDEST PUSH2 0xD8C PUSH2 0xE08 JUMP JUMPDEST PUSH1 0x1 PUSH1 0x1 PUSH1 0xA0 SHL SUB DUP2 AND PUSH2 0xDBE JUMPI PUSH1 0x40 MLOAD PUSH4 0x47264553 PUSH1 0xE1 SHL DUP2 MSTORE PUSH1 0x1 PUSH1 0x1 PUSH1 0xA0 SHL SUB DUP3 AND PUSH1 0x4 DUP3 ADD MSTORE PUSH1 0x24 ADD PUSH2 0x537 JUMP JUMPDEST PUSH1 0x2 DUP1 SLOAD PUSH1 0x1 PUSH1 0x1 PUSH1 0xA0 SHL SUB NOT AND PUSH1 0x1 PUSH1 0x1 PUSH1 0xA0 SHL SUB DUP4 AND SWAP1 DUP2 OR SWAP1 SWAP2 SSTORE PUSH1 0x40 MLOAD PUSH32 0xC94639D1214701DA4F99305BBD305A310B09328AAEAEA5C8FD49CD2685D49628 SWAP1 PUSH1 0x0 SWAP1 LOG2 POP JUMP JUMPDEST PUSH1 0x0 SLOAD PUSH1 0x1 PUSH1 0x1 PUSH1 0xA0 SHL SUB AND CALLER EQ PUSH2 0x8C8 JUMPI PUSH1 0x40 MLOAD PUSH4 0x118CDAA7 PUSH1 0xE0 SHL DUP2 MSTORE CALLER PUSH1 0x4 DUP3 ADD MSTORE PUSH1 0x24 ADD PUSH2 0x537 JUMP JUMPDEST PUSH1 0x0 DUP1 SLOAD PUSH1 0x1 PUSH1 0x1 PUSH1 0xA0 SHL SUB DUP4 DUP2 AND PUSH1 0x1 PUSH1 0x1 PUSH1 0xA0 SHL SUB NOT DUP4 AND DUP2 OR DUP5 SSTORE PUSH1 0x40 MLOAD SWAP2 SWAP1 SWAP3 AND SWAP3 DUP4 SWAP2 PUSH32 0x8BE0079C531659141344CD1FD0A4F28419497F9722A3DAAFE3B4186F6B6457E0 SWAP2 SWAP1 LOG3 POP POP JUMP JUMPDEST PUSH1 0x0 PUSH1 0xA DUP3 PUSH1 0x1 ADD SLOAD LT ISZERO PUSH2 0xE9C JUMPI POP PUSH1 0x0 SWAP2 SWAP1 POP JUMP JUMPDEST PUSH1 0x1 DUP3 ADD SLOAD DUP3 SLOAD PUSH1 0x0 SWAP2 SWAP1 PUSH2 0xEB2 SWAP1 PUSH1 0x64 PUSH2 0xFE9 JUMP JUMPDEST PUSH2 0xEBC SWAP2 SWAP1 PUSH2 0x1000 JUMP JUMPDEST PUSH1 0x5A GT ISZERO SWAP4 SWAP3 POP POP POP JUMP JUMPDEST DUP1 CALLDATALOAD PUSH1 0x1 PUSH1 0x1 PUSH1 0xA0 SHL SUB DUP2 AND DUP2 EQ PUSH2 0xEDE JUMPI PUSH1 0x0 DUP1 REVERT JUMPDEST SWAP2 SWAP1 POP JUMP JUMPDEST DUP1 CALLDATALOAD PUSH1 0x5 DUP2 LT PUSH2 0xEDE JUMPI PUSH1 0x0 DUP1 REVERT JUMPDEST PUSH1 0x0 DUP1 PUSH1 0x40 DUP4 DUP6 SUB SLT ISZERO PUSH2 0xF05 JUMPI PUSH1 0x0 DUP1 REVERT JUMPDEST PUSH2 0xF0E DUP4 PUSH2 0xEC7 JUMP JUMPDEST SWAP2 POP PUSH2 0xF1C PUSH1 0x20 DUP5 ADD PUSH2 0xEE3 JUMP JUMPDEST SWAP1 POP SWAP3 POP SWAP3 SWAP1 POP JUMP JUMPDEST PUSH1 0x0 PUSH1 0x20 DUP3 DUP5 SUB SLT ISZERO PUSH2 0xF37 JUMPI PUSH1 0x0 DUP1 REVERT JUMPDEST PUSH2 0x758 DUP3 PUSH2 0xEC7 JUMP JUMPDEST DUP1 CALLDATALOAD DUP1 ISZERO ISZERO DUP2 EQ PUSH2 0xEDE JUMPI PUSH1 0x0 DUP1 REVERT JUMPDEST PUSH1 0x0 DUP1 PUSH1 0x40 DUP4 DUP6 SUB SLT ISZERO PUSH2 0xF63 JUMPI PUSH1 0x0 DUP1 REVERT JUMPDEST PUSH2 0xF6C DUP4 PUSH2 0xEC7 JUMP JUMPDEST SWAP2 POP PUSH2 0xF1C PUSH1 0x20 DUP5 ADD PUSH2 0xF40 JUMP JUMPDEST PUSH1 0x0 DUP1 PUSH1 0x0 PUSH1 0x60 DUP5 DUP7 SUB SLT ISZERO PUSH2 0xF8F JUMPI PUSH1 0x0 DUP1 REVERT JUMPDEST PUSH2 0xF98 DUP5 PUSH2 0xEC7 JUMP JUMPDEST SWAP3 POP PUSH2 0xFA6 PUSH1 0x20 DUP6 ADD PUSH2 0xEE3 JUMP JUMPDEST SWAP2 POP PUSH2 0xFB4 PUSH1 0x40 DUP6 ADD PUSH2 0xF40 JUMP JUMPDEST SWAP1 POP SWAP3 POP SWAP3 POP SWAP3 JUMP JUMPDEST PUSH4 0x4E487B71 PUSH1 0xE0 SHL PUSH1 0x0 MSTORE PUSH1 0x21 PUSH1 0x4 MSTORE PUSH1 0x24 PUSH1 0x0 REVERT JUMPDEST PUSH4 0x4E487B71 PUSH1 0xE0 SHL PUSH1 0x0 MSTORE PUSH1 0x11 PUSH1 0x4 MSTORE PUSH1 0x24 PUSH1 0x0 REVERT JUMPDEST DUP1 DUP3 MUL DUP2 ISZERO DUP3 DUP3 DIV DUP5 EQ OR PUSH2 0x45E JUMPI PUSH2 0x45E PUSH2 0xFD3 JUMP JUMPDEST PUSH1 0x0 DUP3 PUSH2 0x101D JUMPI PUSH4 0x4E487B71 PUSH1 0xE0 SHL PUSH1 0x0 MSTORE PUSH1 0x12 PUSH1 0x4 MSTORE PUSH1 0x24 PUSH1 0x0 REVERT JUMPDEST POP DIV SWAP1 JUMP JUMPDEST PUSH1 0x0 PUSH1 0x1 DUP3 ADD PUSH2 0x1034 JUMPI PUSH2 0x1034 PUSH2 0xFD3 JUMP JUMPDEST POP PUSH1 0x1 ADD SWAP1 JUMP JUMPDEST DUP1 DUP3 ADD DUP1 DUP3 GT ISZERO PUSH2 0x45E JUMPI PUSH2 0x45E PUSH2 0xFD3 JUMP JUMPDEST DUP2 DUP2 SUB DUP2 DUP2 GT ISZERO PUSH2 0x45E JUMPI PUSH2 0x45E PUSH2 0xFD3 JUMP JUMPDEST PUSH1 0x20 DUP2 ADD PUSH1 0x5 DUP4 LT PUSH2 0x1083 JUMPI PUSH4 0x4E487B71 PUSH1 0xE0 SHL PUSH1 0x0 MSTORE PUSH1 0x21 PUSH1 0x4 MSTORE PUSH1 0x24 PUSH1 0x0 REVERT JUMPDEST SWAP2 SWAP1 MSTORE SWAP1 JUMP INVALID LOG2 PUSH5 0x6970667358 0x22 SLT KECCAK256 PUSH16 0x835152CFAA1253477DEE92D1C91B7B15 PUSH32 0xC217FC354087A970A1456AE738DF64736F6C6343000814003300000000000000 "},"methodIdentifiers":{"BADGE_SUCCESS_RATE_THRESHOLD()":"0fe3bb74","BADGE_TASK_THRESHOLD()":"91321da7","BASIS_POINTS()":"e1f1c4a7","HIGH_REPUTATION_THRESHOLD()":"ef2fe5f0","INITIAL_REPUTATION()":"7b057258","MAX_REPUTATION()":"d213c0f2","MIN_REPUTATION()":"697c6045","REPUTATION_DECREASE()":"aac38d8c","REPUTATION_INCREASE()":"e6fc2d8a","REPUTATION_MULTIPLIER_PERCENTAGE()":"e7aeaf25","getCategoryStats(address,uint8)":"19d9d162","getReputationData(address)":"7a00d3c4","getReputationMultiplier(address,uint8)":"cdc85030","getReputationScore(address)":"75a67d5c","getSuccessRate(address)":"cb510373","getVerificationAccuracy(address)":"5dd0cc41","hasCategoryBadge(address,uint8)":"093cbed5","hasPriorityAccess(address)":"41cf742c","initializeReputation(address)":"7bb27c11","owner()":"8da5cb5b","renounceOwnership()":"715018a6","setTaskManager(address)":"327d0a60","setVerificationContract(address)":"fb48d6be","taskManagerAddress()":"1532de2b","transferOwnership(address)":"f2fde38b","updateVerifierReputation(address,bool)":"420c8430","updateWorkerReputation(address,bool)":"686745c3","updateWorkerReputationWithCategory(address,uint8,bool)":"ab92f97e","verificationContractAddress()":"33ebed30"}}}}}