{"contracts/VerificationContract.sol":{"VerificationContract":{"abi":[{"inputs":[],"stateMutability":"nonpayable","type":"constructor"},{"inputs":[{"internalType":"uint256","name":"submissionId","type":"uint256"}],"name":"AlreadyVerified","type":"error"},{"inputs":[{"internalType":"address","name":"verifier","type":"address"},{"internalType":"uint256","name":"submissionId","type":"uint256"}],"name":"AlreadyVoted","type":"error"},{"inputs":[{"internalType":"uint256","name":"submissionId","type":"uint256"}],"name":"ConsensusNotReached","type":"error"},{"inputs":[{"internalType":"uint256","name":"provided","type":"uint256"},{"internalType":"uint256","name":"required","type":"uint256"}],"name":"InsufficientStake","type":"error"},{"inputs":[{"internalType":"address","name":"addr","type":"address"}],"name":"InvalidAddress","type":"error"},{"inputs":[{"internalType":"uint256","name":"submissionId","type":"uint256"}],"name":"MaxVerifiersReached","type":"error"},{"inputs":[{"internalType":"address","name":"owner","type":"address"}],"name":"OwnableInvalidOwner","type":"error"},{"inputs":[{"internalType":"address","name":"account","type":"address"}],"name":"OwnableUnauthorizedAccount","type":"error"},{"inputs":[],"name":"ReentrancyGuardReentrantCall","type":"error"},{"inputs":[{"internalType":"uint256","name":"submissionId","type":"uint256"}],"name":"RewardAlreadyDistributed","type":"error"},{"inputs":[{"internalType":"uint256","name":"submissionId","type":"uint256"},{"internalType":"uint256","name":"timeRemaining","type":"uint256"}],"name":"RewardDistributionTooEarly","type":"error"},{"inputs":[{"internalType":"uint256","name":"submissionId","type":"uint256"}],"name":"SubmissionNotFound","type":"error"},{"inputs":[{"internalType":"address","name":"caller","type":"address"}],"name":"UnauthorizedCaller","type":"error"},{"inputs":[{"internalType":"address","name":"worker","type":"address"}],"name":"WorkerCannotVerifyOwnSubmission","type":"error"},{"anonymous":false,"inputs":[{"indexed":true,"internalType":"uint256","name":"submissionId","type":"uint256"},{"indexed":false,"internalType":"enum VerificationContract.VerificationStatus","name":"status","type":"uint8"},{"indexed":false,"internalType":"uint256","name":"timestamp","type":"uint256"}],"name":"ConsensusReached","type":"event"},{"anonymous":false,"inputs":[{"indexed":true,"internalType":"uint256","name":"submissionId","type":"uint256"},{"indexed":false,"internalType":"uint256","name":"currentVotes","type":"uint256"}],"name":"DisputeEscalated","type":"event"},{"anonymous":false,"inputs":[{"indexed":true,"internalType":"address","name":"previousOwner","type":"address"},{"indexed":true,"internalType":"address","name":"newOwner","type":"address"}],"name":"OwnershipTransferred","type":"event"},{"anonymous":false,"inputs":[{"indexed":true,"internalType":"uint256","name":"submissionId","type":"uint256"},{"indexed":true,"internalType":"address","name":"worker","type":"address"},{"indexed":false,"internalType":"uint256","name":"amount","type":"uint256"}],"name":"RewardDistributed","type":"event"},{"anonymous":false,"inputs":[{"indexed":true,"internalType":"uint256","name":"submissionId","type":"uint256"},{"indexed":true,"internalType":"uint256","name":"taskId","type":"uint256"},{"indexed":true,"internalType":"address","name":"worker","type":"address"},{"indexed":false,"internalType":"string","name":"ipfsHash","type":"string"}],"name":"SubmissionCreated","type":"event"},{"anonymous":false,"inputs":[{"indexed":true,"internalType":"uint256","name":"submissionId","type":"uint256"},{"indexed":false,"internalType":"uint256","name":"totalReward","type":"uint256"}],"name":"VerificationRewardsDistributed","type":"event"},{"anonymous":false,"inputs":[{"indexed":true,"internalType":"uint256","name":"submissionId","type":"uint256"},{"indexed":true,"internalType":"address","name":"verifier","type":"address"},{"indexed":false,"internalType":"uint256","name":"amount","type":"uint256"}],"name":"VerificationStaked","type":"event"},{"anonymous":false,"inputs":[{"indexed":true,"internalType":"uint256","name":"submissionId","type":"uint256"},{"indexed":true,"internalType":"address","name":"verifier","type":"address"},{"indexed":false,"internalType":"bool","name":"approved","type":"bool"}],"name":"VoteSubmitted","type":"event"},{"inputs":[],"name":"BASIS_POINTS","outputs":[{"internalType":"uint256","name":"","type":"uint256"}],"stateMutability":"view","type":"function"},{"inputs":[],"name":"CONSENSUS_THRESHOLD","outputs":[{"internalType":"uint256","name":"","type":"uint256"}],"stateMutability":"view","type":"function"},{"inputs":[],"name":"MAX_VERIFIERS","outputs":[{"internalType":"uint256","name":"","type":"uint256"}],"stateMutability":"view","type":"function"},{"inputs":[],"name":"REWARD_DISTRIBUTION_DELAY","outputs":[{"internalType":"uint256","name":"","type":"uint256"}],"stateMutability":"view","type":"function"},{"inputs":[],"name":"VERIFICATION_REWARD_PERCENTAGE","outputs":[{"internalType":"uint256","name":"","type":"uint256"}],"stateMutability":"view","type":"function"},{"inputs":[],"name":"VERIFICATION_STAKE","outputs":[{"internalType":"uint256","name":"","type":"uint256"}],"stateMutability":"view","type":"function"},{"inputs":[],"name":"antiFraudAddress","outputs":[{"internalType":"address","name":"","type":"address"}],"stateMutability":"view","type":"function"},{"inputs":[],"name":"bountyPoolAddress","outputs":[{"internalType":"address","name":"","type":"address"}],"stateMutability":"view","type":"function"},{"inputs":[{"internalType":"uint256","name":"","type":"uint256"}],"name":"consensusReachedAt","outputs":[{"internalType":"uint256","name":"","type":"uint256"}],"stateMutability":"view","type":"function"},{"inputs":[{"internalType":"uint256","name":"taskId","type":"uint256"},{"internalType":"address","name":"worker","type":"address"},{"internalType":"string","name":"ipfsHash","type":"string"},{"components":[{"internalType":"int256","name":"latitude","type":"int256"},{"internalType":"int256","name":"longitude","type":"int256"},{"internalType":"uint256","name":"radius","type":"uint256"}],"internalType":"struct VerificationContract.Location","name":"location","type":"tuple"},{"internalType":"uint256","name":"bountyAmount","type":"uint256"}],"name":"createSubmission","outputs":[{"internalType":"uint256","name":"","type":"uint256"}],"stateMutability":"nonpayable","type":"function"},{"inputs":[{"internalType":"uint256","name":"submissionId","type":"uint256"}],"name":"distributeVerificationRewards","outputs":[],"stateMutability":"nonpayable","type":"function"},{"inputs":[{"internalType":"uint256","name":"submissionId","type":"uint256"}],"name":"getSubmission","outputs":[{"components":[{"internalType":"uint256","name":"id","type":"uint256"},{"internalType":"uint256","name":"taskId","type":"uint256"},{"internalType":"address","name":"worker","type":"address"},{"internalType":"string","name":"ipfsHash","type":"string"},{"internalType":"uint256","name":"timestamp","type":"uint256"},{"components":[{"internalType":"int256","name":"latitude","type":"int256"},{"internalType":"int256","name":"longitude","type":"int256"},{"internalType":"uint256","name":"radius","type":"uint256"}],"internalType":"struct VerificationContract.Location","name":"location","type":"tuple"},{"internalType":"enum VerificationContract.VerificationStatus","name":"status","type":"uint8"},{"internalType":"uint256","name":"approvalCount","type":"uint256"},{"internalType":"uint256","name":"rejectionCount","type":"uint256"},{"internalType":"uint256","name":"totalVotes","type":"uint256"},{"internalType":"uint256","name":"bountyAmount","type":"uint256"},{"internalType":"bool","name":"rewardDistributed","type":"bool"}],"internalType":"struct VerificationContract.Submission","name":"","type":"tuple"}],"stateMutability":"view","type":"function"},{"inputs":[{"internalType":"uint256","name":"submissionId","type":"uint256"}],"name":"getSubmissionVerifiers","outputs":[{"internalType":"address[]","name":"","type":"address[]"}],"stateMutability":"view","type":"function"},{"inputs":[{"internalType":"uint256","name":"submissionId","type":"uint256"},{"internalType":"address","name":"verifier","type":"address"}],"name":"getVote","outputs":[{"components":[{"internalType":"bool","name":"hasVoted","type":"bool"},{"internalType":"bool","name":"approved","type":"bool"},{"internalType":"uint256","name":"timestamp","type":"uint256"},{"internalType":"uint256","name":"stake","type":"uint256"}],"internalType":"struct VerificationContract.Vote","name":"","type":"tuple"}],"stateMutability":"view","type":"function"},{"inputs":[{"internalType":"uint256","name":"submissionId","type":"uint256"}],"name":"hasConsensus","outputs":[{"internalType":"bool","name":"","type":"bool"}],"stateMutability":"view","type":"function"},{"inputs":[],"name":"owner","outputs":[{"internalType":"address","name":"","type":"address"}],"stateMutability":"view","type":"function"},{"inputs":[],"name":"renounceOwnership","outputs":[],"stateMutability":"nonpayable","type":"function"},{"inputs":[],"name":"reputationContractAddress","outputs":[{"internalType":"address","name":"","type":"address"}],"stateMutability":"view","type":"function"},{"inputs":[{"internalType":"address","name":"_antiFraud","type":"address"}],"name":"setAntiFraud","outputs":[],"stateMutability":"nonpayable","type":"function"},{"inputs":[{"internalType":"address","name":"_bountyPool","type":"address"}],"name":"setBountyPool","outputs":[],"stateMutability":"nonpayable","type":"function"},{"inputs":[{"internalType":"address","name":"_reputationContract","type":"address"}],"name":"setReputationContract","outputs":[],"stateMutability":"nonpayable","type":"function"},{"inputs":[{"internalType":"address","name":"_taskManager","type":"address"}],"name":"setTaskManager","outputs":[],"stateMutability":"nonpayable","type":"function"},{"inputs":[{"internalType":"uint256","name":"submissionId","type":"uint256"}],"name":"stakeForVerification","outputs":[],"stateMutability":"payable","type":"function"},{"inputs":[{"internalType":"uint256","name":"","type":"uint256"},{"internalType":"uint256","name":"","type":"uint256"}],"name":"submissionVerifiers","outputs":[{"internalType":"address","name":"","type":"address"}],"stateMutability":"view","type":"function"},{"inputs":[{"internalType":"uint256","name":"","type":"uint256"}],"name":"submissions","outputs":[{"internalType":"uint256","name":"id","type":"uint256"},{"internalType":"uint256","name":"taskId","type":"uint256"},{"internalType":"address","name":"worker","type":"address"},{"internalType":"string","name":"ipfsHash","type":"string"},{"internalType":"uint256","name":"timestamp","type":"uint256"},{"components":[{"internalType":"int256","name":"latitude","type":"int256"},{"internalType":"int256","name":"longitude","type":"int256"},{"internalType":"uint256","name":"radius","type":"uint256"}],"internalType":"struct VerificationContract.Location","name":"location","type":"tuple"},{"internalType":"enum VerificationContract.VerificationStatus","name":"status","type":"uint8"},{"internalType":"uint256","name":"approvalCount","type":"uint256"},{"internalType":"uint256","name":"rejectionCount","type":"uint256"},{"internalType":"uint256","name":"totalVotes","type":"uint256"},{"internalType":"uint256","name":"bountyAmount","type":"uint256"},{"internalType":"bool","name":"rewardDistributed","type":"bool"}],"stateMutability":"view","type":"function"},{"inputs":[{"internalType":"uint256","name":"submissionId","type":"uint256"},{"internalType":"bool","name":"approved","type":"bool"},{"internalType":"string","name":"feedback","type":"string"}],"name":"submitVerification","outputs":[],"stateMutability":"nonpayable","type":"function"},{"inputs":[],"name":"taskManagerAddress","outputs":[{"internalType":"address","name":"","type":"address"}],"stateMutability":"view","type":"function"},{"inputs":[{"internalType":"address","name":"newOwner","type":"address"}],"name":"transferOwnership","outputs":[],"stateMutability":"nonpayable","type":"function"},{"inputs":[{"internalType":"uint256","name":"","type":"uint256"},{"internalType":"address","name":"","type":"address"}],"name":"verificationVotes","outputs":[{"internalType":"bool","name":"hasVoted","type":"bool"},{"internalType":"bool","name":"approved","type":"bool"},{"internalType":"uint256","name":"timestamp","type":"uint256"},{"internalType":"uint256","name":"stake","type":"uint256"}],"stateMutability":"view","type":"function"},{"stateMutability":"payable","type":"receive"}],"evm":{"bytecode":{"linkReferences":{},"object":"608060405234801561001057600080fd5b50338061003757604051631e4fbdf760e01b81526000600482015260240160405180910390fd5b6100408161004a565b506001805561009a565b600080546001600160a01b038381166001600160a01b0319831681178455604051919092169283917f8be0079c531659141344cd1fd0a4f28419497f9722a3daafe3b4186f6b6457e09190a35050565b61232d806100a96000396000f3fe6080604052600436106101c65760003560e01c806383d80a49116100f7578063bc3f931f11610095578063f2fde38b11610064578063f2fde38b146105c9578063f3b1a77c146105e9578063fc459034146105fc578063fc76473c1461061257600080fd5b8063bc3f931f1461051a578063bca125f014610571578063deb800f114610586578063e1f1c4a7146105b357600080fd5b8063a0ab486d116100d1578063a0ab486d14610431578063a56686d6146104a6578063ad73349e146104c6578063b090cb81146104fe57600080fd5b806383d80a49146103d35780638da5cb5b146103f35780639584660f1461041157600080fd5b80633e8686cc11610164578063676f927b1161013e578063676f927b14610351578063715018a6146103715780637a4516b9146103865780637f8ae7dd146103a657600080fd5b80633e8686cc146102e157806347f66cc91461030e57806366b174951461032e57600080fd5b806321c0e95d116101a057806321c0e95d14610251578063327d0a601461027157806334a042d8146102915780633947c5b0146102b157600080fd5b806309437837146101d25780631532de2b146101f45780631f54f7291461023157600080fd5b366101cd57005b600080fd5b3480156101de57600080fd5b506101f26101ed366004611c68565b610628565b005b34801561020057600080fd5b50600954610214906001600160a01b031681565b6040516001600160a01b0390911681526020015b60405180910390f35b34801561023d57600080fd5b50600854610214906001600160a01b031681565b34801561025d57600080fd5b506101f261026c366004611c68565b610689565b34801561027d57600080fd5b506101f261028c366004611c68565b6106e5565b34801561029d57600080fd5b50600754610214906001600160a01b031681565b3480156102bd57600080fd5b506102d16102cc366004611c83565b610741565b6040519015158152602001610228565b3480156102ed57600080fd5b506103016102fc366004611c83565b6108fa565b6040516102289190611d1a565b34801561031a57600080fd5b506101f2610329366004611c83565b610a81565b34801561033a57600080fd5b50610343600781565b604051908152602001610228565b34801561035d57600080fd5b506101f261036c366004611e96565b610cc0565b34801561037d57600080fd5b506101f2610e2e565b34801561039257600080fd5b506102146103a1366004611ef4565b610e42565b3480156103b257600080fd5b506103c66103c1366004611c83565b610e7a565b6040516102289190611f16565b3480156103df57600080fd5b506103436103ee366004611f63565b610ee6565b3480156103ff57600080fd5b506000546001600160a01b0316610214565b34801561041d57600080fd5b506101f261042c366004611c68565b6110dc565b34801561043d57600080fd5b5061048461044c366004612019565b600460209081526000928352604080842090915290825290208054600182015460029092015460ff8083169361010090930416919084565b6040805194151585529215156020850152918301526060820152608001610228565b3480156104b257600080fd5b50600a54610214906001600160a01b031681565b3480156104d257600080fd5b506104e66104e1366004611c83565b611138565b6040516102289c9b9a99989796959493929190612045565b34801561050a57600080fd5b5061034367016345785d8a000081565b34801561052657600080fd5b5061053a610535366004612019565b611253565b6040516102289190815115158152602080830151151590820152604080830151908201526060918201519181019190915260800190565b34801561057d57600080fd5b50610343600381565b34801561059257600080fd5b506103436105a1366004611c83565b60066020526000908152604090205481565b3480156105bf57600080fd5b5061034361271081565b3480156105d557600080fd5b506101f26105e4366004611c68565b6112d4565b6101f26105f7366004611c83565b61130f565b34801561060857600080fd5b5061034361012c81565b34801561061e57600080fd5b506103436103e881565b610630611516565b6001600160a01b03811661066757604051634726455360e11b81526001600160a01b03821660048201526024015b60405180910390fd5b600a80546001600160a01b0319166001600160a01b0392909216919091179055565b610691611516565b6001600160a01b0381166106c357604051634726455360e11b81526001600160a01b038216600482015260240161065e565b600780546001600160a01b0319166001600160a01b0392909216919091179055565b6106ed611516565b6001600160a01b03811661071f57604051634726455360e11b81526001600160a01b038216600482015260240161065e565b600980546001600160a01b0319166001600160a01b0392909216919091179055565b60008181526003602081815260408084208151610180810183528154815260018201549381019390935260028101546001600160a01b03169183019190915291820180548493916060840191610796906120e5565b80601f01602080910402602001604051908101604052809291908181526020018280546107c2906120e5565b801561080f5780601f106107e45761010080835404028352916020019161080f565b820191906000526020600020905b8154815290600101906020018083116107f257829003601f168201915b5050509183525050600482015460208083019190915260408051606080820183526005860154825260068601549382019390935260078501548183015290830152600883015491019060ff16600381111561086c5761086c611ce2565b600381111561087d5761087d611ce2565b815260098201546020820152600a8201546040820152600b8201546060820152600c8201546080820152600d9091015460ff16151560a090910152905060018160c0015160038111156108d2576108d2611ce2565b14806108f3575060028160c0015160038111156108f1576108f1611ce2565b145b9392505050565b610902611bbe565b6000828152600360208181526040928390208351610180810185528154815260018201549281019290925260028101546001600160a01b0316938201939093529082018054919291606084019190610959906120e5565b80601f0160208091040260200160405190810160405280929190818152602001828054610985906120e5565b80156109d25780601f106109a7576101008083540402835291602001916109d2565b820191906000526020600020905b8154815290600101906020018083116109b557829003601f168201915b5050509183525050600482015460208083019190915260408051606080820183526005860154825260068601549382019390935260078501548183015290830152600883015491019060ff166003811115610a2f57610a2f611ce2565b6003811115610a4057610a40611ce2565b815260098201546020820152600a8201546040820152600b8201546060820152600c8201546080820152600d9091015460ff16151560a09091015292915050565b610a89611543565b600081815260036020526040902080548214610abb576040516311be967760e01b81526004810183905260240161065e565b6001600882015460ff166003811115610ad657610ad6611ce2565b14158015610afd57506002600882015460ff166003811115610afa57610afa611ce2565b14155b15610b1e576040516315610a9d60e31b81526004810183905260240161065e565b600d81015460ff1615610b4757604051637b608be760e01b81526004810183905260240161065e565b600082815260066020526040812054610b609042612135565b905061012c811015610b9b5782610b798261012c612135565b604051635874ccef60e11b81526004810192909252602482015260440161065e565b600d8201805460ff19166001908117909155600883015460ff166003811115610bc657610bc6611ce2565b148015610bdd57506007546001600160a01b031615155b15610ca95760075460018301546002840154600c85015460405163f8f4645760e01b815260048101939093526001600160a01b03918216602484015260448301529091169063f8f4645790606401600060405180830381600087803b158015610c4557600080fd5b505af1158015610c59573d6000803e3d6000fd5b505050506002820154600c8301546040519081526001600160a01b039091169084907fab7542bafced3da2d8c881cb2dd1de859fac7c20d3650d2902ad389a64e088839060200160405180910390a35b610cb28361156d565b5050610cbd60018055565b50565b610cc8611543565b60008381526003602090815260408083206004835281842033855290925290912081548514610d0d576040516311be967760e01b81526004810186905260240161065e565b8060020154600003610d43576040516322df051360e11b81526000600482015267016345785d8a0000602482015260440161065e565b805460ff1615610d6f57604051631bdd6e5960e11b81523360048201526024810186905260440161065e565b8054600161ffff199091166101008615150217811782554290820155600b82018054906000610d9d83612148565b91905055508315610dc457600982018054906000610dba83612148565b9190505550610ddc565b600a82018054906000610dd683612148565b91905055505b6040518415158152339086907f7ae256270c354f1f830c52697713782ce51539e910d41781cbb063a49c42c0f99060200160405180910390a3610e1e856118b6565b5050610e2960018055565b505050565b610e36611516565b610e406000611b6e565b565b60056020528160005260406000208181548110610e5e57600080fd5b6000918252602090912001546001600160a01b03169150829050565b600081815260056020908152604091829020805483518184028101840190945280845260609392830182828015610eda57602002820191906000526020600020905b81546001600160a01b03168152600190910190602001808311610ebc575b50505050509050919050565b6009546000906001600160a01b03163314610f165760405163d86ad9cf60e01b815233600482015260240161065e565b6002805460009182610f2783612148565b919050559050604051806101800160405280828152602001888152602001876001600160a01b0316815260200186815260200142815260200185815260200160006003811115610f7957610f79611ce2565b815260006020808301829052604080840183905260608085018490526080850189905260a0909401839052858352600380835292819020855181559185015160018301558401516002820180546001600160a01b0319166001600160a01b039092169190911790559183015190820190610ff390826121a7565b506080820151600482015560a0820151805160058301556020810151600683015560400151600782015560c082015160088201805460ff1916600183600381111561104057611040611ce2565b021790555060e08201516009820155610100820151600a820155610120820151600b820155610140820151600c82015561016090910151600d909101805460ff19169115159190911790556040516001600160a01b03871690889083907f9d9ec53e54f6385ec09428208c029bd27eb96263fc7b5da62db98ecc7d3f015c906110ca908a90612267565b60405180910390a49695505050505050565b6110e4611516565b6001600160a01b03811661111657604051634726455360e11b81526001600160a01b038216600482015260240161065e565b600880546001600160a01b0319166001600160a01b0392909216919091179055565b60036020819052600091825260409091208054600182015460028301549383018054929491936001600160a01b0390921692611173906120e5565b80601f016020809104026020016040519081016040528092919081815260200182805461119f906120e5565b80156111ec5780601f106111c1576101008083540402835291602001916111ec565b820191906000526020600020905b8154815290600101906020018083116111cf57829003601f168201915b50505050600483015460408051606081018252600586015481526006860154602082015260078601549181019190915260088501546009860154600a870154600b880154600c890154600d909901549798959794965060ff9384169592949193909291168c565b6040805160808082018352600080835260208084018290528385018290526060938401829052868252600481528482206001600160a01b038716835281529084902084519283018552805460ff8082161515855261010090910416151591830191909152600181015493820193909352600290920154908201525b92915050565b6112dc611516565b6001600160a01b03811661130657604051631e4fbdf760e01b81526000600482015260240161065e565b610cbd81611b6e565b611317611543565b600081815260036020526040902080548214611349576040516311be967760e01b81526004810183905260240161065e565b6000600882015460ff16600381111561136457611364611ce2565b1415801561138b57506003600882015460ff16600381111561138857611388611ce2565b14155b156113ab57604051625a2f6960e91b81526004810183905260240161065e565b600082815260046020908152604080832033845290915290205460ff16156113ef57604051631bdd6e5960e11b81523360048201526024810183905260440161065e565b60008281526005602052604090205460071161142157604051637c16836360e11b81526004810183905260240161065e565b60028101546001600160a01b03163303611450576040516328aa55f360e11b815233600482015260240161065e565b67016345785d8a0000341015611489576040516322df051360e11b815234600482015267016345785d8a0000602482015260440161065e565b6000828152600460209081526040808320338085529083528184203460029091018190558685526005845282852080546001810182559086529484902090940180546001600160a01b0319168217905590519283529184917f1cb6731e751af9a263790c7ed7a6b5e9aa62e45a3618c7bdbfc7994ff32fcce3910160405180910390a350610cbd60018055565b6000546001600160a01b03163314610e405760405163118cdaa760e01b815233600482015260240161065e565b60026001540361156657604051633ee5aeb560e01b815260040160405180910390fd5b6002600155565b60008181526003602090815260408083206005835281842080548351818602810186019094528084529194939091908301828280156115d557602002820191906000526020600020905b81546001600160a01b031681526001909101906020018083116115b7575b50505050509050600080600160038111156115f2576115f2611ce2565b600885015460ff16600381111561160b5761160b611ce2565b14905060005b835181101561187457600084828151811061162e5761162e61227a565b60209081029190910181015160008981526004835260408082206001600160a01b03841683529093529190912080549192509060ff1661166f575050611862565b805460ff6101009091041615158415151480156117e65760006127106103e8846002015461169d9190612290565b6116a791906122a7565b83600201546116b691906122c9565b90506116c281886122c9565b96506000846001600160a01b03168260405160006040518083038185875af1925050503d8060008114611711576040519150601f19603f3d011682016040523d82523d6000602084013e611716565b606091505b50509050806117675760405162461bcd60e51b815260206004820152601f60248201527f566572696669657220726577617264207472616e73666572206661696c656400604482015260640161065e565b6008546001600160a01b0316156117df57600854604051630420c84360e41b81526001600160a01b038781166004830152600160248301529091169063420c843090604401600060405180830381600087803b1580156117c657600080fd5b505af11580156117da573d6000803e3d6000fd5b505050505b505061185e565b6008546001600160a01b03161561185e57600854604051630420c84360e41b81526001600160a01b038581166004830152600060248301529091169063420c843090604401600060405180830381600087803b15801561184557600080fd5b505af1158015611859573d6000803e3d6000fd5b505050505b5050505b8061186c81612148565b915050611611565b50847f1261fc60efbc713a45ab737027cf0074a591cd295a66a6d4bc8fcdbb723884a7836040516118a791815260200190565b60405180910390a25050505050565b600081815260036020819052604090912060098101549091116119b25760088101805460ff19166001908117909155600083815260066020526040908190204290819055905184927fd7830f7c957a68cba7fcbaebb353384e5d4a2f633ff00a04a3ed57f34ddb896a92611929926122dc565b60405180910390a26008546001600160a01b0316156119ae57600854600282015460405163686745c360e01b81526001600160a01b0391821660048201526001602482015291169063686745c3906044015b600060405180830381600087803b15801561199557600080fd5b505af11580156119a9573d6000803e3d6000fd5b505050505b5050565b600381600a015410611b155760088101805460ff19166002908117909155600083815260066020526040908190204290819055905184927fd7830f7c957a68cba7fcbaebb353384e5d4a2f633ff00a04a3ed57f34ddb896a92611a14926122dc565b60405180910390a26008546001600160a01b031615611a9857600854600282015460405163686745c360e01b81526001600160a01b0391821660048201526000602482015291169063686745c390604401600060405180830381600087803b158015611a7f57600080fd5b505af1158015611a93573d6000803e3d6000fd5b505050505b600a546001600160a01b0316156119ae57600a54600282015460408051637a23654960e01b81526001600160a01b0392831660048201526024810191909152602060448201527f5375626d697373696f6e2072656a656374656420627920636f6e73656e7375736064820152911690637a2365499060840161197b565b600781600b0154106119ae5760088101805460ff19166003179055600b81015460405190815282907f366e7dd2cab048eaff199cb82b06661733696643e03b462e0b2635552275ed149060200160405180910390a25050565b600080546001600160a01b038381166001600160a01b0319831681178455604051919092169283917f8be0079c531659141344cd1fd0a4f28419497f9722a3daafe3b4186f6b6457e09190a35050565b604051806101800160405280600081526020016000815260200160006001600160a01b031681526020016060815260200160008152602001611c1a60405180606001604052806000815260200160008152602001600081525090565b815260200160008152602001600081526020016000815260200160008152602001600081526020016000151581525090565b80356001600160a01b0381168114611c6357600080fd5b919050565b600060208284031215611c7a57600080fd5b6108f382611c4c565b600060208284031215611c9557600080fd5b5035919050565b6000815180845260005b81811015611cc257602081850181015186830182015201611ca6565b506000602082860101526020601f19601f83011685010191505092915050565b634e487b7160e01b600052602160045260246000fd5b60048110611d1657634e487b7160e01b600052602160045260246000fd5b9052565b60208152815160208201526020820151604082015260006040830151611d4b60608401826001600160a01b03169052565b5060608301516101c0806080850152611d686101e0850183611c9c565b9150608085015160a085015260a0850151611d9a60c08601828051825260208082015190830152604090810151910152565b5060c0850151610120611daf81870183611cf8565b60e08701516101408781019190915261010088015161016080890191909152918801516101808801528701516101a087015290950151151593019290925250919050565b634e487b7160e01b600052604160045260246000fd5b600082601f830112611e1a57600080fd5b813567ffffffffffffffff80821115611e3557611e35611df3565b604051601f8301601f19908116603f01168101908282118183101715611e5d57611e5d611df3565b81604052838152866020858801011115611e7657600080fd5b836020870160208301376000602085830101528094505050505092915050565b600080600060608486031215611eab57600080fd5b8335925060208401358015158114611ec257600080fd5b9150604084013567ffffffffffffffff811115611ede57600080fd5b611eea86828701611e09565b9150509250925092565b60008060408385031215611f0757600080fd5b50508035926020909101359150565b6020808252825182820181905260009190848201906040850190845b81811015611f575783516001600160a01b031683529284019291840191600101611f32565b50909695505050505050565b600080600080600085870360e0811215611f7c57600080fd5b86359550611f8c60208801611c4c565b9450604087013567ffffffffffffffff80821115611fa957600080fd5b611fb58a838b01611e09565b95506060605f1984011215611fc957600080fd5b60405192506060830191508282108183111715611fe857611fe8611df3565b506040908152606088013582526080880135602083015260a0880135908201529497939650919460c0013592915050565b6000806040838503121561202c57600080fd5b8235915061203c60208401611c4c565b90509250929050565b8c8152602081018c90526001600160a01b038b1660408201526101c0606082018190526000906120778382018d611c9c565b608084018c90528a5160a085015260208b015160c085015260408b015160e085015291506120a29050565b6120b0610100830189611cf8565b61012082019690965261014081019490945261016084019290925261018083015215156101a090910152979650505050505050565b600181811c908216806120f957607f821691505b60208210810361211957634e487b7160e01b600052602260045260246000fd5b50919050565b634e487b7160e01b600052601160045260246000fd5b818103818111156112ce576112ce61211f565b60006001820161215a5761215a61211f565b5060010190565b601f821115610e2957600081815260208120601f850160051c810160208610156121885750805b601f850160051c820191505b818110156119a957828155600101612194565b815167ffffffffffffffff8111156121c1576121c1611df3565b6121d5816121cf84546120e5565b84612161565b602080601f83116001811461220a57600084156121f25750858301515b600019600386901b1c1916600185901b1785556119a9565b600085815260208120601f198616915b828110156122395788860151825594840194600190910190840161221a565b50858210156122575787850151600019600388901b60f8161c191681555b5050505050600190811b01905550565b6020815260006108f36020830184611c9c565b634e487b7160e01b600052603260045260246000fd5b80820281158282048414176112ce576112ce61211f565b6000826122c457634e487b7160e01b600052601260045260246000fd5b500490565b808201808211156112ce576112ce61211f565b604081016122ea8285611cf8565b826020830152939250505056fea264697066735822122024c97e4acfda1238d56812d1496249be2a9b0da3d19f84321f0b8d0b46367a9364736f6c63430008140033","opcodes":"PUSH1 0x80 PUSH1 0x40 MSTORE CALLVALUE DUP1 ISZERO PUSH2 0x10 JUMPI PUSH1 0x0 DUP1 REVERT JUMPDEST POP CALLER DUP1 PUSH2 0x37 JUMPI PUSH1 0x40 MLOAD PUSH4 0x1E4FBDF7 PUSH1 0xE0 SHL DUP2 MSTORE PUSH1 0x0 PUSH1 0x4 DUP3 ADD MSTORE PUSH1 0x24 ADD PUSH1 0x40 MLOAD DUP1 SWAP2 SUB SWAP1 REVERT JUMPDEST PUSH2 0x40 DUP2 PUSH2 0x4A JUMP JUMPDEST POP PUSH1 0x1 DUP1 SSTORE PUSH2 0x9A JUMP JUMPDEST PUSH1 0x0 DUP1 SLOAD PUSH1 0x1 PUSH1 0x1 PUSH1 0xA0 SHL SUB DUP4 DUP2 AND PUSH1 0x1 PUSH1 0x1 PUSH1 0xA0 SHL SUB NOT DUP4 AND DUP2 OR DUP5 SSTORE PUSH1 0x40 MLOAD SWAP2 SWAP1 SWAP3 AND SWAP3 DUP4 SWAP2 PUSH32 0x8BE0079C531659141344CD1FD0A4F28419497F9722A3DAAFE3B4186F6B6457E0 SWAP2 SWAP1 LOG3 POP POP JUMP JUMPDEST PUSH2 0x232D DUP1 PUSH2 0xA9 PUSH1 0x0 CODECOPY PUSH1 0x0 RETURN INVALID PUSH1 0x80 PUSH1 0x40 MSTORE PUSH1 0x4 CALLDATASIZE LT PUSH2 0x1C6 JUMPI PUSH1 0x0 CALLDATALOAD PUSH1 0xE0 SHR DUP1 PUSH4 0x83D80A49 GT PUSH2 0xF7 JUMPI DUP1 PUSH4 0xBC3F931F GT PUSH2 0x95 JUMPI DUP1 PUSH4 0xF2FDE38B GT PUSH2 0x64 JUMPI DUP1 PUSH4 0xF2FDE38B EQ PUSH2 0x5C9 JUMPI DUP1 PUSH4 0xF3B1A77C EQ PUSH2 0x5E9 JUMPI DUP1 PUSH4 0xFC459034 EQ PUSH2 0x5FC JUMPI DUP1 PUSH4 0xFC76473C EQ PUSH2 0x612 JUMPI PUSH1 0x0 DUP1 REVERT JUMPDEST DUP1 PUSH4 0xBC3F931F EQ PUSH2 0x51A JUMPI DUP1 PUSH4 0xBCA125F0 EQ PUSH2 0x571 JUMPI DUP1 PUSH4 0xDEB800F1 EQ PUSH2 0x586 JUMPI DUP1 PUSH4 0xE1F1C4A7 EQ PUSH2 0x5B3 JUMPI PUSH1 0x0 DUP1 REVERT JUMPDEST DUP1 PUSH4 0xA0AB486D GT PUSH2 0xD1 JUMPI DUP1 PUSH4 0xA0AB486D EQ PUSH2 0x431 JUMPI DUP1 PUSH4 0xA56686D6 EQ PUSH2 0x4A6 JUMPI DUP1 PUSH4 0xAD73349E EQ PUSH2 0x4C6 JUMPI DUP1 PUSH4 0xB090CB81 EQ PUSH2 0x4FE JUMPI PUSH1 0x0 DUP1 REVERT JUMPDEST DUP1 PUSH4 0x83D80A49 EQ PUSH2 0x3D3 JUMPI DUP1 PUSH4 0x8DA5CB5B EQ PUSH2 0x3F3 JUMPI DUP1 PUSH4 0x9584660F EQ PUSH2 0x411 JUMPI PUSH1 0x0 DUP1 REVERT JUMPDEST DUP1 PUSH4 0x3E8686CC GT PUSH2 0x164 JUMPI DUP1 PUSH4 0x676F927B GT PUSH2 0x13E JUMPI DUP1 PUSH4 0x676F927B EQ PUSH2 0x351 JUMPI DUP1 PUSH4 0x715018A6 EQ PUSH2 0x371 JUMPI DUP1 PUSH4 0x7A4516B9 EQ PUSH2 0x386 JUMPI DUP1 PUSH4 0x7F8AE7DD EQ PUSH2 0x3A6 JUMPI PUSH1 0x0 DUP1 REVERT JUMPDEST DUP1 PUSH4 0x3E8686CC EQ PUSH2 0x2E1 JUMPI DUP1 PUSH4 0x47F66CC9 EQ PUSH2 0x30E JUMPI DUP1 PUSH4 0x66B17495 EQ PUSH2 0x32E JUMPI PUSH1 0x0 DUP1 REVERT JUMPDEST DUP1 PUSH4 0x21C0E95D GT PUSH2 0x1A0 JUMPI DUP1 PUSH4 0x21C0E95D EQ PUSH2 0x251 JUMPI DUP1 PUSH4 0x327D0A60 EQ PUSH2 0x271 JUMPI DUP1 PUSH4 0x34A042D8 EQ PUSH2 0x291 JUMPI DUP1 PUSH4 0x3947C5B0 EQ PUSH2 0x2B1 JUMPI PUSH1 0x0 DUP1 REVERT JUMPDEST DUP1 PUSH4 0x9437837 EQ PUSH2 0x1D2 JUMPI DUP1 PUSH4 0x1532DE2B EQ PUSH2 0x1F4 JUMPI DUP1 PUSH4 0x1F54F729 EQ PUSH2 0x231 JUMPI PUSH1 0x0 DUP1 REVERT JUMPDEST CALLDATASIZE PUSH2 0x1CD JUMPI STOP JUMPDEST PUSH1 0x0 DUP1 REVERT JUMPDEST CALLVALUE DUP1 ISZERO PUSH2 0x1DE JUMPI PUSH1 0x0 DUP1 REVERT JUMPDEST POP PUSH2 0x1F2 PUSH2 0x1ED CALLDATASIZE PUSH1 0x4 PUSH2 0x1C68 JUMP JUMPDEST PUSH2 0x628 JUMP JUMPDEST STOP JUMPDEST CALLVALUE DUP1 ISZERO PUSH2 0x200 JUMPI PUSH1 0x0 DUP1 REVERT JUMPDEST POP PUSH1 0x9 SLOAD PUSH2 0x214 SWAP1 PUSH1 0x1 PUSH1 0x1 PUSH1 0xA0 SHL SUB AND DUP2 JUMP JUMPDEST PUSH1 0x40 MLOAD PUSH1 0x1 PUSH1 0x1 PUSH1 0xA0 SHL SUB SWAP1 SWAP2 AND DUP2 MSTORE PUSH1 0x20 ADD JUMPDEST PUSH1 0x40 MLOAD DUP1 SWAP2 SUB SWAP1 RETURN JUMPDEST CALLVALUE DUP1 ISZERO PUSH2 0x23D JUMPI PUSH1 0x0 DUP1 REVERT JUMPDEST POP PUSH1 0x8 SLOAD PUSH2 0x214 SWAP1 PUSH1 0x1 PUSH1 0x1 PUSH1 0xA0 SHL SUB AND DUP2 JUMP JUMPDEST CALLVALUE DUP1 ISZERO PUSH2 0x25D JUMPI PUSH1 0x0 DUP1 REVERT JUMPDEST POP PUSH2 0x1F2 PUSH2 0x26C CALLDATASIZE PUSH1 0x4 PUSH2 0x1C68 JUMP JUMPDEST PUSH2 0x689 JUMP JUMPDEST CALLVALUE DUP1 ISZERO PUSH2 0x27D JUMPI PUSH1 0x0 DUP1 REVERT JUMPDEST POP PUSH2 0x1F2 PUSH2 0x28C CALLDATASIZE PUSH1 0x4 PUSH2 0x1C68 JUMP JUMPDEST PUSH2 0x6E5 JUMP JUMPDEST CALLVALUE DUP1 ISZERO PUSH2 0x29D JUMPI PUSH1 0x0 DUP1 REVERT JUMPDEST POP PUSH1 0x7 SLOAD PUSH2 0x214 SWAP1 PUSH1 0x1 PUSH1 0x1 PUSH1 0xA0 SHL SUB AND DUP2 JUMP JUMPDEST CALLVALUE DUP1 ISZERO PUSH2 0x2BD JUMPI PUSH1 0x0 DUP1 REVERT JUMPDEST POP PUSH2 0x2D1 PUSH2 0x2CC CALLDATASIZE PUSH1 0x4 PUSH2 0x1C83 JUMP JUMPDEST PUSH2 0x741 JUMP JUMPDEST PUSH1 0x40 MLOAD SWAP1 ISZERO ISZERO DUP2 MSTORE PUSH1 0x20 ADD PUSH2 0x228 JUMP JUMPDEST CALLVALUE DUP1 ISZERO PUSH2 0x2ED JUMPI PUSH1 0x0 DUP1 REVERT JUMPDEST POP PUSH2 0x301 PUSH2 0x2FC CALLDATASIZE PUSH1 0x4 PUSH2 0x1C83 JUMP JUMPDEST PUSH2 0x8FA JUMP JUMPDEST PUSH1 0x40 MLOAD PUSH2 0x228 SWAP2 SWAP1 PUSH2 0x1D1A JUMP JUMPDEST CALLVALUE DUP1 ISZERO PUSH2 0x31A JUMPI PUSH1 0x0 DUP1 REVERT JUMPDEST POP PUSH2 0x1F2 PUSH2 0x329 CALLDATASIZE PUSH1 0x4 PUSH2 0x1C83 JUMP JUMPDEST PUSH2 0xA81 JUMP JUMPDEST CALLVALUE DUP1 ISZERO PUSH2 0x33A JUMPI PUSH1 0x0 DUP1 REVERT JUMPDEST POP PUSH2 0x343 PUSH1 0x7 DUP2 JUMP JUMPDEST PUSH1 0x40 MLOAD SWAP1 DUP2 MSTORE PUSH1 0x20 ADD PUSH2 0x228 JUMP JUMPDEST CALLVALUE DUP1 ISZERO PUSH2 0x35D JUMPI PUSH1 0x0 DUP1 REVERT JUMPDEST POP PUSH2 0x1F2 PUSH2 0x36C CALLDATASIZE PUSH1 0x4 PUSH2 0x1E96 JUMP JUMPDEST PUSH2 0xCC0 JUMP JUMPDEST CALLVALUE DUP1 ISZERO PUSH2 0x37D JUMPI PUSH1 0x0 DUP1 REVERT JUMPDEST POP PUSH2 0x1F2 PUSH2 0xE2E JUMP JUMPDEST CALLVALUE DUP1 ISZERO PUSH2 0x392 JUMPI PUSH1 0x0 DUP1 REVERT JUMPDEST POP PUSH2 0x214 PUSH2 0x3A1 CALLDATASIZE PUSH1 0x4 PUSH2 0x1EF4 JUMP JUMPDEST PUSH2 0xE42 JUMP JUMPDEST CALLVALUE DUP1 ISZERO PUSH2 0x3B2 JUMPI PUSH1 0x0 DUP1 REVERT JUMPDEST POP PUSH2 0x3C6 PUSH2 0x3C1 CALLDATASIZE PUSH1 0x4 PUSH2 0x1C83 JUMP JUMPDEST PUSH2 0xE7A JUMP JUMPDEST PUSH1 0x40 MLOAD PUSH2 0x228 SWAP2 SWAP1 PUSH2 0x1F16 JUMP JUMPDEST CALLVALUE DUP1 ISZERO PUSH2 0x3DF JUMPI PUSH1 0x0 DUP1 REVERT JUMPDEST POP PUSH2 0x343 PUSH2 0x3EE CALLDATASIZE PUSH1 0x4 PUSH2 0x1F63 JUMP JUMPDEST PUSH2 0xEE6 JUMP JUMPDEST CALLVALUE DUP1 ISZERO PUSH2 0x3FF JUMPI PUSH1 0x0 DUP1 REVERT JUMPDEST POP PUSH1 0x0 SLOAD PUSH1 0x1 PUSH1 0x1 PUSH1 0xA0 SHL SUB AND PUSH2 0x214 JUMP JUMPDEST CALLVALUE DUP1 ISZERO PUSH2 0x41D JUMPI PUSH1 0x0 DUP1 REVERT JUMPDEST POP PUSH2 0x1F2 PUSH2 0x42C CALLDATASIZE PUSH1 0x4 PUSH2 0x1C68 JUMP JUMPDEST PUSH2 0x10DC JUMP JUMPDEST CALLVALUE DUP1 ISZERO PUSH2 0x43D JUMPI PUSH1 0x0 DUP1 REVERT JUMPDEST POP PUSH2 0x484 PUSH2 0x44C CALLDATASIZE PUSH1 0x4 PUSH2 0x2019 JUMP JUMPDEST PUSH1 0x4 PUSH1 0x20 SWAP1 DUP2 MSTORE PUSH1 0x0 SWAP3 DUP4 MSTORE PUSH1 0x40 DUP1 DUP5 KECCAK256 SWAP1 SWAP2 MSTORE SWAP1 DUP3 MSTORE SWAP1 KECCAK256 DUP1 SLOAD PUSH1 0x1 DUP3 ADD SLOAD PUSH1 0x2 SWAP1 SWAP3 ADD SLOAD PUSH1 0xFF DUP1 DUP4 AND SWAP4 PUSH2 0x100 SWAP1 SWAP4 DIV AND SWAP2 SWAP1 DUP5 JUMP JUMPDEST PUSH1 0x40 DUP1 MLOAD SWAP5 ISZERO ISZERO DUP6 MSTORE SWAP3 ISZERO ISZERO PUSH1 0x20 DUP6 ADD MSTORE SWAP2 DUP4 ADD MSTORE PUSH1 0x60 DUP3 ADD MSTORE PUSH1 0x80 ADD PUSH2 0x228 JUMP JUMPDEST CALLVALUE DUP1 ISZERO PUSH2 0x4B2 JUMPI PUSH1 0x0 DUP1 REVERT JUMPDEST POP PUSH1 0xA SLOAD PUSH2 0x214 SWAP1 PUSH1 0x1 PUSH1 0x1 PUSH1 0xA0 SHL SUB AND DUP2 JUMP JUMPDEST CALLVALUE DUP1 ISZERO PUSH2 0x4D2 JUMPI PUSH1 0x0 DUP1 REVERT JUMPDEST POP PUSH2 0x4E6 PUSH2 0x4E1 CALLDATASIZE PUSH1 0x4 PUSH2 0x1C83 JUMP JUMPDEST PUSH2 0x1138 JUMP JUMPDEST PUSH1 0x40 MLOAD PUSH2 0x228 SWAP13 SWAP12 SWAP11 SWAP10 SWAP9 SWAP8 SWAP7 SWAP6 SWAP5 SWAP4 SWAP3 SWAP2 SWAP1 PUSH2 0x2045 JUMP JUMPDEST CALLVALUE DUP1 ISZERO PUSH2 0x50A JUMPI PUSH1 0x0 DUP1 REVERT JUMPDEST POP PUSH2 0x343 PUSH8 0x16345785D8A0000 DUP2 JUMP JUMPDEST CALLVALUE DUP1 ISZERO PUSH2 0x526 JUMPI PUSH1 0x0 DUP1 REVERT JUMPDEST POP PUSH2 0x53A PUSH2 0x535 CALLDATASIZE PUSH1 0x4 PUSH2 0x2019 JUMP JUMPDEST PUSH2 0x1253 JUMP JUMPDEST PUSH1 0x40 MLOAD PUSH2 0x228 SWAP2 SWAP1 DUP2 MLOAD ISZERO ISZERO DUP2 MSTORE PUSH1 0x20 DUP1 DUP4 ADD MLOAD ISZERO ISZERO SWAP1 DUP3 ADD MSTORE PUSH1 0x40 DUP1 DUP4 ADD MLOAD SWAP1 DUP3 ADD MSTORE PUSH1 0x60 SWAP2 DUP3 ADD MLOAD SWAP2 DUP2 ADD SWAP2 SWAP1 SWAP2 MSTORE PUSH1 0x80 ADD SWAP1 JUMP JUMPDEST CALLVALUE DUP1 ISZERO PUSH2 0x57D JUMPI PUSH1 0x0 DUP1 REVERT JUMPDEST POP PUSH2 0x343 PUSH1 0x3 DUP2 JUMP JUMPDEST CALLVALUE DUP1 ISZERO PUSH2 0x592 JUMPI PUSH1 0x0 DUP1 REVERT JUMPDEST POP PUSH2 0x343 PUSH2 0x5A1 CALLDATASIZE PUSH1 0x4 PUSH2 0x1C83 JUMP JUMPDEST PUSH1 0x6 PUSH1 0x20 MSTORE PUSH1 0x0 SWAP1 DUP2 MSTORE PUSH1 0x40 SWAP1 KECCAK256 SLOAD DUP2 JUMP JUMPDEST CALLVALUE DUP1 ISZERO PUSH2 0x5BF JUMPI PUSH1 0x0 DUP1 REVERT JUMPDEST POP PUSH2 0x343 PUSH2 0x2710 DUP2 JUMP JUMPDEST CALLVALUE DUP1 ISZERO PUSH2 0x5D5 JUMPI PUSH1 0x0 DUP1 REVERT JUMPDEST POP PUSH2 0x1F2 PUSH2 0x5E4 CALLDATASIZE PUSH1 0x4 PUSH2 0x1C68 JUMP JUMPDEST PUSH2 0x12D4 JUMP JUMPDEST PUSH2 0x1F2 PUSH2 0x5F7 CALLDATASIZE PUSH1 0x4 PUSH2 0x1C83 JUMP JUMPDEST PUSH2 0x130F JUMP JUMPDEST CALLVALUE DUP1 ISZERO PUSH2 0x608 JUMPI PUSH1 0x0 DUP1 REVERT JUMPDEST POP PUSH2 0x343 PUSH2 0x12C DUP2 JUMP JUMPDEST CALLVALUE DUP1 ISZERO PUSH2 0x61E JUMPI PUSH1 0x0 DUP1 REVERT JUMPDEST POP PUSH2 0x343 PUSH2 0x3E8 DUP2 JUMP JUMPDEST PUSH2 0x630 PUSH2 0x1516 JUMP JUMPDEST PUSH1 0x1 PUSH1 0x1 PUSH1 0xA0 SHL SUB DUP2 AND PUSH2 0x667 JUMPI PUSH1 0x40 MLOAD PUSH4 0x47264553 PUSH1 0xE1 SHL DUP2 MSTORE PUSH1 0x1 PUSH1 0x1 PUSH1 0xA0 SHL SUB DUP3 AND PUSH1 0x4 DUP3 ADD MSTORE PUSH1 0x24 ADD JUMPDEST PUSH1 0x40 MLOAD DUP1 SWAP2 SUB SWAP1 REVERT JUMPDEST PUSH1 0xA DUP1 SLOAD PUSH1 0x1 PUSH1 0x1 PUSH1 0xA0 SHL SUB NOT AND PUSH1 0x1 PUSH1 0x1 PUSH1 0xA0 SHL SUB SWAP3 SWAP1 SWAP3 AND SWAP2 SWAP1 SWAP2 OR SWAP1 SSTORE JUMP JUMPDEST PUSH2 0x691 PUSH2 0x1516 JUMP JUMPDEST PUSH1 0x1 PUSH1 0x1 PUSH1 0xA0 SHL SUB DUP2 AND PUSH2 0x6C3 JUMPI PUSH1 0x40 MLOAD PUSH4 0x47264553 PUSH1 0xE1 SHL DUP2 MSTORE PUSH1 0x1 PUSH1 0x1 PUSH1 0xA0 SHL SUB DUP3 AND PUSH1 0x4 DUP3 ADD MSTORE PUSH1 0x24 ADD PUSH2 0x65E JUMP JUMPDEST PUSH1 0x7 DUP1 SLOAD PUSH1 0x1 PUSH1 0x1 PUSH1 0xA0 SHL SUB NOT AND PUSH1 0x1 PUSH1 0x1 PUSH1 0xA0 SHL SUB SWAP3 SWAP1 SWAP3 AND SWAP2 SWAP1 SWAP2 OR SWAP1 SSTORE JUMP JUMPDEST PUSH2 0x6ED PUSH2 0x1516 JUMP JUMPDEST PUSH1 0x1 PUSH1 0x1 PUSH1 0xA0 SHL SUB DUP2 AND PUSH2 0x71F JUMPI PUSH1 0x40 MLOAD PUSH4 0x47264553 PUSH1 0xE1 SHL DUP2 MSTORE PUSH1 0x1 PUSH1 0x1 PUSH1 0xA0 SHL SUB DUP3 AND PUSH1 0x4 DUP3 ADD MSTORE PUSH1 0x24 ADD PUSH2 0x65E JUMP JUMPDEST PUSH1 0x9 DUP1 SLOAD PUSH1 0x1 PUSH1 0x1 PUSH1 0xA0 SHL SUB NOT AND PUSH1 0x1 PUSH1 0x1 PUSH1 0xA0 SHL SUB SWAP3 SWAP1 SWAP3 AND SWAP2 SWAP1 SWAP2 OR SWAP1 SSTORE JUMP JUMPDEST PUSH1 0x0 DUP2 DUP2 MSTORE PUSH1 0x3 PUSH1 0x20 DUP2 DUP2 MSTORE PUSH1 0x40 DUP1 DUP5 KECCAK256 DUP2 MLOAD PUSH2 0x180 DUP2 ADD DUP4 MSTORE DUP2 SLOAD DUP2 MSTORE PUSH1 0x1 DUP3 ADD SLOAD SWAP4 DUP2 ADD SWAP4 SWAP1 SWAP4 MSTORE PUSH1 0x2 DUP2 ADD SLOAD PUSH1 0x1 PUSH1 0x1 PUSH1 0xA0 SHL SUB AND SWAP2 DUP4 ADD SWAP2 SWAP1 SWAP2 MSTORE SWAP2 DUP3 ADD DUP1 SLOAD DUP5 SWAP4 SWAP2 PUSH1 0x60 DUP5 ADD SWAP2 PUSH2 0x796 SWAP1 PUSH2 0x20E5 JUMP JUMPDEST DUP1 PUSH1 0x1F ADD PUSH1 0x20 DUP1 SWAP2 DIV MUL PUSH1 0x20 ADD PUSH1 0x40 MLOAD SWAP1 DUP2 ADD PUSH1 0x40 MSTORE DUP1 SWAP3 SWAP2 SWAP1 DUP2 DUP2 MSTORE PUSH1 0x20 ADD DUP3 DUP1 SLOAD PUSH2 0x7C2 SWAP1 PUSH2 0x20E5 JUMP JUMPDEST DUP1 ISZERO PUSH2 0x80F JUMPI DUP1 PUSH1 0x1F LT PUSH2 0x7E4 JUMPI PUSH2 0x100 DUP1 DUP4 SLOAD DIV MUL DUP4 MSTORE SWAP2 PUSH1 0x20 ADD SWAP2 PUSH2 0x80F JUMP JUMPDEST DUP3 ADD SWAP2 SWAP1 PUSH1 0x0 MSTORE PUSH1 0x20 PUSH1 0x0 KECCAK256 SWAP1 JUMPDEST DUP2 SLOAD DUP2 MSTORE SWAP1 PUSH1 0x1 ADD SWAP1 PUSH1 0x20 ADD DUP1 DUP4 GT PUSH2 0x7F2 JUMPI DUP3 SWAP1 SUB PUSH1 0x1F AND DUP3 ADD SWAP2 JUMPDEST POP POP POP SWAP2 DUP4 MSTORE POP POP PUSH1 0x4 DUP3 ADD SLOAD PUSH1 0x20 DUP1 DUP4 ADD SWAP2 SWAP1 SWAP2 MSTORE PUSH1 0x40 DUP1 MLOAD PUSH1 0x60 DUP1 DUP3 ADD DUP4 MSTORE PUSH1 0x5 DUP7 ADD SLOAD DUP3 MSTORE PUSH1 0x6 DUP7 ADD SLOAD SWAP4 DUP3 ADD SWAP4 SWAP1 SWAP4 MSTORE PUSH1 0x7 DUP6 ADD SLOAD DUP2 DUP4 ADD MSTORE SWAP1 DUP4 ADD MSTORE PUSH1 0x8 DUP4 ADD SLOAD SWAP2 ADD SWAP1 PUSH1 0xFF AND PUSH1 0x3 DUP2 GT ISZERO PUSH2 0x86C JUMPI PUSH2 0x86C PUSH2 0x1CE2 JUMP JUMPDEST PUSH1 0x3 DUP2 GT ISZERO PUSH2 0x87D JUMPI PUSH2 0x87D PUSH2 0x1CE2 JUMP JUMPDEST DUP2 MSTORE PUSH1 0x9 DUP3 ADD SLOAD PUSH1 0x20 DUP3 ADD MSTORE PUSH1 0xA DUP3 ADD SLOAD PUSH1 0x40 DUP3 ADD MSTORE PUSH1 0xB DUP3 ADD SLOAD PUSH1 0x60 DUP3 ADD MSTORE PUSH1 0xC DUP3 ADD SLOAD PUSH1 0x80 DUP3 ADD MSTORE PUSH1 0xD SWAP1 SWAP2 ADD SLOAD PUSH1 0xFF AND ISZERO ISZERO PUSH1 0xA0 SWAP1 SWAP2 ADD MSTORE SWAP1 POP PUSH1 0x1 DUP2 PUSH1 0xC0 ADD MLOAD PUSH1 0x3 DUP2 GT ISZERO PUSH2 0x8D2 JUMPI PUSH2 0x8D2 PUSH2 0x1CE2 JUMP JUMPDEST EQ DUP1 PUSH2 0x8F3 JUMPI POP PUSH1 0x2 DUP2 PUSH1 0xC0 ADD MLOAD PUSH1 0x3 DUP2 GT ISZERO PUSH2 0x8F1 JUMPI PUSH2 0x8F1 PUSH2 0x1CE2 JUMP JUMPDEST EQ JUMPDEST SWAP4 SWAP3 POP POP POP JUMP JUMPDEST PUSH2 0x902 PUSH2 0x1BBE JUMP JUMPDEST PUSH1 0x0 DUP3 DUP2 MSTORE PUSH1 0x3 PUSH1 0x20 DUP2 DUP2 MSTORE PUSH1 0x40 SWAP3 DUP4 SWAP1 KECCAK256 DUP4 MLOAD PUSH2 0x180 DUP2 ADD DUP6 MSTORE DUP2 SLOAD DUP2 MSTORE PUSH1 0x1 DUP3 ADD SLOAD SWAP3 DUP2 ADD SWAP3 SWAP1 SWAP3 MSTORE PUSH1 0x2 DUP2 ADD SLOAD PUSH1 0x1 PUSH1 0x1 PUSH1 0xA0 SHL SUB AND SWAP4 DUP3 ADD SWAP4 SWAP1 SWAP4 MSTORE SWAP1 DUP3 ADD DUP1 SLOAD SWAP2 SWAP3 SWAP2 PUSH1 0x60 DUP5 ADD SWAP2 SWAP1 PUSH2 0x959 SWAP1 PUSH2 0x20E5 JUMP JUMPDEST DUP1 PUSH1 0x1F ADD PUSH1 0x20 DUP1 SWAP2 DIV MUL PUSH1 0x20 ADD PUSH1 0x40 MLOAD SWAP1 DUP2 ADD PUSH1 0x40 MSTORE DUP1 SWAP3 SWAP2 SWAP1 DUP2 DUP2 MSTORE PUSH1 0x20 ADD DUP3 DUP1 SLOAD PUSH2 0x985 SWAP1 PUSH2 0x20E5 JUMP JUMPDEST DUP1 ISZERO PUSH2 0x9D2 JUMPI DUP1 PUSH1 0x1F LT PUSH2 0x9A7 JUMPI PUSH2 0x100 DUP1 DUP4 SLOAD DIV MUL DUP4 MSTORE SWAP2 PUSH1 0x20 ADD SWAP2 PUSH2 0x9D2 JUMP JUMPDEST DUP3 ADD SWAP2 SWAP1 PUSH1 0x0 MSTORE PUSH1 0x20 PUSH1 0x0 KECCAK256 SWAP1 JUMPDEST DUP2 SLOAD DUP2 MSTORE SWAP1 PUSH1 0x1 ADD SWAP1 PUSH1 0x20 ADD DUP1 DUP4 GT PUSH2 0x9B5 JUMPI DUP3 SWAP1 SUB PUSH1 0x1F AND DUP3 ADD SWAP2 JUMPDEST POP POP POP SWAP2 DUP4 MSTORE POP POP PUSH1 0x4 DUP3 ADD SLOAD PUSH1 0x20 DUP1 DUP4 ADD SWAP2 SWAP1 SWAP2 MSTORE PUSH1 0x40 DUP1 MLOAD PUSH1 0x60 DUP1 DUP3 ADD DUP4 MSTORE PUSH1 0x5 DUP7 ADD SLOAD DUP3 MSTORE PUSH1 0x6 DUP7 ADD SLOAD SWAP4 DUP3 ADD SWAP4 SWAP1 SWAP4 MSTORE PUSH1 0x7 DUP6 ADD SLOAD DUP2 DUP4 ADD MSTORE SWAP1 DUP4 ADD MSTORE PUSH1 0x8 DUP4 ADD SLOAD SWAP2 ADD SWAP1 PUSH1 0xFF AND PUSH1 0x3 DUP2 GT ISZERO PUSH2 0xA2F JUMPI PUSH2 0xA2F PUSH2 0x1CE2 JUMP JUMPDEST PUSH1 0x3 DUP2 GT ISZERO PUSH2 0xA40 JUMPI PUSH2 0xA40 PUSH2 0x1CE2 JUMP JUMPDEST DUP2 MSTORE PUSH1 0x9 DUP3 ADD SLOAD PUSH1 0x20 DUP3 ADD MSTORE PUSH1 0xA DUP3 ADD SLOAD PUSH1 0x40 DUP3 ADD MSTORE PUSH1 0xB DUP3 ADD SLOAD PUSH1 0x60 DUP3 ADD MSTORE PUSH1 0xC DUP3 ADD SLOAD PUSH1 0x80 DUP3 ADD MSTORE PUSH1 0xD SWAP1 SWAP2 ADD SLOAD PUSH1 0xFF AND ISZERO ISZERO PUSH1 0xA0 SWAP1 SWAP2 ADD MSTORE SWAP3 SWAP2 POP POP JUMP JUMPDEST PUSH2 0xA89 PUSH2 0x1543 JUMP JUMPDEST PUSH1 0x0 DUP2 DUP2 MSTORE PUSH1 0x3 PUSH1 0x20 MSTORE PUSH1 0x40 SWAP1 KECCAK256 DUP1 SLOAD DUP3 EQ PUSH2 0xABB JUMPI PUSH1 0x40 MLOAD PUSH4 0x11BE9677 PUSH1 0xE0 SHL DUP2 MSTORE PUSH1 0x4 DUP2 ADD DUP4 SWAP1 MSTORE PUSH1 0x24 ADD PUSH2 0x65E JUMP JUMPDEST PUSH1 0x1 PUSH1 0x8 DUP3 ADD SLOAD PUSH1 0xFF AND PUSH1 0x3 DUP2 GT ISZERO PUSH2 0xAD6 JUMPI PUSH2 0xAD6 PUSH2 0x1CE2 JUMP JUMPDEST EQ ISZERO DUP1 ISZERO PUSH2 0xAFD JUMPI POP PUSH1 0x2 PUSH1 0x8 DUP3 ADD SLOAD PUSH1 0xFF AND PUSH1 0x3 DUP2 GT ISZERO PUSH2 0xAFA JUMPI PUSH2 0xAFA PUSH2 0x1CE2 JUMP JUMPDEST EQ ISZERO JUMPDEST ISZERO PUSH2 0xB1E JUMPI PUSH1 0x40 MLOAD PUSH4 0x15610A9D PUSH1 0xE3 SHL DUP2 MSTORE PUSH1 0x4 DUP2 ADD DUP4 SWAP1 MSTORE PUSH1 0x24 ADD PUSH2 0x65E JUMP JUMPDEST PUSH1 0xD DUP2 ADD SLOAD PUSH1 0xFF AND ISZERO PUSH2 0xB47 JUMPI PUSH1 0x40 MLOAD PUSH4 0x7B608BE7 PUSH1 0xE0 SHL DUP2 MSTORE PUSH1 0x4 DUP2 ADD DUP4 SWAP1 MSTORE PUSH1 0x24 ADD PUSH2 0x65E JUMP JUMPDEST PUSH1 0x0 DUP3 DUP2 MSTORE PUSH1 0x6 PUSH1 0x20 MSTORE PUSH1 0x40 DUP2 KECCAK256 SLOAD PUSH2 0xB60 SWAP1 TIMESTAMP PUSH2 0x2135 JUMP JUMPDEST SWAP1 POP PUSH2 0x12C DUP2 LT ISZERO PUSH2 0xB9B JUMPI DUP3 PUSH2 0xB79 DUP3 PUSH2 0x12C PUSH2 0x2135 JUMP JUMPDEST PUSH1 0x40 MLOAD PUSH4 0x5874CCEF PUSH1 0xE1 SHL DUP2 MSTORE PUSH1 0x4 DUP2 ADD SWAP3 SWAP1 SWAP3 MSTORE PUSH1 0x24 DUP3 ADD MSTORE PUSH1 0x44 ADD PUSH2 0x65E JUMP JUMPDEST PUSH1 0xD DUP3 ADD DUP1 SLOAD PUSH1 0xFF NOT AND PUSH1 0x1 SWAP1 DUP2 OR SWAP1 SWAP2 SSTORE PUSH1 0x8 DUP4 ADD SLOAD PUSH1 0xFF AND PUSH1 0x3 DUP2 GT ISZERO PUSH2 0xBC6 JUMPI PUSH2 0xBC6 PUSH2 0x1CE2 JUMP JUMPDEST EQ DUP1 ISZERO PUSH2 0xBDD JUMPI POP PUSH1 0x7 SLOAD PUSH1 0x1 PUSH1 0x1 PUSH1 0xA0 SHL SUB AND ISZERO ISZERO JUMPDEST ISZERO PUSH2 0xCA9 JUMPI PUSH1 0x7 SLOAD PUSH1 0x1 DUP4 ADD SLOAD PUSH1 0x2 DUP5 ADD SLOAD PUSH1 0xC DUP6 ADD SLOAD PUSH1 0x40 MLOAD PUSH4 0xF8F46457 PUSH1 0xE0 SHL DUP2 MSTORE PUSH1 0x4 DUP2 ADD SWAP4 SWAP1 SWAP4 MSTORE PUSH1 0x1 PUSH1 0x1 PUSH1 0xA0 SHL SUB SWAP2 DUP3 AND PUSH1 0x24 DUP5 ADD MSTORE PUSH1 0x44 DUP4 ADD MSTORE SWAP1 SWAP2 AND SWAP1 PUSH4 0xF8F46457 SWAP1 PUSH1 0x64 ADD PUSH1 0x0 PUSH1 0x40 MLOAD DUP1 DUP4 SUB DUP2 PUSH1 0x0 DUP8 DUP1 EXTCODESIZE ISZERO DUP1 ISZERO PUSH2 0xC45 JUMPI PUSH1 0x0 DUP1 REVERT JUMPDEST POP GAS CALL ISZERO DUP1 ISZERO PUSH2 0xC59 JUMPI RETURNDATASIZE PUSH1 0x0 DUP1 RETURNDATACOPY RETURNDATASIZE PUSH1 0x0 REVERT JUMPDEST POP POP POP POP PUSH1 0x2 DUP3 ADD SLOAD PUSH1 0xC DUP4 ADD SLOAD PUSH1 0x40 MLOAD SWAP1 DUP2 MSTORE PUSH1 0x1 PUSH1 0x1 PUSH1 0xA0 SHL SUB SWAP1 SWAP2 AND SWAP1 DUP5 SWAP1 PUSH32 0xAB7542BAFCED3DA2D8C881CB2DD1DE859FAC7C20D3650D2902AD389A64E08883 SWAP1 PUSH1 0x20 ADD PUSH1 0x40 MLOAD DUP1 SWAP2 SUB SWAP1 LOG3 JUMPDEST PUSH2 0xCB2 DUP4 PUSH2 0x156D JUMP JUMPDEST POP POP PUSH2 0xCBD PUSH1 0x1 DUP1 SSTORE JUMP JUMPDEST POP JUMP JUMPDEST PUSH2 0xCC8 PUSH2 0x1543 JUMP JUMPDEST PUSH1 0x0 DUP4 DUP2 MSTORE PUSH1 0x3 PUSH1 0x20 SWAP1 DUP2 MSTORE PUSH1 0x40 DUP1 DUP4 KECCAK256 PUSH1 0x4 DUP4 MSTORE DUP2 DUP5 KECCAK256 CALLER DUP6 MSTORE SWAP1 SWAP3 MSTORE SWAP1 SWAP2 KECCAK256 DUP2 SLOAD DUP6 EQ PUSH2 0xD0D JUMPI PUSH1 0x40 MLOAD PUSH4 0x11BE9677 PUSH1 0xE0 SHL DUP2 MSTORE PUSH1 0x4 DUP2 ADD DUP7 SWAP1 MSTORE PUSH1 0x24 ADD PUSH2 0x65E JUMP JUMPDEST DUP1 PUSH1 0x2 ADD SLOAD PUSH1 0x0 SUB PUSH2 0xD43 JUMPI PUSH1 0x40 MLOAD PUSH4 0x22DF0513 PUSH1 0xE1 SHL DUP2 MSTORE PUSH1 0x0 PUSH1 0x4 DUP3 ADD MSTORE PUSH8 0x16345785D8A0000 PUSH1 0x24 DUP3 ADD MSTORE PUSH1 0x44 ADD PUSH2 0x65E JUMP JUMPDEST DUP1 SLOAD PUSH1 0xFF AND ISZERO PUSH2 0xD6F JUMPI PUSH1 0x40 MLOAD PUSH4 0x1BDD6E59 PUSH1 0xE1 SHL DUP2 MSTORE CALLER PUSH1 0x4 DUP3 ADD MSTORE PUSH1 0x24 DUP2 ADD DUP7 SWAP1 MSTORE PUSH1 0x44 ADD PUSH2 0x65E JUMP JUMPDEST DUP1 SLOAD PUSH1 0x1 PUSH2 0xFFFF NOT SWAP1 SWAP2 AND PUSH2 0x100 DUP7 ISZERO ISZERO MUL OR DUP2 OR DUP3 SSTORE TIMESTAMP SWAP1 DUP3 ADD SSTORE PUSH1 0xB DUP3 ADD DUP1 SLOAD SWAP1 PUSH1 0x0 PUSH2 0xD9D DUP4 PUSH2 0x2148 JUMP JUMPDEST SWAP2 SWAP1 POP SSTORE POP DUP4 ISZERO PUSH2 0xDC4 JUMPI PUSH1 0x9 DUP3 ADD DUP1 SLOAD SWAP1 PUSH1 0x0 PUSH2 0xDBA DUP4 PUSH2 0x2148 JUMP JUMPDEST SWAP2 SWAP1 POP SSTORE POP PUSH2 0xDDC JUMP JUMPDEST PUSH1 0xA DUP3 ADD DUP1 SLOAD SWAP1 PUSH1 0x0 PUSH2 0xDD6 DUP4 PUSH2 0x2148 JUMP JUMPDEST SWAP2 SWAP1 POP SSTORE POP JUMPDEST PUSH1 0x40 MLOAD DUP5 ISZERO ISZERO DUP2 MSTORE CALLER SWAP1 DUP7 SWAP1 PUSH32 0x7AE256270C354F1F830C52697713782CE51539E910D41781CBB063A49C42C0F9 SWAP1 PUSH1 0x20 ADD PUSH1 0x40 MLOAD DUP1 SWAP2 SUB SWAP1 LOG3 PUSH2 0xE1E DUP6 PUSH2 0x18B6 JUMP JUMPDEST POP POP PUSH2 0xE29 PUSH1 0x1 DUP1 SSTORE JUMP JUMPDEST POP POP POP JUMP JUMPDEST PUSH2 0xE36 PUSH2 0x1516 JUMP JUMPDEST PUSH2 0xE40 PUSH1 0x0 PUSH2 0x1B6E JUMP JUMPDEST JUMP JUMPDEST PUSH1 0x5 PUSH1 0x20 MSTORE DUP2 PUSH1 0x0 MSTORE PUSH1 0x40 PUSH1 0x0 KECCAK256 DUP2 DUP2 SLOAD DUP2 LT PUSH2 0xE5E JUMPI PUSH1 0x0 DUP1 REVERT JUMPDEST PUSH1 0x0 SWAP2 DUP3 MSTORE PUSH1 0x20 SWAP1 SWAP2 KECCAK256 ADD SLOAD PUSH1 0x1 PUSH1 0x1 PUSH1 0xA0 SHL SUB AND SWAP2 POP DUP3 SWAP1 POP JUMP JUMPDEST PUSH1 0x0 DUP2 DUP2 MSTORE PUSH1 0x5 PUSH1 0x20 SWAP1 DUP2 MSTORE PUSH1 0x40 SWAP2 DUP3 SWAP1 KECCAK256 DUP1 SLOAD DUP4 MLOAD DUP2 DUP5 MUL DUP2 ADD DUP5 ADD SWAP1 SWAP5 MSTORE DUP1 DUP5 MSTORE PUSH1 0x60 SWAP4 SWAP3 DUP4 ADD DUP3 DUP3 DUP1 ISZERO PUSH2 0xEDA JUMPI PUSH1 0x20 MUL DUP3 ADD SWAP2 SWAP1 PUSH1 0x0 MSTORE PUSH1 0x20 PUSH1 0x0 KECCAK256 SWAP1 JUMPDEST DUP2 SLOAD PUSH1 0x1 PUSH1 0x1 PUSH1 0xA0 SHL SUB AND DUP2 MSTORE PUSH1 0x1 SWAP1 SWAP2 ADD SWAP1 PUSH1 0x20 ADD DUP1 DUP4 GT PUSH2 0xEBC JUMPI JUMPDEST POP POP POP POP POP SWAP1 POP SWAP2 SWAP1 POP JUMP JUMPDEST PUSH1 0x9 SLOAD PUSH1 0x0 SWAP1 PUSH1 0x1 PUSH1 0x1 PUSH1 0xA0 SHL SUB AND CALLER EQ PUSH2 0xF16 JUMPI PUSH1 0x40 MLOAD PUSH4 0xD86AD9CF PUSH1 0xE0 SHL DUP2 MSTORE CALLER PUSH1 0x4 DUP3 ADD MSTORE PUSH1 0x24 ADD PUSH2 0x65E JUMP JUMPDEST PUSH1 0x2 DUP1 SLOAD PUSH1 0x0 SWAP2 DUP3 PUSH2 0xF27 DUP4 PUSH2 0x2148 JUMP JUMPDEST SWAP2 SWAP1 POP SSTORE SWAP1 POP PUSH1 0x40 MLOAD DUP1 PUSH2 0x180 ADD PUSH1 0x40 MSTORE DUP1 DUP3 DUP2 MSTORE PUSH1 0x20 ADD DUP9 DUP2 MSTORE PUSH1 0x20 ADD DUP8 PUSH1 0x1 PUSH1 0x1 PUSH1 0xA0 SHL SUB AND DUP2 MSTORE PUSH1 0x20 ADD DUP7 DUP2 MSTORE PUSH1 0x20 ADD TIMESTAMP DUP2 MSTORE PUSH1 0x20 ADD DUP6 DUP2 MSTORE PUSH1 0x20 ADD PUSH1 0x0 PUSH1 0x3 DUP2 GT ISZERO PUSH2 0xF79 JUMPI PUSH2 0xF79 PUSH2 0x1CE2 JUMP JUMPDEST DUP2 MSTORE PUSH1 0x0 PUSH1 0x20 DUP1 DUP4 ADD DUP3 SWAP1 MSTORE PUSH1 0x40 DUP1 DUP5 ADD DUP4 SWAP1 MSTORE PUSH1 0x60 DUP1 DUP6 ADD DUP5 SWAP1 MSTORE PUSH1 0x80 DUP6 ADD DUP10 SWAP1 MSTORE PUSH1 0xA0 SWAP1 SWAP5 ADD DUP4 SWAP1 MSTORE DUP6 DUP4 MSTORE PUSH1 0x3 DUP1 DUP4 MSTORE SWAP3 DUP2 SWAP1 KECCAK256 DUP6 MLOAD DUP2 SSTORE SWAP2 DUP6 ADD MLOAD PUSH1 0x1 DUP4 ADD SSTORE DUP5 ADD MLOAD PUSH1 0x2 DUP3 ADD DUP1 SLOAD PUSH1 0x1 PUSH1 0x1 PUSH1 0xA0 SHL SUB NOT AND PUSH1 0x1 PUSH1 0x1 PUSH1 0xA0 SHL SUB SWAP1 SWAP3 AND SWAP2 SWAP1 SWAP2 OR SWAP1 SSTORE SWAP2 DUP4 ADD MLOAD SWAP1 DUP3 ADD SWAP1 PUSH2 0xFF3 SWAP1 DUP3 PUSH2 0x21A7 JUMP JUMPDEST POP PUSH1 0x80 DUP3 ADD MLOAD PUSH1 0x4 DUP3 ADD SSTORE PUSH1 0xA0 DUP3 ADD MLOAD DUP1 MLOAD PUSH1 0x5 DUP4 ADD SSTORE PUSH1 0x20 DUP2 ADD MLOAD PUSH1 0x6 DUP4 ADD SSTORE PUSH1 0x40 ADD MLOAD PUSH1 0x7 DUP3 ADD SSTORE PUSH1 0xC0 DUP3 ADD MLOAD PUSH1 0x8 DUP3 ADD DUP1 SLOAD PUSH1 0xFF NOT AND PUSH1 0x1 DUP4 PUSH1 0x3 DUP2 GT ISZERO PUSH2 0x1040 JUMPI PUSH2 0x1040 PUSH2 0x1CE2 JUMP JUMPDEST MUL OR SWAP1 SSTORE POP PUSH1 0xE0 DUP3 ADD MLOAD PUSH1 0x9 DUP3 ADD SSTORE PUSH2 0x100 DUP3 ADD MLOAD PUSH1 0xA DUP3 ADD SSTORE PUSH2 0x120 DUP3 ADD MLOAD PUSH1 0xB DUP3 ADD SSTORE PUSH2 0x140 DUP3 ADD MLOAD PUSH1 0xC DUP3 ADD SSTORE PUSH2 0x160 SWAP1 SWAP2 ADD MLOAD PUSH1 0xD SWAP1 SWAP2 ADD DUP1 SLOAD PUSH1 0xFF NOT AND SWAP2 ISZERO ISZERO SWAP2 SWAP1 SWAP2 OR SWAP1 SSTORE PUSH1 0x40 MLOAD PUSH1 0x1 PUSH1 0x1 PUSH1 0xA0 SHL SUB DUP8 AND SWAP1 DUP9 SWAP1 DUP4 SWAP1 PUSH32 0x9D9EC53E54F6385EC09428208C029BD27EB96263FC7B5DA62DB98ECC7D3F015C SWAP1 PUSH2 0x10CA SWAP1 DUP11 SWAP1 PUSH2 0x2267 JUMP JUMPDEST PUSH1 0x40 MLOAD DUP1 SWAP2 SUB SWAP1 LOG4 SWAP7 SWAP6 POP POP POP POP POP POP JUMP JUMPDEST PUSH2 0x10E4 PUSH2 0x1516 JUMP JUMPDEST PUSH1 0x1 PUSH1 0x1 PUSH1 0xA0 SHL SUB DUP2 AND PUSH2 0x1116 JUMPI PUSH1 0x40 MLOAD PUSH4 0x47264553 PUSH1 0xE1 SHL DUP2 MSTORE PUSH1 0x1 PUSH1 0x1 PUSH1 0xA0 SHL SUB DUP3 AND PUSH1 0x4 DUP3 ADD MSTORE PUSH1 0x24 ADD PUSH2 0x65E JUMP JUMPDEST PUSH1 0x8 DUP1 SLOAD PUSH1 0x1 PUSH1 0x1 PUSH1 0xA0 SHL SUB NOT AND PUSH1 0x1 PUSH1 0x1 PUSH1 0xA0 SHL SUB SWAP3 SWAP1 SWAP3 AND SWAP2 SWAP1 SWAP2 OR SWAP1 SSTORE JUMP JUMPDEST PUSH1 0x3 PUSH1 0x20 DUP2 SWAP1 MSTORE PUSH1 0x0 SWAP2 DUP3 MSTORE PUSH1 0x40 SWAP1 SWAP2 KECCAK256 DUP1 SLOAD PUSH1 0x1 DUP3 ADD SLOAD PUSH1 0x2 DUP4 ADD SLOAD SWAP4 DUP4 ADD DUP1 SLOAD SWAP3 SWAP5 SWAP2 SWAP4 PUSH1 0x1 PUSH1 0x1 PUSH1 0xA0 SHL SUB SWAP1 SWAP3 AND SWAP3 PUSH2 0x1173 SWAP1 PUSH2 0x20E5 JUMP JUMPDEST DUP1 PUSH1 0x1F ADD PUSH1 0x20 DUP1 SWAP2 DIV MUL PUSH1 0x20 ADD PUSH1 0x40 MLOAD SWAP1 DUP2 ADD PUSH1 0x40 MSTORE DUP1 SWAP3 SWAP2 SWAP1 DUP2 DUP2 MSTORE PUSH1 0x20 ADD DUP3 DUP1 SLOAD PUSH2 0x119F SWAP1 PUSH2 0x20E5 JUMP JUMPDEST DUP1 ISZERO PUSH2 0x11EC JUMPI DUP1 PUSH1 0x1F LT PUSH2 0x11C1 JUMPI PUSH2 0x100 DUP1 DUP4 SLOAD DIV MUL DUP4 MSTORE SWAP2 PUSH1 0x20 ADD SWAP2 PUSH2 0x11EC JUMP JUMPDEST DUP3 ADD SWAP2 SWAP1 PUSH1 0x0 MSTORE PUSH1 0x20 PUSH1 0x0 KECCAK256 SWAP1 JUMPDEST DUP2 SLOAD DUP2 MSTORE SWAP1 PUSH1 0x1 ADD SWAP1 PUSH1 0x20 ADD DUP1 DUP4 GT PUSH2 0x11CF JUMPI DUP3 SWAP1 SUB PUSH1 0x1F AND DUP3 ADD SWAP2 JUMPDEST POP POP POP POP PUSH1 0x4 DUP4 ADD SLOAD PUSH1 0x40 DUP1 MLOAD PUSH1 0x60 DUP2 ADD DUP3 MSTORE PUSH1 0x5 DUP7 ADD SLOAD DUP2 MSTORE PUSH1 0x6 DUP7 ADD SLOAD PUSH1 0x20 DUP3 ADD MSTORE PUSH1 0x7 DUP7 ADD SLOAD SWAP2 DUP2 ADD SWAP2 SWAP1 SWAP2 MSTORE PUSH1 0x8 DUP6 ADD SLOAD PUSH1 0x9 DUP7 ADD SLOAD PUSH1 0xA DUP8 ADD SLOAD PUSH1 0xB DUP9 ADD SLOAD PUSH1 0xC DUP10 ADD SLOAD PUSH1 0xD SWAP1 SWAP10 ADD SLOAD SWAP8 SWAP9 SWAP6 SWAP8 SWAP5 SWAP7 POP PUSH1 0xFF SWAP4 DUP5 AND SWAP6 SWAP3 SWAP5 SWAP2 SWAP4 SWAP1 SWAP3 SWAP2 AND DUP13 JUMP JUMPDEST PUSH1 0x40 DUP1 MLOAD PUSH1 0x80 DUP1 DUP3 ADD DUP4 MSTORE PUSH1 0x0 DUP1 DUP4 MSTORE PUSH1 0x20 DUP1 DUP5 ADD DUP3 SWAP1 MSTORE DUP4 DUP6 ADD DUP3 SWAP1 MSTORE PUSH1 0x60 SWAP4 DUP5 ADD DUP3 SWAP1 MSTORE DUP7 DUP3 MSTORE PUSH1 0x4 DUP2 MSTORE DUP5 DUP3 KECCAK256 PUSH1 0x1 PUSH1 0x1 PUSH1 0xA0 SHL SUB DUP8 AND DUP4 MSTORE DUP2 MSTORE SWAP1 DUP5 SWAP1 KECCAK256 DUP5 MLOAD SWAP3 DUP4 ADD DUP6 MSTORE DUP1 SLOAD PUSH1 0xFF DUP1 DUP3 AND ISZERO ISZERO DUP6 MSTORE PUSH2 0x100 SWAP1 SWAP2 DIV AND ISZERO ISZERO SWAP2 DUP4 ADD SWAP2 SWAP1 SWAP2 MSTORE PUSH1 0x1 DUP2 ADD SLOAD SWAP4 DUP3 ADD SWAP4 SWAP1 SWAP4 MSTORE PUSH1 0x2 SWAP1 SWAP3 ADD SLOAD SWAP1 DUP3 ADD MSTORE JUMPDEST SWAP3 SWAP2 POP POP JUMP JUMPDEST PUSH2 0x12DC PUSH2 0x1516 JUMP JUMPDEST PUSH1 0x1 PUSH1 0x1 PUSH1 0xA0 SHL SUB DUP2 AND PUSH2 0x1306 JUMPI PUSH1 0x40 MLOAD PUSH4 0x1E4FBDF7 PUSH1 0xE0 SHL DUP2 MSTORE PUSH1 0x0 PUSH1 0x4 DUP3 ADD MSTORE PUSH1 0x24 ADD PUSH2 0x65E JUMP JUMPDEST PUSH2 0xCBD DUP2 PUSH2 0x1B6E JUMP JUMPDEST PUSH2 0x1317 PUSH2 0x1543 JUMP JUMPDEST PUSH1 0x0 DUP2 DUP2 MSTORE PUSH1 0x3 PUSH1 0x20 MSTORE PUSH1 0x40 SWAP1 KECCAK256 DUP1 SLOAD DUP3 EQ PUSH2 0x1349 JUMPI PUSH1 0x40 MLOAD PUSH4 0x11BE9677 PUSH1 0xE0 SHL DUP2 MSTORE PUSH1 0x4 DUP2 ADD DUP4 SWAP1 MSTORE PUSH1 0x24 ADD PUSH2 0x65E JUMP JUMPDEST PUSH1 0x0 PUSH1 0x8 DUP3 ADD SLOAD PUSH1 0xFF AND PUSH1 0x3 DUP2 GT ISZERO PUSH2 0x1364 JUMPI PUSH2 0x1364 PUSH2 0x1CE2 JUMP JUMPDEST EQ ISZERO DUP1 ISZERO PUSH2 0x138B JUMPI POP PUSH1 0x3 PUSH1 0x8 DUP3 ADD SLOAD PUSH1 0xFF AND PUSH1 0x3 DUP2 GT ISZERO PUSH2 0x1388 JUMPI PUSH2 0x1388 PUSH2 0x1CE2 JUMP JUMPDEST EQ ISZERO JUMPDEST ISZERO PUSH2 0x13AB JUMPI PUSH1 0x40 MLOAD PUSH3 0x5A2F69 PUSH1 0xE9 SHL DUP2 MSTORE PUSH1 0x4 DUP2 ADD DUP4 SWAP1 MSTORE PUSH1 0x24 ADD PUSH2 0x65E JUMP JUMPDEST PUSH1 0x0 DUP3 DUP2 MSTORE PUSH1 0x4 PUSH1 0x20 SWAP1 DUP2 MSTORE PUSH1 0x40 DUP1 DUP4 KECCAK256 CALLER DUP5 MSTORE SWAP1 SWAP2 MSTORE SWAP1 KECCAK256 SLOAD PUSH1 0xFF AND ISZERO PUSH2 0x13EF JUMPI PUSH1 0x40 MLOAD PUSH4 0x1BDD6E59 PUSH1 0xE1 SHL DUP2 MSTORE CALLER PUSH1 0x4 DUP3 ADD MSTORE PUSH1 0x24 DUP2 ADD DUP4 SWAP1 MSTORE PUSH1 0x44 ADD PUSH2 0x65E JUMP JUMPDEST PUSH1 0x0 DUP3 DUP2 MSTORE PUSH1 0x5 PUSH1 0x20 MSTORE PUSH1 0x40 SWAP1 KECCAK256 SLOAD PUSH1 0x7 GT PUSH2 0x1421 JUMPI PUSH1 0x40 MLOAD PUSH4 0x7C168363 PUSH1 0xE1 SHL DUP2 MSTORE PUSH1 0x4 DUP2 ADD DUP4 SWAP1 MSTORE PUSH1 0x24 ADD PUSH2 0x65E JUMP JUMPDEST PUSH1 0x2 DUP2 ADD SLOAD PUSH1 0x1 PUSH1 0x1 PUSH1 0xA0 SHL SUB AND CALLER SUB PUSH2 0x1450 JUMPI PUSH1 0x40 MLOAD PUSH4 0x28AA55F3 PUSH1 0xE1 SHL DUP2 MSTORE CALLER PUSH1 0x4 DUP3 ADD MSTORE PUSH1 0x24 ADD PUSH2 0x65E JUMP JUMPDEST PUSH8 0x16345785D8A0000 CALLVALUE LT ISZERO PUSH2 0x1489 JUMPI PUSH1 0x40 MLOAD PUSH4 0x22DF0513 PUSH1 0xE1 SHL DUP2 MSTORE CALLVALUE PUSH1 0x4 DUP3 ADD MSTORE PUSH8 0x16345785D8A0000 PUSH1 0x24 DUP3 ADD MSTORE PUSH1 0x44 ADD PUSH2 0x65E JUMP JUMPDEST PUSH1 0x0 DUP3 DUP2 MSTORE PUSH1 0x4 PUSH1 0x20 SWAP1 DUP2 MSTORE PUSH1 0x40 DUP1 DUP4 KECCAK256 CALLER DUP1 DUP6 MSTORE SWAP1 DUP4 MSTORE DUP2 DUP5 KECCAK256 CALLVALUE PUSH1 0x2 SWAP1 SWAP2 ADD DUP2 SWAP1 SSTORE DUP7 DUP6 MSTORE PUSH1 0x5 DUP5 MSTORE DUP3 DUP6 KECCAK256 DUP1 SLOAD PUSH1 0x1 DUP2 ADD DUP3 SSTORE SWAP1 DUP7 MSTORE SWAP5 DUP5 SWAP1 KECCAK256 SWAP1 SWAP5 ADD DUP1 SLOAD PUSH1 0x1 PUSH1 0x1 PUSH1 0xA0 SHL SUB NOT AND DUP3 OR SWAP1 SSTORE SWAP1 MLOAD SWAP3 DUP4 MSTORE SWAP2 DUP5 SWAP2 PUSH32 0x1CB6731E751AF9A263790C7ED7A6B5E9AA62E45A3618C7BDBFC7994FF32FCCE3 SWAP2 ADD PUSH1 0x40 MLOAD DUP1 SWAP2 SUB SWAP1 LOG3 POP PUSH2 0xCBD PUSH1 0x1 DUP1 SSTORE JUMP JUMPDEST PUSH1 0x0 SLOAD PUSH1 0x1 PUSH1 0x1 PUSH1 0xA0 SHL SUB AND CALLER EQ PUSH2 0xE40 JUMPI PUSH1 0x40 MLOAD PUSH4 0x118CDAA7 PUSH1 0xE0 SHL DUP2 MSTORE CALLER PUSH1 0x4 DUP3 ADD MSTORE PUSH1 0x24 ADD PUSH2 0x65E JUMP JUMPDEST PUSH1 0x2 PUSH1 0x1 SLOAD SUB PUSH2 0x1566 JUMPI PUSH1 0x40 MLOAD PUSH4 0x3EE5AEB5 PUSH1 0xE0 SHL DUP2 MSTORE PUSH1 0x4 ADD PUSH1 0x40 MLOAD DUP1 SWAP2 SUB SWAP1 REVERT JUMPDEST PUSH1 0x2 PUSH1 0x1 SSTORE JUMP JUMPDEST PUSH1 0x0 DUP2 DUP2 MSTORE PUSH1 0x3 PUSH1 0x20 SWAP1 DUP2 MSTORE PUSH1 0x40 DUP1 DUP4 KECCAK256 PUSH1 0x5 DUP4 MSTORE DUP2 DUP5 KECCAK256 DUP1 SLOAD DUP4 MLOAD DUP2 DUP7 MUL DUP2 ADD DUP7 ADD SWAP1 SWAP5 MSTORE DUP1 DUP5 MSTORE SWAP2 SWAP5 SWAP4 SWAP1 SWAP2 SWAP1 DUP4 ADD DUP3 DUP3 DUP1 ISZERO PUSH2 0x15D5 JUMPI PUSH1 0x20 MUL DUP3 ADD SWAP2 SWAP1 PUSH1 0x0 MSTORE PUSH1 0x20 PUSH1 0x0 KECCAK256 SWAP1 JUMPDEST DUP2 SLOAD PUSH1 0x1 PUSH1 0x1 PUSH1 0xA0 SHL SUB AND DUP2 MSTORE PUSH1 0x1 SWAP1 SWAP2 ADD SWAP1 PUSH1 0x20 ADD DUP1 DUP4 GT PUSH2 0x15B7 JUMPI JUMPDEST POP POP POP POP POP SWAP1 POP PUSH1 0x0 DUP1 PUSH1 0x1 PUSH1 0x3 DUP2 GT ISZERO PUSH2 0x15F2 JUMPI PUSH2 0x15F2 PUSH2 0x1CE2 JUMP JUMPDEST PUSH1 0x8 DUP6 ADD SLOAD PUSH1 0xFF AND PUSH1 0x3 DUP2 GT ISZERO PUSH2 0x160B JUMPI PUSH2 0x160B PUSH2 0x1CE2 JUMP JUMPDEST EQ SWAP1 POP PUSH1 0x0 JUMPDEST DUP4 MLOAD DUP2 LT ISZERO PUSH2 0x1874 JUMPI PUSH1 0x0 DUP5 DUP3 DUP2 MLOAD DUP2 LT PUSH2 0x162E JUMPI PUSH2 0x162E PUSH2 0x227A JUMP JUMPDEST PUSH1 0x20 SWAP1 DUP2 MUL SWAP2 SWAP1 SWAP2 ADD DUP2 ADD MLOAD PUSH1 0x0 DUP10 DUP2 MSTORE PUSH1 0x4 DUP4 MSTORE PUSH1 0x40 DUP1 DUP3 KECCAK256 PUSH1 0x1 PUSH1 0x1 PUSH1 0xA0 SHL SUB DUP5 AND DUP4 MSTORE SWAP1 SWAP4 MSTORE SWAP2 SWAP1 SWAP2 KECCAK256 DUP1 SLOAD SWAP2 SWAP3 POP SWAP1 PUSH1 0xFF AND PUSH2 0x166F JUMPI POP POP PUSH2 0x1862 JUMP JUMPDEST DUP1 SLOAD PUSH1 0xFF PUSH2 0x100 SWAP1 SWAP2 DIV AND ISZERO ISZERO DUP5 ISZERO ISZERO EQ DUP1 ISZERO PUSH2 0x17E6 JUMPI PUSH1 0x0 PUSH2 0x2710 PUSH2 0x3E8 DUP5 PUSH1 0x2 ADD SLOAD PUSH2 0x169D SWAP2 SWAP1 PUSH2 0x2290 JUMP JUMPDEST PUSH2 0x16A7 SWAP2 SWAP1 PUSH2 0x22A7 JUMP JUMPDEST DUP4 PUSH1 0x2 ADD SLOAD PUSH2 0x16B6 SWAP2 SWAP1 PUSH2 0x22C9 JUMP JUMPDEST SWAP1 POP PUSH2 0x16C2 DUP2 DUP9 PUSH2 0x22C9 JUMP JUMPDEST SWAP7 POP PUSH1 0x0 DUP5 PUSH1 0x1 PUSH1 0x1 PUSH1 0xA0 SHL SUB AND DUP3 PUSH1 0x40 MLOAD PUSH1 0x0 PUSH1 0x40 MLOAD DUP1 DUP4 SUB DUP2 DUP6 DUP8 GAS CALL SWAP3 POP POP POP RETURNDATASIZE DUP1 PUSH1 0x0 DUP2 EQ PUSH2 0x1711 JUMPI PUSH1 0x40 MLOAD SWAP2 POP PUSH1 0x1F NOT PUSH1 0x3F RETURNDATASIZE ADD AND DUP3 ADD PUSH1 0x40 MSTORE RETURNDATASIZE DUP3 MSTORE RETURNDATASIZE PUSH1 0x0 PUSH1 0x20 DUP5 ADD RETURNDATACOPY PUSH2 0x1716 JUMP JUMPDEST PUSH1 0x60 SWAP2 POP JUMPDEST POP POP SWAP1 POP DUP1 PUSH2 0x1767 JUMPI PUSH1 0x40 MLOAD PUSH3 0x461BCD PUSH1 0xE5 SHL DUP2 MSTORE PUSH1 0x20 PUSH1 0x4 DUP3 ADD MSTORE PUSH1 0x1F PUSH1 0x24 DUP3 ADD MSTORE PUSH32 0x566572696669657220726577617264207472616E73666572206661696C656400 PUSH1 0x44 DUP3 ADD MSTORE PUSH1 0x64 ADD PUSH2 0x65E JUMP JUMPDEST PUSH1 0x8 SLOAD PUSH1 0x1 PUSH1 0x1 PUSH1 0xA0 SHL SUB AND ISZERO PUSH2 0x17DF JUMPI PUSH1 0x8 SLOAD PUSH1 0x40 MLOAD PUSH4 0x420C843 PUSH1 0xE4 SHL DUP2 MSTORE PUSH1 0x1 PUSH1 0x1 PUSH1 0xA0 SHL SUB DUP8 DUP2 AND PUSH1 0x4 DUP4 ADD MSTORE PUSH1 0x1 PUSH1 0x24 DUP4 ADD MSTORE SWAP1 SWAP2 AND SWAP1 PUSH4 0x420C8430 SWAP1 PUSH1 0x44 ADD PUSH1 0x0 PUSH1 0x40 MLOAD DUP1 DUP4 SUB DUP2 PUSH1 0x0 DUP8 DUP1 EXTCODESIZE ISZERO DUP1 ISZERO PUSH2 0x17C6 JUMPI PUSH1 0x0 DUP1 REVERT JUMPDEST POP GAS CALL ISZERO DUP1 ISZERO PUSH2 0x17DA JUMPI RETURNDATASIZE PUSH1 0x0 DUP1 RETURNDATACOPY RETURNDATASIZE PUSH1 0x0 REVERT JUMPDEST POP POP POP POP JUMPDEST POP POP PUSH2 0x185E JUMP JUMPDEST PUSH1 0x8 SLOAD PUSH1 0x1 PUSH1 0x1 PUSH1 0xA0 SHL SUB AND ISZERO PUSH2 0x185E JUMPI PUSH1 0x8 SLOAD PUSH1 0x40 MLOAD PUSH4 0x420C843 PUSH1 0xE4 SHL DUP2 MSTORE PUSH1 0x1 PUSH1 0x1 PUSH1 0xA0 SHL SUB DUP6 DUP2 AND PUSH1 0x4 DUP4 ADD MSTORE PUSH1 0x0 PUSH1 0x24 DUP4 ADD MSTORE SWAP1 SWAP2 AND SWAP1 PUSH4 0x420C8430 SWAP1 PUSH1 0x44 ADD PUSH1 0x0 PUSH1 0x40 MLOAD DUP1 DUP4 SUB DUP2 PUSH1 0x0 DUP8 DUP1 EXTCODESIZE ISZERO DUP1 ISZERO PUSH2 0x1845 JUMPI PUSH1 0x0 DUP1 REVERT JUMPDEST POP GAS CALL ISZERO DUP1 ISZERO PUSH2 0x1859 JUMPI RETURNDATASIZE PUSH1 0x0 DUP1 RETURNDATACOPY RETURNDATASIZE PUSH1 0x0 REVERT JUMPDEST POP POP POP POP JUMPDEST POP POP POP JUMPDEST DUP1 PUSH2 0x186C DUP2 PUSH2 0x2148 JUMP JUMPDEST SWAP2 POP POP PUSH2 0x1611 JUMP JUMPDEST POP DUP5 PUSH32 0x1261FC60EFBC713A45AB737027CF0074A591CD295A66A6D4BC8FCDBB723884A7 DUP4 PUSH1 0x40 MLOAD PUSH2 0x18A7 SWAP2 DUP2 MSTORE PUSH1 0x20 ADD SWAP1 JUMP JUMPDEST PUSH1 0x40 MLOAD DUP1 SWAP2 SUB SWAP1 LOG2 POP POP POP POP POP JUMP JUMPDEST PUSH1 0x0 DUP2 DUP2 MSTORE PUSH1 0x3 PUSH1 0x20 DUP2 SWAP1 MSTORE PUSH1 0x40 SWAP1 SWAP2 KECCAK256 PUSH1 0x9 DUP2 ADD SLOAD SWAP1 SWAP2 GT PUSH2 0x19B2 JUMPI PUSH1 0x8 DUP2 ADD DUP1 SLOAD PUSH1 0xFF NOT AND PUSH1 0x1 SWAP1 DUP2 OR SWAP1 SWAP2 SSTORE PUSH1 0x0 DUP4 DUP2 MSTORE PUSH1 0x6 PUSH1 0x20 MSTORE PUSH1 0x40 SWAP1 DUP2 SWAP1 KECCAK256 TIMESTAMP SWAP1 DUP2 SWAP1 SSTORE SWAP1 MLOAD DUP5 SWAP3 PUSH32 0xD7830F7C957A68CBA7FCBAEBB353384E5D4A2F633FF00A04A3ED57F34DDB896A SWAP3 PUSH2 0x1929 SWAP3 PUSH2 0x22DC JUMP JUMPDEST PUSH1 0x40 MLOAD DUP1 SWAP2 SUB SWAP1 LOG2 PUSH1 0x8 SLOAD PUSH1 0x1 PUSH1 0x1 PUSH1 0xA0 SHL SUB AND ISZERO PUSH2 0x19AE JUMPI PUSH1 0x8 SLOAD PUSH1 0x2 DUP3 ADD SLOAD PUSH1 0x40 MLOAD PUSH4 0x686745C3 PUSH1 0xE0 SHL DUP2 MSTORE PUSH1 0x1 PUSH1 0x1 PUSH1 0xA0 SHL SUB SWAP2 DUP3 AND PUSH1 0x4 DUP3 ADD MSTORE PUSH1 0x1 PUSH1 0x24 DUP3 ADD MSTORE SWAP2 AND SWAP1 PUSH4 0x686745C3 SWAP1 PUSH1 0x44 ADD JUMPDEST PUSH1 0x0 PUSH1 0x40 MLOAD DUP1 DUP4 SUB DUP2 PUSH1 0x0 DUP8 DUP1 EXTCODESIZE ISZERO DUP1 ISZERO PUSH2 0x1995 JUMPI PUSH1 0x0 DUP1 REVERT JUMPDEST POP GAS CALL ISZERO DUP1 ISZERO PUSH2 0x19A9 JUMPI RETURNDATASIZE PUSH1 0x0 DUP1 RETURNDATACOPY RETURNDATASIZE PUSH1 0x0 REVERT JUMPDEST POP POP POP POP JUMPDEST POP POP JUMP JUMPDEST PUSH1 0x3 DUP2 PUSH1 0xA ADD SLOAD LT PUSH2 0x1B15 JUMPI PUSH1 0x8 DUP2 ADD DUP1 SLOAD PUSH1 0xFF NOT AND PUSH1 0x2 SWAP1 DUP2 OR SWAP1 SWAP2 SSTORE PUSH1 0x0 DUP4 DUP2 MSTORE PUSH1 0x6 PUSH1 0x20 MSTORE PUSH1 0x40 SWAP1 DUP2 SWAP1 KECCAK256 TIMESTAMP SWAP1 DUP2 SWAP1 SSTORE SWAP1 MLOAD DUP5 SWAP3 PUSH32 0xD7830F7C957A68CBA7FCBAEBB353384E5D4A2F633FF00A04A3ED57F34DDB896A SWAP3 PUSH2 0x1A14 SWAP3 PUSH2 0x22DC JUMP JUMPDEST PUSH1 0x40 MLOAD DUP1 SWAP2 SUB SWAP1 LOG2 PUSH1 0x8 SLOAD PUSH1 0x1 PUSH1 0x1 PUSH1 0xA0 SHL SUB AND ISZERO PUSH2 0x1A98 JUMPI PUSH1 0x8 SLOAD PUSH1 0x2 DUP3 ADD SLOAD PUSH1 0x40 MLOAD PUSH4 0x686745C3 PUSH1 0xE0 SHL DUP2 MSTORE PUSH1 0x1 PUSH1 0x1 PUSH1 0xA0 SHL SUB SWAP2 DUP3 AND PUSH1 0x4 DUP3 ADD MSTORE PUSH1 0x0 PUSH1 0x24 DUP3 ADD MSTORE SWAP2 AND SWAP1 PUSH4 0x686745C3 SWAP1 PUSH1 0x44 ADD PUSH1 0x0 PUSH1 0x40 MLOAD DUP1 DUP4 SUB DUP2 PUSH1 0x0 DUP8 DUP1 EXTCODESIZE ISZERO DUP1 ISZERO PUSH2 0x1A7F JUMPI PUSH1 0x0 DUP1 REVERT JUMPDEST POP GAS CALL ISZERO DUP1 ISZERO PUSH2 0x1A93 JUMPI RETURNDATASIZE PUSH1 0x0 DUP1 RETURNDATACOPY RETURNDATASIZE PUSH1 0x0 REVERT JUMPDEST POP POP POP POP JUMPDEST PUSH1 0xA SLOAD PUSH1 0x1 PUSH1 0x1 PUSH1 0xA0 SHL SUB AND ISZERO PUSH2 0x19AE JUMPI PUSH1 0xA SLOAD PUSH1 0x2 DUP3 ADD SLOAD PUSH1 0x40 DUP1 MLOAD PUSH4 0x7A236549 PUSH1 0xE0 SHL DUP2 MSTORE PUSH1 0x1 PUSH1 0x1 PUSH1 0xA0 SHL SUB SWAP3 DUP4 AND PUSH1 0x4 DUP3 ADD MSTORE PUSH1 0x24 DUP2 ADD SWAP2 SWAP1 SWAP2 MSTORE PUSH1 0x20 PUSH1 0x44 DUP3 ADD MSTORE PUSH32 0x5375626D697373696F6E2072656A656374656420627920636F6E73656E737573 PUSH1 0x64 DUP3 ADD MSTORE SWAP2 AND SWAP1 PUSH4 0x7A236549 SWAP1 PUSH1 0x84 ADD PUSH2 0x197B JUMP JUMPDEST PUSH1 0x7 DUP2 PUSH1 0xB ADD SLOAD LT PUSH2 0x19AE JUMPI PUSH1 0x8 DUP2 ADD DUP1 SLOAD PUSH1 0xFF NOT AND PUSH1 0x3 OR SWAP1 SSTORE PUSH1 0xB DUP2 ADD SLOAD PUSH1 0x40 MLOAD SWAP1 DUP2 MSTORE DUP3 SWAP1 PUSH32 0x366E7DD2CAB048EAFF199CB82B06661733696643E03B462E0B2635552275ED14 SWAP1 PUSH1 0x20 ADD PUSH1 0x40 MLOAD DUP1 SWAP2 SUB SWAP1 LOG2 POP POP JUMP JUMPDEST PUSH1 0x0 DUP1 SLOAD PUSH1 0x1 PUSH1 0x1 PUSH1 0xA0 SHL SUB DUP4 DUP2 AND PUSH1 0x1 PUSH1 0x1 PUSH1 0xA0 SHL SUB NOT DUP4 AND DUP2 OR DUP5 SSTORE PUSH1 0x40 MLOAD SWAP2 SWAP1 SWAP3 AND SWAP3 DUP4 SWAP2 PUSH32 0x8BE0079C531659141344CD1FD0A4F28419497F9722A3DAAFE3B4186F6B6457E0 SWAP2 SWAP1 LOG3 POP POP JUMP JUMPDEST PUSH1 0x40 MLOAD DUP1 PUSH2 0x180 ADD PUSH1 0x40 MSTORE DUP1 PUSH1 0x0 DUP2 MSTORE PUSH1 0x20 ADD PUSH1 0x0 DUP2 MSTORE PUSH1 0x20 ADD PUSH1 0x0 PUSH1 0x1 PUSH1 0x1 PUSH1 0xA0 SHL SUB AND DUP2 MSTORE PUSH1 0x20 ADD PUSH1 0x60 DUP2 MSTORE PUSH1 0x20 ADD PUSH1 0x0 DUP2 MSTORE PUSH1 0x20 ADD PUSH2 0x1C1A PUSH1 0x40 MLOAD DUP1 PUSH1 0x60 ADD PUSH1 0x40 MSTORE DUP1 PUSH1 0x0 DUP2 MSTORE PUSH1 0x20 ADD PUSH1 0x0 DUP2 MSTORE PUSH1 0x20 ADD PUSH1 0x0 DUP2 MSTORE POP SWAP1 JUMP JUMPDEST DUP2 MSTORE PUSH1 0x20 ADD PUSH1 0x0 DUP2 MSTORE PUSH1 0x20 ADD PUSH1 0x0 DUP2 MSTORE PUSH1 0x20 ADD PUSH1 0x0 DUP2 MSTORE PUSH1 0x20 ADD PUSH1 0x0 DUP2 MSTORE PUSH1 0x20 ADD PUSH1 0x0 DUP2 MSTORE PUSH1 0x20 ADD PUSH1 0x0 ISZERO ISZERO DUP2 MSTORE POP SWAP1 JUMP JUMPDEST DUP1 CALLDATALOAD PUSH1 0x1 PUSH1 0x1 PUSH1 0xA0 SHL SUB DUP2 AND DUP2 EQ PUSH2 0x1C63 JUMPI PUSH1 0x0 DUP1 REVERT JUMPDEST SWAP2 SWAP1 POP JUMP JUMPDEST PUSH1 0x0 PUSH1 0x20 DUP3 DUP5 SUB SLT ISZERO PUSH2 0x1C7A JUMPI PUSH1 0x0 DUP1 REVERT JUMPDEST PUSH2 0x8F3 DUP3 PUSH2 0x1C4C JUMP JUMPDEST PUSH1 0x0 PUSH1 0x20 DUP3 DUP5 SUB SLT ISZERO PUSH2 0x1C95 JUMPI PUSH1 0x0 DUP1 REVERT JUMPDEST POP CALLDATALOAD SWAP2 SWAP1 POP JUMP JUMPDEST PUSH1 0x0 DUP2 MLOAD DUP1 DUP5 MSTORE PUSH1 0x0 JUMPDEST DUP2 DUP2 LT ISZERO PUSH2 0x1CC2 JUMPI PUSH1 0x20 DUP2 DUP6 ADD DUP2 ADD MLOAD DUP7 DUP4 ADD DUP3 ADD MSTORE ADD PUSH2 0x1CA6 JUMP JUMPDEST POP PUSH1 0x0 PUSH1 0x20 DUP3 DUP7 ADD ADD MSTORE PUSH1 0x20 PUSH1 0x1F NOT PUSH1 0x1F DUP4 ADD AND DUP6 ADD ADD SWAP2 POP POP SWAP3 SWAP2 POP POP JUMP JUMPDEST PUSH4 0x4E487B71 PUSH1 0xE0 SHL PUSH1 0x0 MSTORE PUSH1 0x21 PUSH1 0x4 MSTORE PUSH1 0x24 PUSH1 0x0 REVERT JUMPDEST PUSH1 0x4 DUP2 LT PUSH2 0x1D16 JUMPI PUSH4 0x4E487B71 PUSH1 0xE0 SHL PUSH1 0x0 MSTORE PUSH1 0x21 PUSH1 0x4 MSTORE PUSH1 0x24 PUSH1 0x0 REVERT JUMPDEST SWAP1 MSTORE JUMP JUMPDEST PUSH1 0x20 DUP2 MSTORE DUP2 MLOAD PUSH1 0x20 DUP3 ADD MSTORE PUSH1 0x20 DUP3 ADD MLOAD PUSH1 0x40 DUP3 ADD MSTORE PUSH1 0x0 PUSH1 0x40 DUP4 ADD MLOAD PUSH2 0x1D4B PUSH1 0x60 DUP5 ADD DUP3 PUSH1 0x1 PUSH1 0x1 PUSH1 0xA0 SHL SUB AND SWAP1 MSTORE JUMP JUMPDEST POP PUSH1 0x60 DUP4 ADD MLOAD PUSH2 0x1C0 DUP1 PUSH1 0x80 DUP6 ADD MSTORE PUSH2 0x1D68 PUSH2 0x1E0 DUP6 ADD DUP4 PUSH2 0x1C9C JUMP JUMPDEST SWAP2 POP PUSH1 0x80 DUP6 ADD MLOAD PUSH1 0xA0 DUP6 ADD MSTORE PUSH1 0xA0 DUP6 ADD MLOAD PUSH2 0x1D9A PUSH1 0xC0 DUP7 ADD DUP3 DUP1 MLOAD DUP3 MSTORE PUSH1 0x20 DUP1 DUP3 ADD MLOAD SWAP1 DUP4 ADD MSTORE PUSH1 0x40 SWAP1 DUP2 ADD MLOAD SWAP2 ADD MSTORE JUMP JUMPDEST POP PUSH1 0xC0 DUP6 ADD MLOAD PUSH2 0x120 PUSH2 0x1DAF DUP2 DUP8 ADD DUP4 PUSH2 0x1CF8 JUMP JUMPDEST PUSH1 0xE0 DUP8 ADD MLOAD PUSH2 0x140 DUP8 DUP2 ADD SWAP2 SWAP1 SWAP2 MSTORE PUSH2 0x100 DUP9 ADD MLOAD PUSH2 0x160 DUP1 DUP10 ADD SWAP2 SWAP1 SWAP2 MSTORE SWAP2 DUP9 ADD MLOAD PUSH2 0x180 DUP9 ADD MSTORE DUP8 ADD MLOAD PUSH2 0x1A0 DUP8 ADD MSTORE SWAP1 SWAP6 ADD MLOAD ISZERO ISZERO SWAP4 ADD SWAP3 SWAP1 SWAP3 MSTORE POP SWAP2 SWAP1 POP JUMP JUMPDEST PUSH4 0x4E487B71 PUSH1 0xE0 SHL PUSH1 0x0 MSTORE PUSH1 0x41 PUSH1 0x4 MSTORE PUSH1 0x24 PUSH1 0x0 REVERT JUMPDEST PUSH1 0x0 DUP3 PUSH1 0x1F DUP4 ADD SLT PUSH2 0x1E1A JUMPI PUSH1 0x0 DUP1 REVERT JUMPDEST DUP2 CALLDATALOAD PUSH8 0xFFFFFFFFFFFFFFFF DUP1 DUP3 GT ISZERO PUSH2 0x1E35 JUMPI PUSH2 0x1E35 PUSH2 0x1DF3 JUMP JUMPDEST PUSH1 0x40 MLOAD PUSH1 0x1F DUP4 ADD PUSH1 0x1F NOT SWAP1 DUP2 AND PUSH1 0x3F ADD AND DUP2 ADD SWAP1 DUP3 DUP3 GT DUP2 DUP4 LT OR ISZERO PUSH2 0x1E5D JUMPI PUSH2 0x1E5D PUSH2 0x1DF3 JUMP JUMPDEST DUP2 PUSH1 0x40 MSTORE DUP4 DUP2 MSTORE DUP7 PUSH1 0x20 DUP6 DUP9 ADD ADD GT ISZERO PUSH2 0x1E76 JUMPI PUSH1 0x0 DUP1 REVERT JUMPDEST DUP4 PUSH1 0x20 DUP8 ADD PUSH1 0x20 DUP4 ADD CALLDATACOPY PUSH1 0x0 PUSH1 0x20 DUP6 DUP4 ADD ADD MSTORE DUP1 SWAP5 POP POP POP POP POP SWAP3 SWAP2 POP POP JUMP JUMPDEST PUSH1 0x0 DUP1 PUSH1 0x0 PUSH1 0x60 DUP5 DUP7 SUB SLT ISZERO PUSH2 0x1EAB JUMPI PUSH1 0x0 DUP1 REVERT JUMPDEST DUP4 CALLDATALOAD SWAP3 POP PUSH1 0x20 DUP5 ADD CALLDATALOAD DUP1 ISZERO ISZERO DUP2 EQ PUSH2 0x1EC2 JUMPI PUSH1 0x0 DUP1 REVERT JUMPDEST SWAP2 POP PUSH1 0x40 DUP5 ADD CALLDATALOAD PUSH8 0xFFFFFFFFFFFFFFFF DUP2 GT ISZERO PUSH2 0x1EDE JUMPI PUSH1 0x0 DUP1 REVERT JUMPDEST PUSH2 0x1EEA DUP7 DUP3 DUP8 ADD PUSH2 0x1E09 JUMP JUMPDEST SWAP2 POP POP SWAP3 POP SWAP3 POP SWAP3 JUMP JUMPDEST PUSH1 0x0 DUP1 PUSH1 0x40 DUP4 DUP6 SUB SLT ISZERO PUSH2 0x1F07 JUMPI PUSH1 0x0 DUP1 REVERT JUMPDEST POP POP DUP1 CALLDATALOAD SWAP3 PUSH1 0x20 SWAP1 SWAP2 ADD CALLDATALOAD SWAP2 POP JUMP JUMPDEST PUSH1 0x20 DUP1 DUP3 MSTORE DUP3 MLOAD DUP3 DUP3 ADD DUP2 SWAP1 MSTORE PUSH1 0x0 SWAP2 SWAP1 DUP5 DUP3 ADD SWAP1 PUSH1 0x40 DUP6 ADD SWAP1 DUP5 JUMPDEST DUP2 DUP2 LT ISZERO PUSH2 0x1F57 JUMPI DUP4 MLOAD PUSH1 0x1 PUSH1 0x1 PUSH1 0xA0 SHL SUB AND DUP4 MSTORE SWAP3 DUP5 ADD SWAP3 SWAP2 DUP5 ADD SWAP2 PUSH1 0x1 ADD PUSH2 0x1F32 JUMP JUMPDEST POP SWAP1 SWAP7 SWAP6 POP POP POP POP POP POP JUMP JUMPDEST PUSH1 0x0 DUP1 PUSH1 0x0 DUP1 PUSH1 0x0 DUP6 DUP8 SUB PUSH1 0xE0 DUP2 SLT ISZERO PUSH2 0x1F7C JUMPI PUSH1 0x0 DUP1 REVERT JUMPDEST DUP7 CALLDATALOAD SWAP6 POP PUSH2 0x1F8C PUSH1 0x20 DUP9 ADD PUSH2 0x1C4C JUMP JUMPDEST SWAP5 POP PUSH1 0x40 DUP8 ADD CALLDATALOAD PUSH8 0xFFFFFFFFFFFFFFFF DUP1 DUP3 GT ISZERO PUSH2 0x1FA9 JUMPI PUSH1 0x0 DUP1 REVERT JUMPDEST PUSH2 0x1FB5 DUP11 DUP4 DUP12 ADD PUSH2 0x1E09 JUMP JUMPDEST SWAP6 POP PUSH1 0x60 PUSH1 0x5F NOT DUP5 ADD SLT ISZERO PUSH2 0x1FC9 JUMPI PUSH1 0x0 DUP1 REVERT JUMPDEST PUSH1 0x40 MLOAD SWAP3 POP PUSH1 0x60 DUP4 ADD SWAP2 POP DUP3 DUP3 LT DUP2 DUP4 GT OR ISZERO PUSH2 0x1FE8 JUMPI PUSH2 0x1FE8 PUSH2 0x1DF3 JUMP JUMPDEST POP PUSH1 0x40 SWAP1 DUP2 MSTORE PUSH1 0x60 DUP9 ADD CALLDATALOAD DUP3 MSTORE PUSH1 0x80 DUP9 ADD CALLDATALOAD PUSH1 0x20 DUP4 ADD MSTORE PUSH1 0xA0 DUP9 ADD CALLDATALOAD SWAP1 DUP3 ADD MSTORE SWAP5 SWAP8 SWAP4 SWAP7 POP SWAP2 SWAP5 PUSH1 0xC0 ADD CALLDATALOAD SWAP3 SWAP2 POP POP JUMP JUMPDEST PUSH1 0x0 DUP1 PUSH1 0x40 DUP4 DUP6 SUB SLT ISZERO PUSH2 0x202C JUMPI PUSH1 0x0 DUP1 REVERT JUMPDEST DUP3 CALLDATALOAD SWAP2 POP PUSH2 0x203C PUSH1 0x20 DUP5 ADD PUSH2 0x1C4C JUMP JUMPDEST SWAP1 POP SWAP3 POP SWAP3 SWAP1 POP JUMP JUMPDEST DUP13 DUP2 MSTORE PUSH1 0x20 DUP2 ADD DUP13 SWAP1 MSTORE PUSH1 0x1 PUSH1 0x1 PUSH1 0xA0 SHL SUB DUP12 AND PUSH1 0x40 DUP3 ADD MSTORE PUSH2 0x1C0 PUSH1 0x60 DUP3 ADD DUP2 SWAP1 MSTORE PUSH1 0x0 SWAP1 PUSH2 0x2077 DUP4 DUP3 ADD DUP14 PUSH2 0x1C9C JUMP JUMPDEST PUSH1 0x80 DUP5 ADD DUP13 SWAP1 MSTORE DUP11 MLOAD PUSH1 0xA0 DUP6 ADD MSTORE PUSH1 0x20 DUP12 ADD MLOAD PUSH1 0xC0 DUP6 ADD MSTORE PUSH1 0x40 DUP12 ADD MLOAD PUSH1 0xE0 DUP6 ADD MSTORE SWAP2 POP PUSH2 0x20A2 SWAP1 POP JUMP JUMPDEST PUSH2 0x20B0 PUSH2 0x100 DUP4 ADD DUP10 PUSH2 0x1CF8 JUMP JUMPDEST PUSH2 0x120 DUP3 ADD SWAP7 SWAP1 SWAP7 MSTORE PUSH2 0x140 DUP2 ADD SWAP5 SWAP1 SWAP5 MSTORE PUSH2 0x160 DUP5 ADD SWAP3 SWAP1 SWAP3 MSTORE PUSH2 0x180 DUP4 ADD MSTORE ISZERO ISZERO PUSH2 0x1A0 SWAP1 SWAP2 ADD MSTORE SWAP8 SWAP7 POP POP POP POP POP POP POP JUMP JUMPDEST PUSH1 0x1 DUP2 DUP2 SHR SWAP1 DUP3 AND DUP1 PUSH2 0x20F9 JUMPI PUSH1 0x7F DUP3 AND SWAP2 POP JUMPDEST PUSH1 0x20 DUP3 LT DUP2 SUB PUSH2 0x2119 JUMPI PUSH4 0x4E487B71 PUSH1 0xE0 SHL PUSH1 0x0 MSTORE PUSH1 0x22 PUSH1 0x4 MSTORE PUSH1 0x24 PUSH1 0x0 REVERT JUMPDEST POP SWAP2 SWAP1 POP JUMP JUMPDEST PUSH4 0x4E487B71 PUSH1 0xE0 SHL PUSH1 0x0 MSTORE PUSH1 0x11 PUSH1 0x4 MSTORE PUSH1 0x24 PUSH1 0x0 REVERT JUMPDEST DUP2 DUP2 SUB DUP2 DUP2 GT ISZERO PUSH2 0x12CE JUMPI PUSH2 0x12CE PUSH2 0x211F JUMP JUMPDEST PUSH1 0x0 PUSH1 0x1 DUP3 ADD PUSH2 0x215A JUMPI PUSH2 0x215A PUSH2 0x211F JUMP JUMPDEST POP PUSH1 0x1 ADD SWAP1 JUMP JUMPDEST PUSH1 0x1F DUP3 GT ISZERO PUSH2 0xE29 JUMPI PUSH1 0x0 DUP2 DUP2 MSTORE PUSH1 0x20 DUP2 KECCAK256 PUSH1 0x1F DUP6 ADD PUSH1 0x5 SHR DUP2 ADD PUSH1 0x20 DUP7 LT ISZERO PUSH2 0x2188 JUMPI POP DUP1 JUMPDEST PUSH1 0x1F DUP6 ADD PUSH1 0x5 SHR DUP3 ADD SWAP2 POP JUMPDEST DUP2 DUP2 LT ISZERO PUSH2 0x19A9 JUMPI DUP3 DUP2 SSTORE PUSH1 0x1 ADD PUSH2 0x2194 JUMP JUMPDEST DUP2 MLOAD PUSH8 0xFFFFFFFFFFFFFFFF DUP2 GT ISZERO PUSH2 0x21C1 JUMPI PUSH2 0x21C1 PUSH2 0x1DF3 JUMP JUMPDEST PUSH2 0x21D5 DUP2 PUSH2 0x21CF DUP5 SLOAD PUSH2 0x20E5 JUMP JUMPDEST DUP5 PUSH2 0x2161 JUMP JUMPDEST PUSH1 0x20 DUP1 PUSH1 0x1F DUP4 GT PUSH1 0x1 DUP2 EQ PUSH2 0x220A JUMPI PUSH1 0x0 DUP5 ISZERO PUSH2 0x21F2 JUMPI POP DUP6 DUP4 ADD MLOAD JUMPDEST PUSH1 0x0 NOT PUSH1 0x3 DUP7 SWAP1 SHL SHR NOT AND PUSH1 0x1 DUP6 SWAP1 SHL OR DUP6 SSTORE PUSH2 0x19A9 JUMP JUMPDEST PUSH1 0x0 DUP6 DUP2 MSTORE PUSH1 0x20 DUP2 KECCAK256 PUSH1 0x1F NOT DUP7 AND SWAP2 JUMPDEST DUP3 DUP2 LT ISZERO PUSH2 0x2239 JUMPI DUP9 DUP7 ADD MLOAD DUP3 SSTORE SWAP5 DUP5 ADD SWAP5 PUSH1 0x1 SWAP1 SWAP2 ADD SWAP1 DUP5 ADD PUSH2 0x221A JUMP JUMPDEST POP DUP6 DUP3 LT ISZERO PUSH2 0x2257 JUMPI DUP8 DUP6 ADD MLOAD PUSH1 0x0 NOT PUSH1 0x3 DUP9 SWAP1 SHL PUSH1 0xF8 AND SHR NOT AND DUP2 SSTORE JUMPDEST POP POP POP POP POP PUSH1 0x1 SWAP1 DUP2 SHL ADD SWAP1 SSTORE POP JUMP JUMPDEST PUSH1 0x20 DUP2 MSTORE PUSH1 0x0 PUSH2 0x8F3 PUSH1 0x20 DUP4 ADD DUP5 PUSH2 0x1C9C JUMP JUMPDEST PUSH4 0x4E487B71 PUSH1 0xE0 SHL PUSH1 0x0 MSTORE PUSH1 0x32 PUSH1 0x4 MSTORE PUSH1 0x24 PUSH1 0x0 REVERT JUMPDEST DUP1 DUP3 MUL DUP2 ISZERO DUP3 DUP3 DIV DUP5 EQ OR PUSH2 0x12CE JUMPI PUSH2 0x12CE PUSH2 0x211F JUMP JUMPDEST PUSH1 0x0 DUP3 PUSH2 0x22C4 JUMPI PUSH4 0x4E487B71 PUSH1 0xE0 SHL PUSH1 0x0 MSTORE PUSH1 0x12 PUSH1 0x4 MSTORE PUSH1 0x24 PUSH1 0x0 REVERT JUMPDEST POP DIV SWAP1 JUMP JUMPDEST DUP1 DUP3 ADD DUP1 DUP3 GT ISZERO PUSH2 0x12CE JUMPI PUSH2 0x12CE PUSH2 0x211F JUMP JUMPDEST PUSH1 0x40 DUP2 ADD PUSH2 0x22EA DUP3 DUP6 PUSH2 0x1CF8 JUMP JUMPDEST DUP3 PUSH1 0x20 DUP4 ADD MSTORE SWAP4 SWAP3 POP POP POP JUMP INVALID LOG2 PUSH5 0x6970667358 0x22 SLT KECCAK256 0x24 0xC9 PUSH31 0x4ACFDA1238D56812D1496249BE2A9B0DA3D19F84321F0B8D0B46367A936473 PUSH16 0x6C634300081400330000000000000000 "},"methodIdentifiers":{"BASIS_POINTS()":"e1f1c4a7","CONSENSUS_THRESHOLD()":"bca125f0","MAX_VERIFIERS()":"66b17495","REWARD_DISTRIBUTION_DELAY()":"fc459034","VERIFICATION_REWARD_PERCENTAGE()":"fc76473c","VERIFICATION_STAKE()":"b090cb81","antiFraudAddress()":"a56686d6","bountyPoolAddress()":"34a042d8","consensusReachedAt(uint256)":"deb800f1","createSubmission(uint256,address,string,(int256,int256,uint256),uint256)":"83d80a49","distributeVerificationRewards(uint256)":"47f66cc9","getSubmission(uint256)":"3e8686cc","getSubmissionVerifiers(uint256)":"7f8ae7dd","getVote(uint256,address)":"bc3f931f","hasConsensus(uint256)":"3947c5b0","owner()":"8da5cb5b","renounceOwnership()":"715018a6","reputationContractAddress()":"1f54f729","setAntiFraud(address)":"09437837","setBountyPool(address)":"21c0e95d","setReputationContract(address)":"9584660f","setTaskManager(address)":"327d0a60","stakeForVerification(uint256)":"f3b1a77c","submissionVerifiers(uint256,uint256)":"7a4516b9","submissions(uint256)":"ad73349e","submitVerification(uint256,bool,string)":"676f927b","taskManagerAddress()":"1532de2b","transferOwnership(address)":"f2fde38b","verificationVotes(uint256,address)":"a0ab486d"}}}}}