{"contracts/TaskManager.sol":{"TaskManager":{"abi":[{"inputs":[],"stateMutability":"nonpayable","type":"constructor"},{"inputs":[{"internalType":"uint256","name":"taskId","type":"uint256"},{"internalType":"uint256","name":"deadline","type":"uint256"}],"name":"DeadlineExpired","type":"error"},{"inputs":[{"internalType":"uint256","name":"provided","type":"uint256"},{"internalType":"uint256","name":"required","type":"uint256"}],"name":"InsufficientBounty","type":"error"},{"inputs":[{"internalType":"uint256","name":"taskId","type":"uint256"}],"name":"InvalidTaskId","type":"error"},{"inputs":[{"internalType":"address","name":"worker","type":"address"}],"name":"MaxActiveTasksReached","type":"error"},{"inputs":[{"internalType":"int256","name":"requiredLat","type":"int256"},{"internalType":"int256","name":"requiredLon","type":"int256"},{"internalType":"int256","name":"providedLat","type":"int256"},{"internalType":"int256","name":"providedLon","type":"int256"}],"name":"OutsideLocationRadius","type":"error"},{"inputs":[{"internalType":"address","name":"owner","type":"address"}],"name":"OwnableInvalidOwner","type":"error"},{"inputs":[{"internalType":"address","name":"account","type":"address"}],"name":"OwnableUnauthorizedAccount","type":"error"},{"inputs":[],"name":"ReentrancyGuardReentrantCall","type":"error"},{"inputs":[{"internalType":"uint256","name":"taskId","type":"uint256"}],"name":"TaskNotActive","type":"error"},{"inputs":[{"internalType":"address","name":"worker","type":"address"},{"internalType":"uint256","name":"taskId","type":"uint256"}],"name":"TaskNotClaimed","type":"error"},{"inputs":[{"internalType":"address","name":"caller","type":"address"}],"name":"UnauthorizedAccess","type":"error"},{"inputs":[{"internalType":"address","name":"worker","type":"address"},{"internalType":"uint256","name":"taskId","type":"uint256"}],"name":"WorkerAlreadyClaimed","type":"error"},{"anonymous":false,"inputs":[{"indexed":true,"internalType":"address","name":"previousOwner","type":"address"},{"indexed":true,"internalType":"address","name":"newOwner","type":"address"}],"name":"OwnershipTransferred","type":"event"},{"anonymous":false,"inputs":[{"indexed":true,"internalType":"uint256","name":"taskId","type":"uint256"},{"indexed":true,"internalType":"address","name":"worker","type":"address"},{"indexed":false,"internalType":"uint256","name":"claimedAt","type":"uint256"}],"name":"TaskClaimed","type":"event"},{"anonymous":false,"inputs":[{"indexed":true,"internalType":"uint256","name":"taskId","type":"uint256"},{"indexed":true,"internalType":"address","name":"creator","type":"address"},{"indexed":false,"internalType":"enum TaskManager.TaskCategory","name":"category","type":"uint8"},{"indexed":false,"internalType":"uint256","name":"bountyAmount","type":"uint256"},{"indexed":false,"internalType":"uint256","name":"deadline","type":"uint256"}],"name":"TaskCreated","type":"event"},{"anonymous":false,"inputs":[{"indexed":true,"internalType":"uint256","name":"taskId","type":"uint256"},{"indexed":false,"internalType":"uint256","name":"expiredAt","type":"uint256"}],"name":"TaskExpired","type":"event"},{"anonymous":false,"inputs":[{"indexed":true,"internalType":"uint256","name":"taskId","type":"uint256"},{"indexed":true,"internalType":"address","name":"worker","type":"address"},{"indexed":false,"internalType":"string","name":"ipfsHash","type":"string"},{"indexed":false,"internalType":"uint256","name":"submittedAt","type":"uint256"}],"name":"TaskSubmitted","type":"event"},{"inputs":[],"name":"MAX_ACTIVE_TASKS_PER_WORKER","outputs":[{"internalType":"uint256","name":"","type":"uint256"}],"stateMutability":"view","type":"function"},{"inputs":[],"name":"MINIMUM_BOUNTY","outputs":[{"internalType":"uint256","name":"","type":"uint256"}],"stateMutability":"view","type":"function"},{"inputs":[],"name":"TASK_COMPLETION_TIMEOUT","outputs":[{"internalType":"uint256","name":"","type":"uint256"}],"stateMutability":"view","type":"function"},{"inputs":[],"name":"antiFraudAddress","outputs":[{"internalType":"address","name":"","type":"address"}],"stateMutability":"view","type":"function"},{"inputs":[{"internalType":"uint256","name":"taskId","type":"uint256"}],"name":"claimTask","outputs":[{"internalType":"bool","name":"","type":"bool"}],"stateMutability":"nonpayable","type":"function"},{"inputs":[{"internalType":"string","name":"description","type":"string"},{"internalType":"enum TaskManager.TaskCategory","name":"category","type":"uint8"},{"internalType":"uint256","name":"bountyAmount","type":"uint256"},{"internalType":"uint256","name":"maxWorkers","type":"uint256"},{"components":[{"internalType":"int256","name":"latitude","type":"int256"},{"internalType":"int256","name":"longitude","type":"int256"},{"internalType":"uint256","name":"radius","type":"uint256"}],"internalType":"struct TaskManager.Location","name":"location","type":"tuple"},{"internalType":"uint256","name":"deadline","type":"uint256"},{"components":[{"internalType":"uint8","name":"photoCount","type":"uint8"},{"internalType":"bool","name":"requiresLocation","type":"bool"},{"internalType":"uint256","name":"minReputation","type":"uint256"},{"internalType":"enum TaskManager.TaskCategory","name":"requiredBadge","type":"uint8"}],"internalType":"struct TaskManager.TaskRequirements","name":"requirements","type":"tuple"}],"name":"createTask","outputs":[{"internalType":"uint256","name":"","type":"uint256"}],"stateMutability":"payable","type":"function"},{"inputs":[{"internalType":"uint256","name":"taskId","type":"uint256"}],"name":"expireTask","outputs":[{"internalType":"bool","name":"","type":"bool"}],"stateMutability":"nonpayable","type":"function"},{"inputs":[{"internalType":"uint256","name":"taskId","type":"uint256"}],"name":"getTask","outputs":[{"components":[{"internalType":"uint256","name":"id","type":"uint256"},{"internalType":"address","name":"creator","type":"address"},{"internalType":"string","name":"description","type":"string"},{"internalType":"enum TaskManager.TaskCategory","name":"category","type":"uint8"},{"internalType":"uint256","name":"bountyAmount","type":"uint256"},{"internalType":"uint256","name":"maxWorkers","type":"uint256"},{"components":[{"internalType":"int256","name":"latitude","type":"int256"},{"internalType":"int256","name":"longitude","type":"int256"},{"internalType":"uint256","name":"radius","type":"uint256"}],"internalType":"struct TaskManager.Location","name":"location","type":"tuple"},{"internalType":"uint256","name":"deadline","type":"uint256"},{"internalType":"enum TaskManager.TaskStatus","name":"status","type":"uint8"},{"components":[{"internalType":"uint8","name":"photoCount","type":"uint8"},{"internalType":"bool","name":"requiresLocation","type":"bool"},{"internalType":"uint256","name":"minReputation","type":"uint256"},{"internalType":"enum TaskManager.TaskCategory","name":"requiredBadge","type":"uint8"}],"internalType":"struct TaskManager.TaskRequirements","name":"requirements","type":"tuple"},{"internalType":"uint256","name":"submissionCount","type":"uint256"},{"internalType":"uint256","name":"verifiedCount","type":"uint256"},{"internalType":"uint256","name":"createdAt","type":"uint256"}],"internalType":"struct TaskManager.Task","name":"","type":"tuple"}],"stateMutability":"view","type":"function"},{"inputs":[{"internalType":"uint256","name":"taskId","type":"uint256"}],"name":"getTaskWorkers","outputs":[{"internalType":"address[]","name":"","type":"address[]"}],"stateMutability":"view","type":"function"},{"inputs":[{"internalType":"address","name":"worker","type":"address"}],"name":"getWorkerActiveTasks","outputs":[{"internalType":"uint256[]","name":"","type":"uint256[]"}],"stateMutability":"view","type":"function"},{"inputs":[{"internalType":"uint256","name":"taskId","type":"uint256"},{"internalType":"address","name":"worker","type":"address"}],"name":"hasWorkerClaimed","outputs":[{"internalType":"bool","name":"","type":"bool"}],"stateMutability":"view","type":"function"},{"inputs":[],"name":"owner","outputs":[{"internalType":"address","name":"","type":"address"}],"stateMutability":"view","type":"function"},{"inputs":[],"name":"renounceOwnership","outputs":[],"stateMutability":"nonpayable","type":"function"},{"inputs":[{"internalType":"address","name":"_antiFraud","type":"address"}],"name":"setAntiFraud","outputs":[],"stateMutability":"nonpayable","type":"function"},{"inputs":[{"internalType":"uint256","name":"taskId","type":"uint256"},{"internalType":"string","name":"ipfsHash","type":"string"},{"components":[{"internalType":"int256","name":"latitude","type":"int256"},{"internalType":"int256","name":"longitude","type":"int256"},{"internalType":"uint256","name":"radius","type":"uint256"}],"internalType":"struct TaskManager.Location","name":"submissionLocation","type":"tuple"}],"name":"submitTaskCompletion","outputs":[{"internalType":"uint256","name":"","type":"uint256"}],"stateMutability":"nonpayable","type":"function"},{"inputs":[{"internalType":"uint256","name":"","type":"uint256"},{"internalType":"address","name":"","type":"address"}],"name":"taskClaims","outputs":[{"internalType":"address","name":"worker","type":"address"},{"internalType":"uint256","name":"claimedAt","type":"uint256"},{"internalType":"bool","name":"completed","type":"bool"}],"stateMutability":"view","type":"function"},{"inputs":[{"internalType":"uint256","name":"","type":"uint256"},{"internalType":"uint256","name":"","type":"uint256"}],"name":"taskWorkers","outputs":[{"internalType":"address","name":"","type":"address"}],"stateMutability":"view","type":"function"},{"inputs":[{"internalType":"uint256","name":"","type":"uint256"}],"name":"tasks","outputs":[{"internalType":"uint256","name":"id","type":"uint256"},{"internalType":"address","name":"creator","type":"address"},{"internalType":"string","name":"description","type":"string"},{"internalType":"enum TaskManager.TaskCategory","name":"category","type":"uint8"},{"internalType":"uint256","name":"bountyAmount","type":"uint256"},{"internalType":"uint256","name":"maxWorkers","type":"uint256"},{"components":[{"internalType":"int256","name":"latitude","type":"int256"},{"internalType":"int256","name":"longitude","type":"int256"},{"internalType":"uint256","name":"radius","type":"uint256"}],"internalType":"struct TaskManager.Location","name":"location","type":"tuple"},{"internalType":"uint256","name":"deadline","type":"uint256"},{"internalType":"enum TaskManager.TaskStatus","name":"status","type":"uint8"},{"components":[{"internalType":"uint8","name":"photoCount","type":"uint8"},{"internalType":"bool","name":"requiresLocation","type":"bool"},{"internalType":"uint256","name":"minReputation","type":"uint256"},{"internalType":"enum TaskManager.TaskCategory","name":"requiredBadge","type":"uint8"}],"internalType":"struct TaskManager.TaskRequirements","name":"requirements","type":"tuple"},{"internalType":"uint256","name":"submissionCount","type":"uint256"},{"internalType":"uint256","name":"verifiedCount","type":"uint256"},{"internalType":"uint256","name":"createdAt","type":"uint256"}],"stateMutability":"view","type":"function"},{"inputs":[{"internalType":"address","name":"newOwner","type":"address"}],"name":"transferOwnership","outputs":[],"stateMutability":"nonpayable","type":"function"},{"inputs":[{"internalType":"address","name":"","type":"address"},{"internalType":"uint256","name":"","type":"uint256"}],"name":"workerActiveTasks","outputs":[{"internalType":"uint256","name":"","type":"uint256"}],"stateMutability":"view","type":"function"}],"evm":{"bytecode":{"linkReferences":{},"object":"608060405234801561001057600080fd5b50338061003757604051631e4fbdf760e01b81526000600482015260240160405180910390fd5b6100408161004a565b506001805561009a565b600080546001600160a01b038381166001600160a01b0319831681178455604051919092169283917f8be0079c531659141344cd1fd0a4f28419497f9722a3daafe3b4186f6b6457e09190a35050565b612080806100a96000396000f3fe60806040526004361061011f5760003560e01c8063715018a6116100a05780638dd33495116100645780638dd33495146103b2578063a56686d6146103d2578063c8e627bf146103f2578063d50ddca11461040e578063f2fde38b1461042e57600080fd5b8063715018a6146102ee5780638943adae146103035780638aecde44146103235780638d9776721461035b5780638da5cb5b1461039457600080fd5b80633138d112116100e75780633138d112146101fb57806337392f9c1461021b5780633aeda095146102305780633d1be73d1461024357806362ecc47a146102be57600080fd5b8063017325761461012457806302d64b521461015a57806309437837146101875780631656967a146101a95780631d65e77e146101ce575b600080fd5b34801561013057600080fd5b5061014461013f3660046116b8565b61044e565b60405161015191906116d3565b60405180910390f35b34801561016657600080fd5b5061017a610175366004611717565b6104ba565b6040516101519190611730565b34801561019357600080fd5b506101a76101a23660046116b8565b610525565b005b3480156101b557600080fd5b506101c06201518081565b604051908152602001610151565b3480156101da57600080fd5b506101ee6101e9366004611717565b61059c565b6040516101519190611838565b34801561020757600080fd5b506101c0610216366004611a52565b6107c2565b34801561022757600080fd5b506101c0600381565b6101c061023e366004611ac7565b610abc565b34801561024f57600080fd5b5061029761025e366004611baf565b60056020908152600092835260408084209091529082529020805460018201546002909201546001600160a01b03909116919060ff1683565b604080516001600160a01b0390941684526020840192909252151590820152606001610151565b3480156102ca57600080fd5b506102de6102d9366004611717565b610d7e565b6040519015158152602001610151565b3480156102fa57600080fd5b506101a7610e7e565b34801561030f57600080fd5b506101c061031e366004611bdb565b610e92565b34801561032f57600080fd5b5061034361033e366004611c05565b610ec3565b6040516001600160a01b039091168152602001610151565b34801561036757600080fd5b5061037b610376366004611717565b610efb565b6040516101519d9c9b9a99989796959493929190611c27565b3480156103a057600080fd5b506000546001600160a01b0316610343565b3480156103be57600080fd5b506102de6103cd366004611717565b6110b2565b3480156103de57600080fd5b50600754610343906001600160a01b031681565b3480156103fe57600080fd5b506101c06706f05b59d3b2000081565b34801561041a57600080fd5b506102de610429366004611baf565b61134c565b34801561043a57600080fd5b506101a76104493660046116b8565b61137a565b6001600160a01b0381166000908152600460209081526040918290208054835181840281018401909452808452606093928301828280156104ae57602002820191906000526020600020905b81548152602001906001019080831161049a575b50505050509050919050565b6000818152600660209081526040918290208054835181840281018401909452808452606093928301828280156104ae57602002820191906000526020600020905b81546001600160a01b031681526001909101906020018083116104fc5750505050509050919050565b61052d6113b8565b6001600160a01b03811661057a5760405162461bcd60e51b815260206004820152600f60248201526e496e76616c6964206164647265737360881b60448201526064015b60405180910390fd5b600780546001600160a01b0319166001600160a01b0392909216919091179055565b6105a46115c6565b60008281526003602090815260409182902082516101a0810184528154815260018201546001600160a01b03169281019290925260028101805492939192918401916105ef90611cdd565b80601f016020809104026020016040519081016040528092919081815260200182805461061b90611cdd565b80156106685780601f1061063d57610100808354040283529160200191610668565b820191906000526020600020905b81548152906001019060200180831161064b57829003601f168201915b5050509183525050600382015460209091019060ff16600481111561068f5761068f6117c1565b60048111156106a0576106a06117c1565b81526020016004820154815260200160058201548152602001600682016040518060600160405290816000820154815260200160018201548152602001600282015481525050815260200160098201548152602001600a820160009054906101000a900460ff166004811115610718576107186117c1565b6004811115610729576107296117c1565b815260408051608081018252600b8401805460ff808216845261010090910481161515602084810191909152600c87015494840194909452600d8601549390940193919290916060840191166004811115610786576107866117c1565b6004811115610797576107976117c1565b9052508152600e8201546020820152600f820154604082015260109091015460609091015292915050565b60006107cc6113e5565b6000848152600360205260409020805485146107fe576040516345e2cbed60e01b815260048101869052602401610571565b60008581526005602090815260408083203384529091529020546001600160a01b031661084757604051637645942160e01b815233600482015260248101869052604401610571565b806009015442111561087c5760098101546040516302a07ebf60e31b8152610571918791600401918252602082015260400190565b6000858152600560209081526040808320338452909152902060018101546108a8906201518090611d2d565b4211156108e557856201518082600101546108c39190611d2d565b6040516302a07ebf60e31b815260048101929092526024820152604401610571565b600b820154610100900460ff161561096c57604080516060810182526006840154815260078401546020820152600884015491810191909152610928908561140f565b61096c57600682015460078301548551602087015160405163c92bbbb160e01b81526004810194909452602484019290925260448301526064820152608401610571565b6007546001600160a01b031615610a3557600086338742886000015189602001516040516020016109a296959493929190611d40565b60408051601f198184030181529082905280516020909101206007546343b3e2eb60e01b83529092506001600160a01b0316906343b3e2eb906109ef9033908b908b908790600401611d93565b6020604051808303816000875af1158015610a0e573d6000803e3d6000fd5b505050506040513d601f19601f82011682018060405250810190610a329190611dcb565b50505b60028101805460ff19166001179055610a4e33876114a2565b600e82018054906000610a6083611de8565b9091555050600e820154604051339088907f30bd2a1da314becc79ac913f35a1ffbeb59f76eaa3c9cacd2f18644badc13d3990610aa0908a904290611e01565b60405180910390a392505050610ab560018055565b9392505050565b60006706f05b59d3b20000861015610af857604051635239e93560e01b8152600481018790526706f05b59d3b200006024820152604401610571565b428311610b22576040516302a07ebf60e31b81526000600482015260248101849052604401610571565b6002805460009182610b3383611de8565b919050559050604051806101a00160405280828152602001336001600160a01b031681526020018a8152602001896004811115610b7257610b726117c1565b815260200188815260200187815260200186815260200185815260200160006004811115610ba257610ba26117c1565b815260208082018690526000604080840182905260608401829052426080909401939093528481526003825282902083518155908301516001820180546001600160a01b0319166001600160a01b03909216919091179055908201516002820190610c0d9082611e72565b50606082015160038201805460ff19166001836004811115610c3157610c316117c1565b0217905550608082015160048083019190915560a0830151600583015560c0830151805160068401556020810151600784015560400151600883015560e08301516009830155610100830151600a830180549192909160ff1916906001908490811115610ca057610ca06117c1565b02179055506101208201518051600b83018054602084015115156101000261ffff1990911660ff909316929092179190911781556040820151600c8401556060820151600d8401805460ff19166001836004811115610d0157610d016117c1565b0217905550505061014082015181600e015561016082015181600f01556101808201518160100155905050336001600160a01b0316817fdd36ea137f5bc626217c017c1a16ba06296baa9a12089dec591179f30651ec4a8a8a88604051610d6a93929190611f32565b60405180910390a398975050505050505050565b600081815260036020526040812080548314610db0576040516345e2cbed60e01b815260048101849052602401610571565b80600901544211610de45760098101546040516302a07ebf60e31b8152610571918591600401918252602082015260400190565b6003600a82015460ff166004811115610dff57610dff6117c1565b1480610e2357506002600a82015460ff166004811115610e2157610e216117c1565b145b15610e315750600092915050565b600a8101805460ff1916600317905560405142815283907f26e873fd14c5453d456aa20c929456ac909a1f33f90961617f3f3982d30979239060200160405180910390a250600192915050565b610e866113b8565b610e906000611576565b565b60046020528160005260406000208181548110610eae57600080fd5b90600052602060002001600091509150505481565b60066020528160005260406000208181548110610edf57600080fd5b6000918252602090912001546001600160a01b03169150829050565b60036020526000908152604090208054600182015460028301805492936001600160a01b0390921692610f2d90611cdd565b80601f0160208091040260200160405190810160405280929190818152602001828054610f5990611cdd565b8015610fa65780601f10610f7b57610100808354040283529160200191610fa6565b820191906000526020600020905b815481529060010190602001808311610f8957829003601f168201915b5050505050908060030160009054906101000a900460ff16908060040154908060050154908060060160405180606001604052908160008201548152602001600182015481526020016002820154815250509080600901549080600a0160009054906101000a900460ff169080600b016040518060800160405290816000820160009054906101000a900460ff1660ff1660ff1681526020016000820160019054906101000a900460ff16151515158152602001600182015481526020016002820160009054906101000a900460ff166004811115611087576110876117c1565b6004811115611098576110986117c1565b905250600e820154600f830154601090930154919290918d565b60006110bc6113e5565b6000828152600360205260409020805483146110ee576040516345e2cbed60e01b815260048101849052602401610571565b6000600a82015460ff166004811115611109576111096117c1565b1461112a57604051632df3979160e01b815260048101849052602401610571565b806009015442111561115f5760098101546040516302a07ebf60e31b8152610571918591600401918252602082015260400190565b60008381526005602090815260408083203384529091529020546001600160a01b0316156111a957604051633cab45f960e21b815233600482015260248101849052604401610571565b336000908152600460205260409020546003116111db57604051633eff331d60e21b8152336004820152602401610571565b60058101546000848152600660205260409020541061121057604051632df3979160e01b815260048101849052602401610571565b60408051606081018252338082524260208084019182526000848601818152898252600583528682208583528352868220955186546001600160a01b03919091166001600160a01b0319918216178755935160018781019190915590516002909601805496151560ff19909716969096179095556004825285812080548087018255908252828220018990558881526006825294852080549485018155855284209092018054909216179055600a82015460ff1660048111156112d5576112d56117c1565b1480156112ef575060008381526006602052604090205415155b1561130457600a8101805460ff191660011790555b604051428152339084907f6d8a5bca396094eff00461dbcb1d176cb6722fd703396e3740f4acfcd740ffc49060200160405180910390a350506001808055919050565b919050565b60008281526005602090815260408083206001600160a01b0385811685529252909120541615155b92915050565b6113826113b8565b6001600160a01b0381166113ac57604051631e4fbdf760e01b815260006004820152602401610571565b6113b581611576565b50565b6000546001600160a01b03163314610e905760405163118cdaa760e01b8152336004820152602401610571565b60026001540361140857604051633ee5aeb560e01b815260040160405180910390fd5b6002600155565b8051825160009182916114229190611f53565b905060008360200151856020015161143a9190611f53565b905060006114488280611f7a565b6114528480611f7a565b61145c9190611faa565b60408701519091506000906114719080611fd2565b905064e8d4a510006402de638a406114898284611fd2565b6114939190611fe9565b90921115979650505050505050565b6001600160a01b0382166000908152600460205260408120905b815481101561157057828282815481106114d8576114d861200b565b90600052602060002001540361155e57815482906114f890600190612021565b815481106115085761150861200b565b90600052602060002001548282815481106115255761152561200b565b90600052602060002001819055508180548061154357611543612034565b60019003818190600052602060002001600090559055611570565b8061156881611de8565b9150506114bc565b50505050565b600080546001600160a01b038381166001600160a01b0319831681178455604051919092169283917f8be0079c531659141344cd1fd0a4f28419497f9722a3daafe3b4186f6b6457e09190a35050565b604051806101a001604052806000815260200160006001600160a01b031681526020016060815260200160006004811115611603576116036117c1565b8152602001600081526020016000815260200161163a60405180606001604052806000815260200160008152602001600081525090565b81526020016000815260200160006004811115611659576116596117c1565b81526020016116866040805160808101825260008082526020820181905291810182905290606082015290565b81526020016000815260200160008152602001600081525090565b80356001600160a01b038116811461134757600080fd5b6000602082840312156116ca57600080fd5b610ab5826116a1565b6020808252825182820181905260009190848201906040850190845b8181101561170b578351835292840192918401916001016116ef565b50909695505050505050565b60006020828403121561172957600080fd5b5035919050565b6020808252825182820181905260009190848201906040850190845b8181101561170b5783516001600160a01b03168352928401929184019160010161174c565b60005b8381101561178c578181015183820152602001611774565b50506000910152565b600081518084526117ad816020860160208601611771565b601f01601f19169290920160200192915050565b634e487b7160e01b600052602160045260246000fd5b600581106113b557634e487b7160e01b600052602160045260246000fd5b6117fe816117d7565b9052565b60ff815116825260208101511515602083015260408101516040830152606081015161182d816117d7565b806060840152505050565b60208152815160208201526000602083015161185f60408401826001600160a01b03169052565b50604083015161024080606085015261187c610260850183611795565b9150606085015161189060808601826117f5565b50608085015160a085015260a085015160c085015260c08501516118cb60e08601828051825260208082015190830152604090810151910152565b5060e0850151610140818187015261010087015191506101606118f0818801846117f5565b610120880151925061018061190781890185611802565b918801516102008801528701516102208701529095015193019290925250919050565b634e487b7160e01b600052604160045260246000fd5b6040516080810167ffffffffffffffff811182821017156119635761196361192a565b60405290565b600082601f83011261197a57600080fd5b813567ffffffffffffffff808211156119955761199561192a565b604051601f8301601f19908116603f011681019082821181831017156119bd576119bd61192a565b816040528381528660208588010111156119d657600080fd5b836020870160208301376000602085830101528094505050505092915050565b600060608284031215611a0857600080fd5b6040516060810181811067ffffffffffffffff82111715611a2b57611a2b61192a565b80604052508091508235815260208301356020820152604083013560408201525092915050565b600080600060a08486031215611a6757600080fd5b83359250602084013567ffffffffffffffff811115611a8557600080fd5b611a9186828701611969565b925050611aa185604086016119f6565b90509250925092565b80356005811061134757600080fd5b80151581146113b557600080fd5b6000806000806000806000878903610180811215611ae457600080fd5b883567ffffffffffffffff811115611afb57600080fd5b611b078b828c01611969565b985050611b1660208a01611aaa565b96506040890135955060608901359450611b338a60808b016119f6565b935060e08901359250608060ff1982011215611b4e57600080fd5b50611b57611940565b61010089013560ff81168114611b6c57600080fd5b8152610120890135611b7d81611ab9565b60208201526101408901356040820152611b9a6101608a01611aaa565b60608201528091505092959891949750929550565b60008060408385031215611bc257600080fd5b82359150611bd2602084016116a1565b90509250929050565b60008060408385031215611bee57600080fd5b611bf7836116a1565b946020939093013593505050565b60008060408385031215611c1857600080fd5b50508035926020909101359150565b8d81526001600160a01b038d16602082015261024060408201819052600090611c528382018f611795565b915050611c5e8c6117d7565b8b60608301528a60808301528960a0830152611c9160c083018a8051825260208082015190830152604090810151910152565b87610120830152611ca1876117d7565b86610140830152611cb6610160830187611802565b846101e083015283610200830152826102208301529e9d5050505050505050505050505050565b600181811c90821680611cf157607f821691505b602082108103611d1157634e487b7160e01b600052602260045260246000fd5b50919050565b634e487b7160e01b600052601160045260246000fd5b8082018082111561137457611374611d17565b8681526bffffffffffffffffffffffff198660601b16602082015260008551611d70816034850160208a01611771565b603492019182019490945260548101929092526074820152609401949350505050565b60018060a01b0385168152836020820152608060408201526000611dba6080830185611795565b905082606083015295945050505050565b600060208284031215611ddd57600080fd5b8151610ab581611ab9565b600060018201611dfa57611dfa611d17565b5060010190565b604081526000611e146040830185611795565b90508260208301529392505050565b601f821115611e6d57600081815260208120601f850160051c81016020861015611e4a5750805b601f850160051c820191505b81811015611e6957828155600101611e56565b5050505b505050565b815167ffffffffffffffff811115611e8c57611e8c61192a565b611ea081611e9a8454611cdd565b84611e23565b602080601f831160018114611ed55760008415611ebd5750858301515b600019600386901b1c1916600185901b178555611e69565b600085815260208120601f198616915b82811015611f0457888601518255948401946001909101908401611ee5565b5085821015611f225787850151600019600388901b60f8161c191681555b5050505050600190811b01905550565b60608101611f3f856117d7565b938152602081019290925260409091015290565b8181036000831280158383131683831282161715611f7357611f73611d17565b5092915050565b80820260008212600160ff1b84141615611f9657611f96611d17565b818105831482151761137457611374611d17565b8082018281126000831280158216821582161715611fca57611fca611d17565b505092915050565b808202811582820484141761137457611374611d17565b60008261200657634e487b7160e01b600052601260045260246000fd5b500490565b634e487b7160e01b600052603260045260246000fd5b8181038181111561137457611374611d17565b634e487b7160e01b600052603160045260246000fdfea26469706673582212206cf719179b74c1a526da4f3a936d7dfbffc48fdc6bc62a697d733f9c7bca9a6464736f6c63430008140033","opcodes":"PUSH1 0x80 PUSH1 0x40 MSTORE CALLVALUE DUP1 ISZERO PUSH2 0x10 JUMPI PUSH1 0x0 DUP1 REVERT JUMPDEST POP CALLER DUP1 PUSH2 0x37 JUMPI PUSH1 0x40 MLOAD PUSH4 0x1E4FBDF7 PUSH1 0xE0 SHL DUP2 MSTORE PUSH1 0x0 PUSH1 0x4 DUP3 ADD MSTORE PUSH1 0x24 ADD PUSH1 0x40 MLOAD DUP1 SWAP2 SUB SWAP1 REVERT JUMPDEST PUSH2 0x40 DUP2 PUSH2 0x4A JUMP JUMPDEST POP PUSH1 0x1 DUP1 SSTORE PUSH2 0x9A JUMP JUMPDEST PUSH1 0x0 DUP1 SLOAD PUSH1 0x1 PUSH1 0x1 PUSH1 0xA0 SHL SUB DUP4 DUP2 AND PUSH1 0x1 PUSH1 0x1 PUSH1 0xA0 SHL SUB NOT DUP4 AND DUP2 OR DUP5 SSTORE PUSH1 0x40 MLOAD SWAP2 SWAP1 SWAP3 AND SWAP3 DUP4 SWAP2 PUSH32 0x8BE0079C531659141344CD1FD0A4F28419497F9722A3DAAFE3B4186F6B6457E0 SWAP2 SWAP1 LOG3 POP POP JUMP JUMPDEST PUSH2 0x2080 DUP1 PUSH2 0xA9 PUSH1 0x0 CODECOPY PUSH1 0x0 RETURN INVALID PUSH1 0x80 PUSH1 0x40 MSTORE PUSH1 0x4 CALLDATASIZE LT PUSH2 0x11F JUMPI PUSH1 0x0 CALLDATALOAD PUSH1 0xE0 SHR DUP1 PUSH4 0x715018A6 GT PUSH2 0xA0 JUMPI DUP1 PUSH4 0x8DD33495 GT PUSH2 0x64 JUMPI DUP1 PUSH4 0x8DD33495 EQ PUSH2 0x3B2 JUMPI DUP1 PUSH4 0xA56686D6 EQ PUSH2 0x3D2 JUMPI DUP1 PUSH4 0xC8E627BF EQ PUSH2 0x3F2 JUMPI DUP1 PUSH4 0xD50DDCA1 EQ PUSH2 0x40E JUMPI DUP1 PUSH4 0xF2FDE38B EQ PUSH2 0x42E JUMPI PUSH1 0x0 DUP1 REVERT JUMPDEST DUP1 PUSH4 0x715018A6 EQ PUSH2 0x2EE JUMPI DUP1 PUSH4 0x8943ADAE EQ PUSH2 0x303 JUMPI DUP1 PUSH4 0x8AECDE44 EQ PUSH2 0x323 JUMPI DUP1 PUSH4 0x8D977672 EQ PUSH2 0x35B JUMPI DUP1 PUSH4 0x8DA5CB5B EQ PUSH2 0x394 JUMPI PUSH1 0x0 DUP1 REVERT JUMPDEST DUP1 PUSH4 0x3138D112 GT PUSH2 0xE7 JUMPI DUP1 PUSH4 0x3138D112 EQ PUSH2 0x1FB JUMPI DUP1 PUSH4 0x37392F9C EQ PUSH2 0x21B JUMPI DUP1 PUSH4 0x3AEDA095 EQ PUSH2 0x230 JUMPI DUP1 PUSH4 0x3D1BE73D EQ PUSH2 0x243 JUMPI DUP1 PUSH4 0x62ECC47A EQ PUSH2 0x2BE JUMPI PUSH1 0x0 DUP1 REVERT JUMPDEST DUP1 PUSH4 0x1732576 EQ PUSH2 0x124 JUMPI DUP1 PUSH4 0x2D64B52 EQ PUSH2 0x15A JUMPI DUP1 PUSH4 0x9437837 EQ PUSH2 0x187 JUMPI DUP1 PUSH4 0x1656967A EQ PUSH2 0x1A9 JUMPI DUP1 PUSH4 0x1D65E77E EQ PUSH2 0x1CE JUMPI JUMPDEST PUSH1 0x0 DUP1 REVERT JUMPDEST CALLVALUE DUP1 ISZERO PUSH2 0x130 JUMPI PUSH1 0x0 DUP1 REVERT JUMPDEST POP PUSH2 0x144 PUSH2 0x13F CALLDATASIZE PUSH1 0x4 PUSH2 0x16B8 JUMP JUMPDEST PUSH2 0x44E JUMP JUMPDEST PUSH1 0x40 MLOAD PUSH2 0x151 SWAP2 SWAP1 PUSH2 0x16D3 JUMP JUMPDEST PUSH1 0x40 MLOAD DUP1 SWAP2 SUB SWAP1 RETURN JUMPDEST CALLVALUE DUP1 ISZERO PUSH2 0x166 JUMPI PUSH1 0x0 DUP1 REVERT JUMPDEST POP PUSH2 0x17A PUSH2 0x175 CALLDATASIZE PUSH1 0x4 PUSH2 0x1717 JUMP JUMPDEST PUSH2 0x4BA JUMP JUMPDEST PUSH1 0x40 MLOAD PUSH2 0x151 SWAP2 SWAP1 PUSH2 0x1730 JUMP JUMPDEST CALLVALUE DUP1 ISZERO PUSH2 0x193 JUMPI PUSH1 0x0 DUP1 REVERT JUMPDEST POP PUSH2 0x1A7 PUSH2 0x1A2 CALLDATASIZE PUSH1 0x4 PUSH2 0x16B8 JUMP JUMPDEST PUSH2 0x525 JUMP JUMPDEST STOP JUMPDEST CALLVALUE DUP1 ISZERO PUSH2 0x1B5 JUMPI PUSH1 0x0 DUP1 REVERT JUMPDEST POP PUSH2 0x1C0 PUSH3 0x15180 DUP2 JUMP JUMPDEST PUSH1 0x40 MLOAD SWAP1 DUP2 MSTORE PUSH1 0x20 ADD PUSH2 0x151 JUMP JUMPDEST CALLVALUE DUP1 ISZERO PUSH2 0x1DA JUMPI PUSH1 0x0 DUP1 REVERT JUMPDEST POP PUSH2 0x1EE PUSH2 0x1E9 CALLDATASIZE PUSH1 0x4 PUSH2 0x1717 JUMP JUMPDEST PUSH2 0x59C JUMP JUMPDEST PUSH1 0x40 MLOAD PUSH2 0x151 SWAP2 SWAP1 PUSH2 0x1838 JUMP JUMPDEST CALLVALUE DUP1 ISZERO PUSH2 0x207 JUMPI PUSH1 0x0 DUP1 REVERT JUMPDEST POP PUSH2 0x1C0 PUSH2 0x216 CALLDATASIZE PUSH1 0x4 PUSH2 0x1A52 JUMP JUMPDEST PUSH2 0x7C2 JUMP JUMPDEST CALLVALUE DUP1 ISZERO PUSH2 0x227 JUMPI PUSH1 0x0 DUP1 REVERT JUMPDEST POP PUSH2 0x1C0 PUSH1 0x3 DUP2 JUMP JUMPDEST PUSH2 0x1C0 PUSH2 0x23E CALLDATASIZE PUSH1 0x4 PUSH2 0x1AC7 JUMP JUMPDEST PUSH2 0xABC JUMP JUMPDEST CALLVALUE DUP1 ISZERO PUSH2 0x24F JUMPI PUSH1 0x0 DUP1 REVERT JUMPDEST POP PUSH2 0x297 PUSH2 0x25E CALLDATASIZE PUSH1 0x4 PUSH2 0x1BAF JUMP JUMPDEST PUSH1 0x5 PUSH1 0x20 SWAP1 DUP2 MSTORE PUSH1 0x0 SWAP3 DUP4 MSTORE PUSH1 0x40 DUP1 DUP5 KECCAK256 SWAP1 SWAP2 MSTORE SWAP1 DUP3 MSTORE SWAP1 KECCAK256 DUP1 SLOAD PUSH1 0x1 DUP3 ADD SLOAD PUSH1 0x2 SWAP1 SWAP3 ADD SLOAD PUSH1 0x1 PUSH1 0x1 PUSH1 0xA0 SHL SUB SWAP1 SWAP2 AND SWAP2 SWAP1 PUSH1 0xFF AND DUP4 JUMP JUMPDEST PUSH1 0x40 DUP1 MLOAD PUSH1 0x1 PUSH1 0x1 PUSH1 0xA0 SHL SUB SWAP1 SWAP5 AND DUP5 MSTORE PUSH1 0x20 DUP5 ADD SWAP3 SWAP1 SWAP3 MSTORE ISZERO ISZERO SWAP1 DUP3 ADD MSTORE PUSH1 0x60 ADD PUSH2 0x151 JUMP JUMPDEST CALLVALUE DUP1 ISZERO PUSH2 0x2CA JUMPI PUSH1 0x0 DUP1 REVERT JUMPDEST POP PUSH2 0x2DE PUSH2 0x2D9 CALLDATASIZE PUSH1 0x4 PUSH2 0x1717 JUMP JUMPDEST PUSH2 0xD7E JUMP JUMPDEST PUSH1 0x40 MLOAD SWAP1 ISZERO ISZERO DUP2 MSTORE PUSH1 0x20 ADD PUSH2 0x151 JUMP JUMPDEST CALLVALUE DUP1 ISZERO PUSH2 0x2FA JUMPI PUSH1 0x0 DUP1 REVERT JUMPDEST POP PUSH2 0x1A7 PUSH2 0xE7E JUMP JUMPDEST CALLVALUE DUP1 ISZERO PUSH2 0x30F JUMPI PUSH1 0x0 DUP1 REVERT JUMPDEST POP PUSH2 0x1C0 PUSH2 0x31E CALLDATASIZE PUSH1 0x4 PUSH2 0x1BDB JUMP JUMPDEST PUSH2 0xE92 JUMP JUMPDEST CALLVALUE DUP1 ISZERO PUSH2 0x32F JUMPI PUSH1 0x0 DUP1 REVERT JUMPDEST POP PUSH2 0x343 PUSH2 0x33E CALLDATASIZE PUSH1 0x4 PUSH2 0x1C05 JUMP JUMPDEST PUSH2 0xEC3 JUMP JUMPDEST PUSH1 0x40 MLOAD PUSH1 0x1 PUSH1 0x1 PUSH1 0xA0 SHL SUB SWAP1 SWAP2 AND DUP2 MSTORE PUSH1 0x20 ADD PUSH2 0x151 JUMP JUMPDEST CALLVALUE DUP1 ISZERO PUSH2 0x367 JUMPI PUSH1 0x0 DUP1 REVERT JUMPDEST POP PUSH2 0x37B PUSH2 0x376 CALLDATASIZE PUSH1 0x4 PUSH2 0x1717 JUMP JUMPDEST PUSH2 0xEFB JUMP JUMPDEST PUSH1 0x40 MLOAD PUSH2 0x151 SWAP14 SWAP13 SWAP12 SWAP11 SWAP10 SWAP9 SWAP8 SWAP7 SWAP6 SWAP5 SWAP4 SWAP3 SWAP2 SWAP1 PUSH2 0x1C27 JUMP JUMPDEST CALLVALUE DUP1 ISZERO PUSH2 0x3A0 JUMPI PUSH1 0x0 DUP1 REVERT JUMPDEST POP PUSH1 0x0 SLOAD PUSH1 0x1 PUSH1 0x1 PUSH1 0xA0 SHL SUB AND PUSH2 0x343 JUMP JUMPDEST CALLVALUE DUP1 ISZERO PUSH2 0x3BE JUMPI PUSH1 0x0 DUP1 REVERT JUMPDEST POP PUSH2 0x2DE PUSH2 0x3CD CALLDATASIZE PUSH1 0x4 PUSH2 0x1717 JUMP JUMPDEST PUSH2 0x10B2 JUMP JUMPDEST CALLVALUE DUP1 ISZERO PUSH2 0x3DE JUMPI PUSH1 0x0 DUP1 REVERT JUMPDEST POP PUSH1 0x7 SLOAD PUSH2 0x343 SWAP1 PUSH1 0x1 PUSH1 0x1 PUSH1 0xA0 SHL SUB AND DUP2 JUMP JUMPDEST CALLVALUE DUP1 ISZERO PUSH2 0x3FE JUMPI PUSH1 0x0 DUP1 REVERT JUMPDEST POP PUSH2 0x1C0 PUSH8 0x6F05B59D3B20000 DUP2 JUMP JUMPDEST CALLVALUE DUP1 ISZERO PUSH2 0x41A JUMPI PUSH1 0x0 DUP1 REVERT JUMPDEST POP PUSH2 0x2DE PUSH2 0x429 CALLDATASIZE PUSH1 0x4 PUSH2 0x1BAF JUMP JUMPDEST PUSH2 0x134C JUMP JUMPDEST CALLVALUE DUP1 ISZERO PUSH2 0x43A JUMPI PUSH1 0x0 DUP1 REVERT JUMPDEST POP PUSH2 0x1A7 PUSH2 0x449 CALLDATASIZE PUSH1 0x4 PUSH2 0x16B8 JUMP JUMPDEST PUSH2 0x137A JUMP JUMPDEST PUSH1 0x1 PUSH1 0x1 PUSH1 0xA0 SHL SUB DUP2 AND PUSH1 0x0 SWAP1 DUP2 MSTORE PUSH1 0x4 PUSH1 0x20 SWAP1 DUP2 MSTORE PUSH1 0x40 SWAP2 DUP3 SWAP1 KECCAK256 DUP1 SLOAD DUP4 MLOAD DUP2 DUP5 MUL DUP2 ADD DUP5 ADD SWAP1 SWAP5 MSTORE DUP1 DUP5 MSTORE PUSH1 0x60 SWAP4 SWAP3 DUP4 ADD DUP3 DUP3 DUP1 ISZERO PUSH2 0x4AE JUMPI PUSH1 0x20 MUL DUP3 ADD SWAP2 SWAP1 PUSH1 0x0 MSTORE PUSH1 0x20 PUSH1 0x0 KECCAK256 SWAP1 JUMPDEST DUP2 SLOAD DUP2 MSTORE PUSH1 0x20 ADD SWAP1 PUSH1 0x1 ADD SWAP1 DUP1 DUP4 GT PUSH2 0x49A JUMPI JUMPDEST POP POP POP POP POP SWAP1 POP SWAP2 SWAP1 POP JUMP JUMPDEST PUSH1 0x0 DUP2 DUP2 MSTORE PUSH1 0x6 PUSH1 0x20 SWAP1 DUP2 MSTORE PUSH1 0x40 SWAP2 DUP3 SWAP1 KECCAK256 DUP1 SLOAD DUP4 MLOAD DUP2 DUP5 MUL DUP2 ADD DUP5 ADD SWAP1 SWAP5 MSTORE DUP1 DUP5 MSTORE PUSH1 0x60 SWAP4 SWAP3 DUP4 ADD DUP3 DUP3 DUP1 ISZERO PUSH2 0x4AE JUMPI PUSH1 0x20 MUL DUP3 ADD SWAP2 SWAP1 PUSH1 0x0 MSTORE PUSH1 0x20 PUSH1 0x0 KECCAK256 SWAP1 JUMPDEST DUP2 SLOAD PUSH1 0x1 PUSH1 0x1 PUSH1 0xA0 SHL SUB AND DUP2 MSTORE PUSH1 0x1 SWAP1 SWAP2 ADD SWAP1 PUSH1 0x20 ADD DUP1 DUP4 GT PUSH2 0x4FC JUMPI POP POP POP POP POP SWAP1 POP SWAP2 SWAP1 POP JUMP JUMPDEST PUSH2 0x52D PUSH2 0x13B8 JUMP JUMPDEST PUSH1 0x1 PUSH1 0x1 PUSH1 0xA0 SHL SUB DUP2 AND PUSH2 0x57A JUMPI PUSH1 0x40 MLOAD PUSH3 0x461BCD PUSH1 0xE5 SHL DUP2 MSTORE PUSH1 0x20 PUSH1 0x4 DUP3 ADD MSTORE PUSH1 0xF PUSH1 0x24 DUP3 ADD MSTORE PUSH15 0x496E76616C69642061646472657373 PUSH1 0x88 SHL PUSH1 0x44 DUP3 ADD MSTORE PUSH1 0x64 ADD JUMPDEST PUSH1 0x40 MLOAD DUP1 SWAP2 SUB SWAP1 REVERT JUMPDEST PUSH1 0x7 DUP1 SLOAD PUSH1 0x1 PUSH1 0x1 PUSH1 0xA0 SHL SUB NOT AND PUSH1 0x1 PUSH1 0x1 PUSH1 0xA0 SHL SUB SWAP3 SWAP1 SWAP3 AND SWAP2 SWAP1 SWAP2 OR SWAP1 SSTORE JUMP JUMPDEST PUSH2 0x5A4 PUSH2 0x15C6 JUMP JUMPDEST PUSH1 0x0 DUP3 DUP2 MSTORE PUSH1 0x3 PUSH1 0x20 SWAP1 DUP2 MSTORE PUSH1 0x40 SWAP2 DUP3 SWAP1 KECCAK256 DUP3 MLOAD PUSH2 0x1A0 DUP2 ADD DUP5 MSTORE DUP2 SLOAD DUP2 MSTORE PUSH1 0x1 DUP3 ADD SLOAD PUSH1 0x1 PUSH1 0x1 PUSH1 0xA0 SHL SUB AND SWAP3 DUP2 ADD SWAP3 SWAP1 SWAP3 MSTORE PUSH1 0x2 DUP2 ADD DUP1 SLOAD SWAP3 SWAP4 SWAP2 SWAP3 SWAP2 DUP5 ADD SWAP2 PUSH2 0x5EF SWAP1 PUSH2 0x1CDD JUMP JUMPDEST DUP1 PUSH1 0x1F ADD PUSH1 0x20 DUP1 SWAP2 DIV MUL PUSH1 0x20 ADD PUSH1 0x40 MLOAD SWAP1 DUP2 ADD PUSH1 0x40 MSTORE DUP1 SWAP3 SWAP2 SWAP1 DUP2 DUP2 MSTORE PUSH1 0x20 ADD DUP3 DUP1 SLOAD PUSH2 0x61B SWAP1 PUSH2 0x1CDD JUMP JUMPDEST DUP1 ISZERO PUSH2 0x668 JUMPI DUP1 PUSH1 0x1F LT PUSH2 0x63D JUMPI PUSH2 0x100 DUP1 DUP4 SLOAD DIV MUL DUP4 MSTORE SWAP2 PUSH1 0x20 ADD SWAP2 PUSH2 0x668 JUMP JUMPDEST DUP3 ADD SWAP2 SWAP1 PUSH1 0x0 MSTORE PUSH1 0x20 PUSH1 0x0 KECCAK256 SWAP1 JUMPDEST DUP2 SLOAD DUP2 MSTORE SWAP1 PUSH1 0x1 ADD SWAP1 PUSH1 0x20 ADD DUP1 DUP4 GT PUSH2 0x64B JUMPI DUP3 SWAP1 SUB PUSH1 0x1F AND DUP3 ADD SWAP2 JUMPDEST POP POP POP SWAP2 DUP4 MSTORE POP POP PUSH1 0x3 DUP3 ADD SLOAD PUSH1 0x20 SWAP1 SWAP2 ADD SWAP1 PUSH1 0xFF AND PUSH1 0x4 DUP2 GT ISZERO PUSH2 0x68F JUMPI PUSH2 0x68F PUSH2 0x17C1 JUMP JUMPDEST PUSH1 0x4 DUP2 GT ISZERO PUSH2 0x6A0 JUMPI PUSH2 0x6A0 PUSH2 0x17C1 JUMP JUMPDEST DUP2 MSTORE PUSH1 0x20 ADD PUSH1 0x4 DUP3 ADD SLOAD DUP2 MSTORE PUSH1 0x20 ADD PUSH1 0x5 DUP3 ADD SLOAD DUP2 MSTORE PUSH1 0x20 ADD PUSH1 0x6 DUP3 ADD PUSH1 0x40 MLOAD DUP1 PUSH1 0x60 ADD PUSH1 0x40 MSTORE SWAP1 DUP2 PUSH1 0x0 DUP3 ADD SLOAD DUP2 MSTORE PUSH1 0x20 ADD PUSH1 0x1 DUP3 ADD SLOAD DUP2 MSTORE PUSH1 0x20 ADD PUSH1 0x2 DUP3 ADD SLOAD DUP2 MSTORE POP POP DUP2 MSTORE PUSH1 0x20 ADD PUSH1 0x9 DUP3 ADD SLOAD DUP2 MSTORE PUSH1 0x20 ADD PUSH1 0xA DUP3 ADD PUSH1 0x0 SWAP1 SLOAD SWAP1 PUSH2 0x100 EXP SWAP1 DIV PUSH1 0xFF AND PUSH1 0x4 DUP2 GT ISZERO PUSH2 0x718 JUMPI PUSH2 0x718 PUSH2 0x17C1 JUMP JUMPDEST PUSH1 0x4 DUP2 GT ISZERO PUSH2 0x729 JUMPI PUSH2 0x729 PUSH2 0x17C1 JUMP JUMPDEST DUP2 MSTORE PUSH1 0x40 DUP1 MLOAD PUSH1 0x80 DUP2 ADD DUP3 MSTORE PUSH1 0xB DUP5 ADD DUP1 SLOAD PUSH1 0xFF DUP1 DUP3 AND DUP5 MSTORE PUSH2 0x100 SWAP1 SWAP2 DIV DUP2 AND ISZERO ISZERO PUSH1 0x20 DUP5 DUP2 ADD SWAP2 SWAP1 SWAP2 MSTORE PUSH1 0xC DUP8 ADD SLOAD SWAP5 DUP5 ADD SWAP5 SWAP1 SWAP5 MSTORE PUSH1 0xD DUP7 ADD SLOAD SWAP4 SWAP1 SWAP5 ADD SWAP4 SWAP2 SWAP3 SWAP1 SWAP2 PUSH1 0x60 DUP5 ADD SWAP2 AND PUSH1 0x4 DUP2 GT ISZERO PUSH2 0x786 JUMPI PUSH2 0x786 PUSH2 0x17C1 JUMP JUMPDEST PUSH1 0x4 DUP2 GT ISZERO PUSH2 0x797 JUMPI PUSH2 0x797 PUSH2 0x17C1 JUMP JUMPDEST SWAP1 MSTORE POP DUP2 MSTORE PUSH1 0xE DUP3 ADD SLOAD PUSH1 0x20 DUP3 ADD MSTORE PUSH1 0xF DUP3 ADD SLOAD PUSH1 0x40 DUP3 ADD MSTORE PUSH1 0x10 SWAP1 SWAP2 ADD SLOAD PUSH1 0x60 SWAP1 SWAP2 ADD MSTORE SWAP3 SWAP2 POP POP JUMP JUMPDEST PUSH1 0x0 PUSH2 0x7CC PUSH2 0x13E5 JUMP JUMPDEST PUSH1 0x0 DUP5 DUP2 MSTORE PUSH1 0x3 PUSH1 0x20 MSTORE PUSH1 0x40 SWAP1 KECCAK256 DUP1 SLOAD DUP6 EQ PUSH2 0x7FE JUMPI PUSH1 0x40 MLOAD PUSH4 0x45E2CBED PUSH1 0xE0 SHL DUP2 MSTORE PUSH1 0x4 DUP2 ADD DUP7 SWAP1 MSTORE PUSH1 0x24 ADD PUSH2 0x571 JUMP JUMPDEST PUSH1 0x0 DUP6 DUP2 MSTORE PUSH1 0x5 PUSH1 0x20 SWAP1 DUP2 MSTORE PUSH1 0x40 DUP1 DUP4 KECCAK256 CALLER DUP5 MSTORE SWAP1 SWAP2 MSTORE SWAP1 KECCAK256 SLOAD PUSH1 0x1 PUSH1 0x1 PUSH1 0xA0 SHL SUB AND PUSH2 0x847 JUMPI PUSH1 0x40 MLOAD PUSH4 0x76459421 PUSH1 0xE0 SHL DUP2 MSTORE CALLER PUSH1 0x4 DUP3 ADD MSTORE PUSH1 0x24 DUP2 ADD DUP7 SWAP1 MSTORE PUSH1 0x44 ADD PUSH2 0x571 JUMP JUMPDEST DUP1 PUSH1 0x9 ADD SLOAD TIMESTAMP GT ISZERO PUSH2 0x87C JUMPI PUSH1 0x9 DUP2 ADD SLOAD PUSH1 0x40 MLOAD PUSH4 0x2A07EBF PUSH1 0xE3 SHL DUP2 MSTORE PUSH2 0x571 SWAP2 DUP8 SWAP2 PUSH1 0x4 ADD SWAP2 DUP3 MSTORE PUSH1 0x20 DUP3 ADD MSTORE PUSH1 0x40 ADD SWAP1 JUMP JUMPDEST PUSH1 0x0 DUP6 DUP2 MSTORE PUSH1 0x5 PUSH1 0x20 SWAP1 DUP2 MSTORE PUSH1 0x40 DUP1 DUP4 KECCAK256 CALLER DUP5 MSTORE SWAP1 SWAP2 MSTORE SWAP1 KECCAK256 PUSH1 0x1 DUP2 ADD SLOAD PUSH2 0x8A8 SWAP1 PUSH3 0x15180 SWAP1 PUSH2 0x1D2D JUMP JUMPDEST TIMESTAMP GT ISZERO PUSH2 0x8E5 JUMPI DUP6 PUSH3 0x15180 DUP3 PUSH1 0x1 ADD SLOAD PUSH2 0x8C3 SWAP2 SWAP1 PUSH2 0x1D2D JUMP JUMPDEST PUSH1 0x40 MLOAD PUSH4 0x2A07EBF PUSH1 0xE3 SHL DUP2 MSTORE PUSH1 0x4 DUP2 ADD SWAP3 SWAP1 SWAP3 MSTORE PUSH1 0x24 DUP3 ADD MSTORE PUSH1 0x44 ADD PUSH2 0x571 JUMP JUMPDEST PUSH1 0xB DUP3 ADD SLOAD PUSH2 0x100 SWAP1 DIV PUSH1 0xFF AND ISZERO PUSH2 0x96C JUMPI PUSH1 0x40 DUP1 MLOAD PUSH1 0x60 DUP2 ADD DUP3 MSTORE PUSH1 0x6 DUP5 ADD SLOAD DUP2 MSTORE PUSH1 0x7 DUP5 ADD SLOAD PUSH1 0x20 DUP3 ADD MSTORE PUSH1 0x8 DUP5 ADD SLOAD SWAP2 DUP2 ADD SWAP2 SWAP1 SWAP2 MSTORE PUSH2 0x928 SWAP1 DUP6 PUSH2 0x140F JUMP JUMPDEST PUSH2 0x96C JUMPI PUSH1 0x6 DUP3 ADD SLOAD PUSH1 0x7 DUP4 ADD SLOAD DUP6 MLOAD PUSH1 0x20 DUP8 ADD MLOAD PUSH1 0x40 MLOAD PUSH4 0xC92BBBB1 PUSH1 0xE0 SHL DUP2 MSTORE PUSH1 0x4 DUP2 ADD SWAP5 SWAP1 SWAP5 MSTORE PUSH1 0x24 DUP5 ADD SWAP3 SWAP1 SWAP3 MSTORE PUSH1 0x44 DUP4 ADD MSTORE PUSH1 0x64 DUP3 ADD MSTORE PUSH1 0x84 ADD PUSH2 0x571 JUMP JUMPDEST PUSH1 0x7 SLOAD PUSH1 0x1 PUSH1 0x1 PUSH1 0xA0 SHL SUB AND ISZERO PUSH2 0xA35 JUMPI PUSH1 0x0 DUP7 CALLER DUP8 TIMESTAMP DUP9 PUSH1 0x0 ADD MLOAD DUP10 PUSH1 0x20 ADD MLOAD PUSH1 0x40 MLOAD PUSH1 0x20 ADD PUSH2 0x9A2 SWAP7 SWAP6 SWAP5 SWAP4 SWAP3 SWAP2 SWAP1 PUSH2 0x1D40 JUMP JUMPDEST PUSH1 0x40 DUP1 MLOAD PUSH1 0x1F NOT DUP2 DUP5 SUB ADD DUP2 MSTORE SWAP1 DUP3 SWAP1 MSTORE DUP1 MLOAD PUSH1 0x20 SWAP1 SWAP2 ADD KECCAK256 PUSH1 0x7 SLOAD PUSH4 0x43B3E2EB PUSH1 0xE0 SHL DUP4 MSTORE SWAP1 SWAP3 POP PUSH1 0x1 PUSH1 0x1 PUSH1 0xA0 SHL SUB AND SWAP1 PUSH4 0x43B3E2EB SWAP1 PUSH2 0x9EF SWAP1 CALLER SWAP1 DUP12 SWAP1 DUP12 SWAP1 DUP8 SWAP1 PUSH1 0x4 ADD PUSH2 0x1D93 JUMP JUMPDEST PUSH1 0x20 PUSH1 0x40 MLOAD DUP1 DUP4 SUB DUP2 PUSH1 0x0 DUP8 GAS CALL ISZERO DUP1 ISZERO PUSH2 0xA0E JUMPI RETURNDATASIZE PUSH1 0x0 DUP1 RETURNDATACOPY RETURNDATASIZE PUSH1 0x0 REVERT JUMPDEST POP POP POP POP PUSH1 0x40 MLOAD RETURNDATASIZE PUSH1 0x1F NOT PUSH1 0x1F DUP3 ADD AND DUP3 ADD DUP1 PUSH1 0x40 MSTORE POP DUP2 ADD SWAP1 PUSH2 0xA32 SWAP2 SWAP1 PUSH2 0x1DCB JUMP JUMPDEST POP POP JUMPDEST PUSH1 0x2 DUP2 ADD DUP1 SLOAD PUSH1 0xFF NOT AND PUSH1 0x1 OR SWAP1 SSTORE PUSH2 0xA4E CALLER DUP8 PUSH2 0x14A2 JUMP JUMPDEST PUSH1 0xE DUP3 ADD DUP1 SLOAD SWAP1 PUSH1 0x0 PUSH2 0xA60 DUP4 PUSH2 0x1DE8 JUMP JUMPDEST SWAP1 SWAP2 SSTORE POP POP PUSH1 0xE DUP3 ADD SLOAD PUSH1 0x40 MLOAD CALLER SWAP1 DUP9 SWAP1 PUSH32 0x30BD2A1DA314BECC79AC913F35A1FFBEB59F76EAA3C9CACD2F18644BADC13D39 SWAP1 PUSH2 0xAA0 SWAP1 DUP11 SWAP1 TIMESTAMP SWAP1 PUSH2 0x1E01 JUMP JUMPDEST PUSH1 0x40 MLOAD DUP1 SWAP2 SUB SWAP1 LOG3 SWAP3 POP POP POP PUSH2 0xAB5 PUSH1 0x1 DUP1 SSTORE JUMP JUMPDEST SWAP4 SWAP3 POP POP POP JUMP JUMPDEST PUSH1 0x0 PUSH8 0x6F05B59D3B20000 DUP7 LT ISZERO PUSH2 0xAF8 JUMPI PUSH1 0x40 MLOAD PUSH4 0x5239E935 PUSH1 0xE0 SHL DUP2 MSTORE PUSH1 0x4 DUP2 ADD DUP8 SWAP1 MSTORE PUSH8 0x6F05B59D3B20000 PUSH1 0x24 DUP3 ADD MSTORE PUSH1 0x44 ADD PUSH2 0x571 JUMP JUMPDEST TIMESTAMP DUP4 GT PUSH2 0xB22 JUMPI PUSH1 0x40 MLOAD PUSH4 0x2A07EBF PUSH1 0xE3 SHL DUP2 MSTORE PUSH1 0x0 PUSH1 0x4 DUP3 ADD MSTORE PUSH1 0x24 DUP2 ADD DUP5 SWAP1 MSTORE PUSH1 0x44 ADD PUSH2 0x571 JUMP JUMPDEST PUSH1 0x2 DUP1 SLOAD PUSH1 0x0 SWAP2 DUP3 PUSH2 0xB33 DUP4 PUSH2 0x1DE8 JUMP JUMPDEST SWAP2 SWAP1 POP SSTORE SWAP1 POP PUSH1 0x40 MLOAD DUP1 PUSH2 0x1A0 ADD PUSH1 0x40 MSTORE DUP1 DUP3 DUP2 MSTORE PUSH1 0x20 ADD CALLER PUSH1 0x1 PUSH1 0x1 PUSH1 0xA0 SHL SUB AND DUP2 MSTORE PUSH1 0x20 ADD DUP11 DUP2 MSTORE PUSH1 0x20 ADD DUP10 PUSH1 0x4 DUP2 GT ISZERO PUSH2 0xB72 JUMPI PUSH2 0xB72 PUSH2 0x17C1 JUMP JUMPDEST DUP2 MSTORE PUSH1 0x20 ADD DUP9 DUP2 MSTORE PUSH1 0x20 ADD DUP8 DUP2 MSTORE PUSH1 0x20 ADD DUP7 DUP2 MSTORE PUSH1 0x20 ADD DUP6 DUP2 MSTORE PUSH1 0x20 ADD PUSH1 0x0 PUSH1 0x4 DUP2 GT ISZERO PUSH2 0xBA2 JUMPI PUSH2 0xBA2 PUSH2 0x17C1 JUMP JUMPDEST DUP2 MSTORE PUSH1 0x20 DUP1 DUP3 ADD DUP7 SWAP1 MSTORE PUSH1 0x0 PUSH1 0x40 DUP1 DUP5 ADD DUP3 SWAP1 MSTORE PUSH1 0x60 DUP5 ADD DUP3 SWAP1 MSTORE TIMESTAMP PUSH1 0x80 SWAP1 SWAP5 ADD SWAP4 SWAP1 SWAP4 MSTORE DUP5 DUP2 MSTORE PUSH1 0x3 DUP3 MSTORE DUP3 SWAP1 KECCAK256 DUP4 MLOAD DUP2 SSTORE SWAP1 DUP4 ADD MLOAD PUSH1 0x1 DUP3 ADD DUP1 SLOAD PUSH1 0x1 PUSH1 0x1 PUSH1 0xA0 SHL SUB NOT AND PUSH1 0x1 PUSH1 0x1 PUSH1 0xA0 SHL SUB SWAP1 SWAP3 AND SWAP2 SWAP1 SWAP2 OR SWAP1 SSTORE SWAP1 DUP3 ADD MLOAD PUSH1 0x2 DUP3 ADD SWAP1 PUSH2 0xC0D SWAP1 DUP3 PUSH2 0x1E72 JUMP JUMPDEST POP PUSH1 0x60 DUP3 ADD MLOAD PUSH1 0x3 DUP3 ADD DUP1 SLOAD PUSH1 0xFF NOT AND PUSH1 0x1 DUP4 PUSH1 0x4 DUP2 GT ISZERO PUSH2 0xC31 JUMPI PUSH2 0xC31 PUSH2 0x17C1 JUMP JUMPDEST MUL OR SWAP1 SSTORE POP PUSH1 0x80 DUP3 ADD MLOAD PUSH1 0x4 DUP1 DUP4 ADD SWAP2 SWAP1 SWAP2 SSTORE PUSH1 0xA0 DUP4 ADD MLOAD PUSH1 0x5 DUP4 ADD SSTORE PUSH1 0xC0 DUP4 ADD MLOAD DUP1 MLOAD PUSH1 0x6 DUP5 ADD SSTORE PUSH1 0x20 DUP2 ADD MLOAD PUSH1 0x7 DUP5 ADD SSTORE PUSH1 0x40 ADD MLOAD PUSH1 0x8 DUP4 ADD SSTORE PUSH1 0xE0 DUP4 ADD MLOAD PUSH1 0x9 DUP4 ADD SSTORE PUSH2 0x100 DUP4 ADD MLOAD PUSH1 0xA DUP4 ADD DUP1 SLOAD SWAP2 SWAP3 SWAP1 SWAP2 PUSH1 0xFF NOT AND SWAP1 PUSH1 0x1 SWAP1 DUP5 SWAP1 DUP2 GT ISZERO PUSH2 0xCA0 JUMPI PUSH2 0xCA0 PUSH2 0x17C1 JUMP JUMPDEST MUL OR SWAP1 SSTORE POP PUSH2 0x120 DUP3 ADD MLOAD DUP1 MLOAD PUSH1 0xB DUP4 ADD DUP1 SLOAD PUSH1 0x20 DUP5 ADD MLOAD ISZERO ISZERO PUSH2 0x100 MUL PUSH2 0xFFFF NOT SWAP1 SWAP2 AND PUSH1 0xFF SWAP1 SWAP4 AND SWAP3 SWAP1 SWAP3 OR SWAP2 SWAP1 SWAP2 OR DUP2 SSTORE PUSH1 0x40 DUP3 ADD MLOAD PUSH1 0xC DUP5 ADD SSTORE PUSH1 0x60 DUP3 ADD MLOAD PUSH1 0xD DUP5 ADD DUP1 SLOAD PUSH1 0xFF NOT AND PUSH1 0x1 DUP4 PUSH1 0x4 DUP2 GT ISZERO PUSH2 0xD01 JUMPI PUSH2 0xD01 PUSH2 0x17C1 JUMP JUMPDEST MUL OR SWAP1 SSTORE POP POP POP PUSH2 0x140 DUP3 ADD MLOAD DUP2 PUSH1 0xE ADD SSTORE PUSH2 0x160 DUP3 ADD MLOAD DUP2 PUSH1 0xF ADD SSTORE PUSH2 0x180 DUP3 ADD MLOAD DUP2 PUSH1 0x10 ADD SSTORE SWAP1 POP POP CALLER PUSH1 0x1 PUSH1 0x1 PUSH1 0xA0 SHL SUB AND DUP2 PUSH32 0xDD36EA137F5BC626217C017C1A16BA06296BAA9A12089DEC591179F30651EC4A DUP11 DUP11 DUP9 PUSH1 0x40 MLOAD PUSH2 0xD6A SWAP4 SWAP3 SWAP2 SWAP1 PUSH2 0x1F32 JUMP JUMPDEST PUSH1 0x40 MLOAD DUP1 SWAP2 SUB SWAP1 LOG3 SWAP9 SWAP8 POP POP POP POP POP POP POP POP JUMP JUMPDEST PUSH1 0x0 DUP2 DUP2 MSTORE PUSH1 0x3 PUSH1 0x20 MSTORE PUSH1 0x40 DUP2 KECCAK256 DUP1 SLOAD DUP4 EQ PUSH2 0xDB0 JUMPI PUSH1 0x40 MLOAD PUSH4 0x45E2CBED PUSH1 0xE0 SHL DUP2 MSTORE PUSH1 0x4 DUP2 ADD DUP5 SWAP1 MSTORE PUSH1 0x24 ADD PUSH2 0x571 JUMP JUMPDEST DUP1 PUSH1 0x9 ADD SLOAD TIMESTAMP GT PUSH2 0xDE4 JUMPI PUSH1 0x9 DUP2 ADD SLOAD PUSH1 0x40 MLOAD PUSH4 0x2A07EBF PUSH1 0xE3 SHL DUP2 MSTORE PUSH2 0x571 SWAP2 DUP6 SWAP2 PUSH1 0x4 ADD SWAP2 DUP3 MSTORE PUSH1 0x20 DUP3 ADD MSTORE PUSH1 0x40 ADD SWAP1 JUMP JUMPDEST PUSH1 0x3 PUSH1 0xA DUP3 ADD SLOAD PUSH1 0xFF AND PUSH1 0x4 DUP2 GT ISZERO PUSH2 0xDFF JUMPI PUSH2 0xDFF PUSH2 0x17C1 JUMP JUMPDEST EQ DUP1 PUSH2 0xE23 JUMPI POP PUSH1 0x2 PUSH1 0xA DUP3 ADD SLOAD PUSH1 0xFF AND PUSH1 0x4 DUP2 GT ISZERO PUSH2 0xE21 JUMPI PUSH2 0xE21 PUSH2 0x17C1 JUMP JUMPDEST EQ JUMPDEST ISZERO PUSH2 0xE31 JUMPI POP PUSH1 0x0 SWAP3 SWAP2 POP POP JUMP JUMPDEST PUSH1 0xA DUP2 ADD DUP1 SLOAD PUSH1 0xFF NOT AND PUSH1 0x3 OR SWAP1 SSTORE PUSH1 0x40 MLOAD TIMESTAMP DUP2 MSTORE DUP4 SWAP1 PUSH32 0x26E873FD14C5453D456AA20C929456AC909A1F33F90961617F3F3982D3097923 SWAP1 PUSH1 0x20 ADD PUSH1 0x40 MLOAD DUP1 SWAP2 SUB SWAP1 LOG2 POP PUSH1 0x1 SWAP3 SWAP2 POP POP JUMP JUMPDEST PUSH2 0xE86 PUSH2 0x13B8 JUMP JUMPDEST PUSH2 0xE90 PUSH1 0x0 PUSH2 0x1576 JUMP JUMPDEST JUMP JUMPDEST PUSH1 0x4 PUSH1 0x20 MSTORE DUP2 PUSH1 0x0 MSTORE PUSH1 0x40 PUSH1 0x0 KECCAK256 DUP2 DUP2 SLOAD DUP2 LT PUSH2 0xEAE JUMPI PUSH1 0x0 DUP1 REVERT JUMPDEST SWAP1 PUSH1 0x0 MSTORE PUSH1 0x20 PUSH1 0x0 KECCAK256 ADD PUSH1 0x0 SWAP2 POP SWAP2 POP POP SLOAD DUP2 JUMP JUMPDEST PUSH1 0x6 PUSH1 0x20 MSTORE DUP2 PUSH1 0x0 MSTORE PUSH1 0x40 PUSH1 0x0 KECCAK256 DUP2 DUP2 SLOAD DUP2 LT PUSH2 0xEDF JUMPI PUSH1 0x0 DUP1 REVERT JUMPDEST PUSH1 0x0 SWAP2 DUP3 MSTORE PUSH1 0x20 SWAP1 SWAP2 KECCAK256 ADD SLOAD PUSH1 0x1 PUSH1 0x1 PUSH1 0xA0 SHL SUB AND SWAP2 POP DUP3 SWAP1 POP JUMP JUMPDEST PUSH1 0x3 PUSH1 0x20 MSTORE PUSH1 0x0 SWAP1 DUP2 MSTORE PUSH1 0x40 SWAP1 KECCAK256 DUP1 SLOAD PUSH1 0x1 DUP3 ADD SLOAD PUSH1 0x2 DUP4 ADD DUP1 SLOAD SWAP3 SWAP4 PUSH1 0x1 PUSH1 0x1 PUSH1 0xA0 SHL SUB SWAP1 SWAP3 AND SWAP3 PUSH2 0xF2D SWAP1 PUSH2 0x1CDD JUMP JUMPDEST DUP1 PUSH1 0x1F ADD PUSH1 0x20 DUP1 SWAP2 DIV MUL PUSH1 0x20 ADD PUSH1 0x40 MLOAD SWAP1 DUP2 ADD PUSH1 0x40 MSTORE DUP1 SWAP3 SWAP2 SWAP1 DUP2 DUP2 MSTORE PUSH1 0x20 ADD DUP3 DUP1 SLOAD PUSH2 0xF59 SWAP1 PUSH2 0x1CDD JUMP JUMPDEST DUP1 ISZERO PUSH2 0xFA6 JUMPI DUP1 PUSH1 0x1F LT PUSH2 0xF7B JUMPI PUSH2 0x100 DUP1 DUP4 SLOAD DIV MUL DUP4 MSTORE SWAP2 PUSH1 0x20 ADD SWAP2 PUSH2 0xFA6 JUMP JUMPDEST DUP3 ADD SWAP2 SWAP1 PUSH1 0x0 MSTORE PUSH1 0x20 PUSH1 0x0 KECCAK256 SWAP1 JUMPDEST DUP2 SLOAD DUP2 MSTORE SWAP1 PUSH1 0x1 ADD SWAP1 PUSH1 0x20 ADD DUP1 DUP4 GT PUSH2 0xF89 JUMPI DUP3 SWAP1 SUB PUSH1 0x1F AND DUP3 ADD SWAP2 JUMPDEST POP POP POP POP POP SWAP1 DUP1 PUSH1 0x3 ADD PUSH1 0x0 SWAP1 SLOAD SWAP1 PUSH2 0x100 EXP SWAP1 DIV PUSH1 0xFF AND SWAP1 DUP1 PUSH1 0x4 ADD SLOAD SWAP1 DUP1 PUSH1 0x5 ADD SLOAD SWAP1 DUP1 PUSH1 0x6 ADD PUSH1 0x40 MLOAD DUP1 PUSH1 0x60 ADD PUSH1 0x40 MSTORE SWAP1 DUP2 PUSH1 0x0 DUP3 ADD SLOAD DUP2 MSTORE PUSH1 0x20 ADD PUSH1 0x1 DUP3 ADD SLOAD DUP2 MSTORE PUSH1 0x20 ADD PUSH1 0x2 DUP3 ADD SLOAD DUP2 MSTORE POP POP SWAP1 DUP1 PUSH1 0x9 ADD SLOAD SWAP1 DUP1 PUSH1 0xA ADD PUSH1 0x0 SWAP1 SLOAD SWAP1 PUSH2 0x100 EXP SWAP1 DIV PUSH1 0xFF AND SWAP1 DUP1 PUSH1 0xB ADD PUSH1 0x40 MLOAD DUP1 PUSH1 0x80 ADD PUSH1 0x40 MSTORE SWAP1 DUP2 PUSH1 0x0 DUP3 ADD PUSH1 0x0 SWAP1 SLOAD SWAP1 PUSH2 0x100 EXP SWAP1 DIV PUSH1 0xFF AND PUSH1 0xFF AND PUSH1 0xFF AND DUP2 MSTORE PUSH1 0x20 ADD PUSH1 0x0 DUP3 ADD PUSH1 0x1 SWAP1 SLOAD SWAP1 PUSH2 0x100 EXP SWAP1 DIV PUSH1 0xFF AND ISZERO ISZERO ISZERO ISZERO DUP2 MSTORE PUSH1 0x20 ADD PUSH1 0x1 DUP3 ADD SLOAD DUP2 MSTORE PUSH1 0x20 ADD PUSH1 0x2 DUP3 ADD PUSH1 0x0 SWAP1 SLOAD SWAP1 PUSH2 0x100 EXP SWAP1 DIV PUSH1 0xFF AND PUSH1 0x4 DUP2 GT ISZERO PUSH2 0x1087 JUMPI PUSH2 0x1087 PUSH2 0x17C1 JUMP JUMPDEST PUSH1 0x4 DUP2 GT ISZERO PUSH2 0x1098 JUMPI PUSH2 0x1098 PUSH2 0x17C1 JUMP JUMPDEST SWAP1 MSTORE POP PUSH1 0xE DUP3 ADD SLOAD PUSH1 0xF DUP4 ADD SLOAD PUSH1 0x10 SWAP1 SWAP4 ADD SLOAD SWAP2 SWAP3 SWAP1 SWAP2 DUP14 JUMP JUMPDEST PUSH1 0x0 PUSH2 0x10BC PUSH2 0x13E5 JUMP JUMPDEST PUSH1 0x0 DUP3 DUP2 MSTORE PUSH1 0x3 PUSH1 0x20 MSTORE PUSH1 0x40 SWAP1 KECCAK256 DUP1 SLOAD DUP4 EQ PUSH2 0x10EE JUMPI PUSH1 0x40 MLOAD PUSH4 0x45E2CBED PUSH1 0xE0 SHL DUP2 MSTORE PUSH1 0x4 DUP2 ADD DUP5 SWAP1 MSTORE PUSH1 0x24 ADD PUSH2 0x571 JUMP JUMPDEST PUSH1 0x0 PUSH1 0xA DUP3 ADD SLOAD PUSH1 0xFF AND PUSH1 0x4 DUP2 GT ISZERO PUSH2 0x1109 JUMPI PUSH2 0x1109 PUSH2 0x17C1 JUMP JUMPDEST EQ PUSH2 0x112A JUMPI PUSH1 0x40 MLOAD PUSH4 0x2DF39791 PUSH1 0xE0 SHL DUP2 MSTORE PUSH1 0x4 DUP2 ADD DUP5 SWAP1 MSTORE PUSH1 0x24 ADD PUSH2 0x571 JUMP JUMPDEST DUP1 PUSH1 0x9 ADD SLOAD TIMESTAMP GT ISZERO PUSH2 0x115F JUMPI PUSH1 0x9 DUP2 ADD SLOAD PUSH1 0x40 MLOAD PUSH4 0x2A07EBF PUSH1 0xE3 SHL DUP2 MSTORE PUSH2 0x571 SWAP2 DUP6 SWAP2 PUSH1 0x4 ADD SWAP2 DUP3 MSTORE PUSH1 0x20 DUP3 ADD MSTORE PUSH1 0x40 ADD SWAP1 JUMP JUMPDEST PUSH1 0x0 DUP4 DUP2 MSTORE PUSH1 0x5 PUSH1 0x20 SWAP1 DUP2 MSTORE PUSH1 0x40 DUP1 DUP4 KECCAK256 CALLER DUP5 MSTORE SWAP1 SWAP2 MSTORE SWAP1 KECCAK256 SLOAD PUSH1 0x1 PUSH1 0x1 PUSH1 0xA0 SHL SUB AND ISZERO PUSH2 0x11A9 JUMPI PUSH1 0x40 MLOAD PUSH4 0x3CAB45F9 PUSH1 0xE2 SHL DUP2 MSTORE CALLER PUSH1 0x4 DUP3 ADD MSTORE PUSH1 0x24 DUP2 ADD DUP5 SWAP1 MSTORE PUSH1 0x44 ADD PUSH2 0x571 JUMP JUMPDEST CALLER PUSH1 0x0 SWAP1 DUP2 MSTORE PUSH1 0x4 PUSH1 0x20 MSTORE PUSH1 0x40 SWAP1 KECCAK256 SLOAD PUSH1 0x3 GT PUSH2 0x11DB JUMPI PUSH1 0x40 MLOAD PUSH4 0x3EFF331D PUSH1 0xE2 SHL DUP2 MSTORE CALLER PUSH1 0x4 DUP3 ADD MSTORE PUSH1 0x24 ADD PUSH2 0x571 JUMP JUMPDEST PUSH1 0x5 DUP2 ADD SLOAD PUSH1 0x0 DUP5 DUP2 MSTORE PUSH1 0x6 PUSH1 0x20 MSTORE PUSH1 0x40 SWAP1 KECCAK256 SLOAD LT PUSH2 0x1210 JUMPI PUSH1 0x40 MLOAD PUSH4 0x2DF39791 PUSH1 0xE0 SHL DUP2 MSTORE PUSH1 0x4 DUP2 ADD DUP5 SWAP1 MSTORE PUSH1 0x24 ADD PUSH2 0x571 JUMP JUMPDEST PUSH1 0x40 DUP1 MLOAD PUSH1 0x60 DUP2 ADD DUP3 MSTORE CALLER DUP1 DUP3 MSTORE TIMESTAMP PUSH1 0x20 DUP1 DUP5 ADD SWAP2 DUP3 MSTORE PUSH1 0x0 DUP5 DUP7 ADD DUP2 DUP2 MSTORE DUP10 DUP3 MSTORE PUSH1 0x5 DUP4 MSTORE DUP7 DUP3 KECCAK256 DUP6 DUP4 MSTORE DUP4 MSTORE DUP7 DUP3 KECCAK256 SWAP6 MLOAD DUP7 SLOAD PUSH1 0x1 PUSH1 0x1 PUSH1 0xA0 SHL SUB SWAP2 SWAP1 SWAP2 AND PUSH1 0x1 PUSH1 0x1 PUSH1 0xA0 SHL SUB NOT SWAP2 DUP3 AND OR DUP8 SSTORE SWAP4 MLOAD PUSH1 0x1 DUP8 DUP2 ADD SWAP2 SWAP1 SWAP2 SSTORE SWAP1 MLOAD PUSH1 0x2 SWAP1 SWAP7 ADD DUP1 SLOAD SWAP7 ISZERO ISZERO PUSH1 0xFF NOT SWAP1 SWAP8 AND SWAP7 SWAP1 SWAP7 OR SWAP1 SWAP6 SSTORE PUSH1 0x4 DUP3 MSTORE DUP6 DUP2 KECCAK256 DUP1 SLOAD DUP1 DUP8 ADD DUP3 SSTORE SWAP1 DUP3 MSTORE DUP3 DUP3 KECCAK256 ADD DUP10 SWAP1 SSTORE DUP9 DUP2 MSTORE PUSH1 0x6 DUP3 MSTORE SWAP5 DUP6 KECCAK256 DUP1 SLOAD SWAP5 DUP6 ADD DUP2 SSTORE DUP6 MSTORE DUP5 KECCAK256 SWAP1 SWAP3 ADD DUP1 SLOAD SWAP1 SWAP3 AND OR SWAP1 SSTORE PUSH1 0xA DUP3 ADD SLOAD PUSH1 0xFF AND PUSH1 0x4 DUP2 GT ISZERO PUSH2 0x12D5 JUMPI PUSH2 0x12D5 PUSH2 0x17C1 JUMP JUMPDEST EQ DUP1 ISZERO PUSH2 0x12EF JUMPI POP PUSH1 0x0 DUP4 DUP2 MSTORE PUSH1 0x6 PUSH1 0x20 MSTORE PUSH1 0x40 SWAP1 KECCAK256 SLOAD ISZERO ISZERO JUMPDEST ISZERO PUSH2 0x1304 JUMPI PUSH1 0xA DUP2 ADD DUP1 SLOAD PUSH1 0xFF NOT AND PUSH1 0x1 OR SWAP1 SSTORE JUMPDEST PUSH1 0x40 MLOAD TIMESTAMP DUP2 MSTORE CALLER SWAP1 DUP5 SWAP1 PUSH32 0x6D8A5BCA396094EFF00461DBCB1D176CB6722FD703396E3740F4ACFCD740FFC4 SWAP1 PUSH1 0x20 ADD PUSH1 0x40 MLOAD DUP1 SWAP2 SUB SWAP1 LOG3 POP POP PUSH1 0x1 DUP1 DUP1 SSTORE SWAP2 SWAP1 POP JUMP JUMPDEST SWAP2 SWAP1 POP JUMP JUMPDEST PUSH1 0x0 DUP3 DUP2 MSTORE PUSH1 0x5 PUSH1 0x20 SWAP1 DUP2 MSTORE PUSH1 0x40 DUP1 DUP4 KECCAK256 PUSH1 0x1 PUSH1 0x1 PUSH1 0xA0 SHL SUB DUP6 DUP2 AND DUP6 MSTORE SWAP3 MSTORE SWAP1 SWAP2 KECCAK256 SLOAD AND ISZERO ISZERO JUMPDEST SWAP3 SWAP2 POP POP JUMP JUMPDEST PUSH2 0x1382 PUSH2 0x13B8 JUMP JUMPDEST PUSH1 0x1 PUSH1 0x1 PUSH1 0xA0 SHL SUB DUP2 AND PUSH2 0x13AC JUMPI PUSH1 0x40 MLOAD PUSH4 0x1E4FBDF7 PUSH1 0xE0 SHL DUP2 MSTORE PUSH1 0x0 PUSH1 0x4 DUP3 ADD MSTORE PUSH1 0x24 ADD PUSH2 0x571 JUMP JUMPDEST PUSH2 0x13B5 DUP2 PUSH2 0x1576 JUMP JUMPDEST POP JUMP JUMPDEST PUSH1 0x0 SLOAD PUSH1 0x1 PUSH1 0x1 PUSH1 0xA0 SHL SUB AND CALLER EQ PUSH2 0xE90 JUMPI PUSH1 0x40 MLOAD PUSH4 0x118CDAA7 PUSH1 0xE0 SHL DUP2 MSTORE CALLER PUSH1 0x4 DUP3 ADD MSTORE PUSH1 0x24 ADD PUSH2 0x571 JUMP JUMPDEST PUSH1 0x2 PUSH1 0x1 SLOAD SUB PUSH2 0x1408 JUMPI PUSH1 0x40 MLOAD PUSH4 0x3EE5AEB5 PUSH1 0xE0 SHL DUP2 MSTORE PUSH1 0x4 ADD PUSH1 0x40 MLOAD DUP1 SWAP2 SUB SWAP1 REVERT JUMPDEST PUSH1 0x2 PUSH1 0x1 SSTORE JUMP JUMPDEST DUP1 MLOAD DUP3 MLOAD PUSH1 0x0 SWAP2 DUP3 SWAP2 PUSH2 0x1422 SWAP2 SWAP1 PUSH2 0x1F53 JUMP JUMPDEST SWAP1 POP PUSH1 0x0 DUP4 PUSH1 0x20 ADD MLOAD DUP6 PUSH1 0x20 ADD MLOAD PUSH2 0x143A SWAP2 SWAP1 PUSH2 0x1F53 JUMP JUMPDEST SWAP1 POP PUSH1 0x0 PUSH2 0x1448 DUP3 DUP1 PUSH2 0x1F7A JUMP JUMPDEST PUSH2 0x1452 DUP5 DUP1 PUSH2 0x1F7A JUMP JUMPDEST PUSH2 0x145C SWAP2 SWAP1 PUSH2 0x1FAA JUMP JUMPDEST PUSH1 0x40 DUP8 ADD MLOAD SWAP1 SWAP2 POP PUSH1 0x0 SWAP1 PUSH2 0x1471 SWAP1 DUP1 PUSH2 0x1FD2 JUMP JUMPDEST SWAP1 POP PUSH5 0xE8D4A51000 PUSH5 0x2DE638A40 PUSH2 0x1489 DUP3 DUP5 PUSH2 0x1FD2 JUMP JUMPDEST PUSH2 0x1493 SWAP2 SWAP1 PUSH2 0x1FE9 JUMP JUMPDEST SWAP1 SWAP3 GT ISZERO SWAP8 SWAP7 POP POP POP POP POP POP POP JUMP JUMPDEST PUSH1 0x1 PUSH1 0x1 PUSH1 0xA0 SHL SUB DUP3 AND PUSH1 0x0 SWAP1 DUP2 MSTORE PUSH1 0x4 PUSH1 0x20 MSTORE PUSH1 0x40 DUP2 KECCAK256 SWAP1 JUMPDEST DUP2 SLOAD DUP2 LT ISZERO PUSH2 0x1570 JUMPI DUP3 DUP3 DUP3 DUP2 SLOAD DUP2 LT PUSH2 0x14D8 JUMPI PUSH2 0x14D8 PUSH2 0x200B JUMP JUMPDEST SWAP1 PUSH1 0x0 MSTORE PUSH1 0x20 PUSH1 0x0 KECCAK256 ADD SLOAD SUB PUSH2 0x155E JUMPI DUP2 SLOAD DUP3 SWAP1 PUSH2 0x14F8 SWAP1 PUSH1 0x1 SWAP1 PUSH2 0x2021 JUMP JUMPDEST DUP2 SLOAD DUP2 LT PUSH2 0x1508 JUMPI PUSH2 0x1508 PUSH2 0x200B JUMP JUMPDEST SWAP1 PUSH1 0x0 MSTORE PUSH1 0x20 PUSH1 0x0 KECCAK256 ADD SLOAD DUP3 DUP3 DUP2 SLOAD DUP2 LT PUSH2 0x1525 JUMPI PUSH2 0x1525 PUSH2 0x200B JUMP JUMPDEST SWAP1 PUSH1 0x0 MSTORE PUSH1 0x20 PUSH1 0x0 KECCAK256 ADD DUP2 SWAP1 SSTORE POP DUP2 DUP1 SLOAD DUP1 PUSH2 0x1543 JUMPI PUSH2 0x1543 PUSH2 0x2034 JUMP JUMPDEST PUSH1 0x1 SWAP1 SUB DUP2 DUP2 SWAP1 PUSH1 0x0 MSTORE PUSH1 0x20 PUSH1 0x0 KECCAK256 ADD PUSH1 0x0 SWAP1 SSTORE SWAP1 SSTORE PUSH2 0x1570 JUMP JUMPDEST DUP1 PUSH2 0x1568 DUP2 PUSH2 0x1DE8 JUMP JUMPDEST SWAP2 POP POP PUSH2 0x14BC JUMP JUMPDEST POP POP POP POP JUMP JUMPDEST PUSH1 0x0 DUP1 SLOAD PUSH1 0x1 PUSH1 0x1 PUSH1 0xA0 SHL SUB DUP4 DUP2 AND PUSH1 0x1 PUSH1 0x1 PUSH1 0xA0 SHL SUB NOT DUP4 AND DUP2 OR DUP5 SSTORE PUSH1 0x40 MLOAD SWAP2 SWAP1 SWAP3 AND SWAP3 DUP4 SWAP2 PUSH32 0x8BE0079C531659141344CD1FD0A4F28419497F9722A3DAAFE3B4186F6B6457E0 SWAP2 SWAP1 LOG3 POP POP JUMP JUMPDEST PUSH1 0x40 MLOAD DUP1 PUSH2 0x1A0 ADD PUSH1 0x40 MSTORE DUP1 PUSH1 0x0 DUP2 MSTORE PUSH1 0x20 ADD PUSH1 0x0 PUSH1 0x1 PUSH1 0x1 PUSH1 0xA0 SHL SUB AND DUP2 MSTORE PUSH1 0x20 ADD PUSH1 0x60 DUP2 MSTORE PUSH1 0x20 ADD PUSH1 0x0 PUSH1 0x4 DUP2 GT ISZERO PUSH2 0x1603 JUMPI PUSH2 0x1603 PUSH2 0x17C1 JUMP JUMPDEST DUP2 MSTORE PUSH1 0x20 ADD PUSH1 0x0 DUP2 MSTORE PUSH1 0x20 ADD PUSH1 0x0 DUP2 MSTORE PUSH1 0x20 ADD PUSH2 0x163A PUSH1 0x40 MLOAD DUP1 PUSH1 0x60 ADD PUSH1 0x40 MSTORE DUP1 PUSH1 0x0 DUP2 MSTORE PUSH1 0x20 ADD PUSH1 0x0 DUP2 MSTORE PUSH1 0x20 ADD PUSH1 0x0 DUP2 MSTORE POP SWAP1 JUMP JUMPDEST DUP2 MSTORE PUSH1 0x20 ADD PUSH1 0x0 DUP2 MSTORE PUSH1 0x20 ADD PUSH1 0x0 PUSH1 0x4 DUP2 GT ISZERO PUSH2 0x1659 JUMPI PUSH2 0x1659 PUSH2 0x17C1 JUMP JUMPDEST DUP2 MSTORE PUSH1 0x20 ADD PUSH2 0x1686 PUSH1 0x40 DUP1 MLOAD PUSH1 0x80 DUP2 ADD DUP3 MSTORE PUSH1 0x0 DUP1 DUP3 MSTORE PUSH1 0x20 DUP3 ADD DUP2 SWAP1 MSTORE SWAP2 DUP2 ADD DUP3 SWAP1 MSTORE SWAP1 PUSH1 0x60 DUP3 ADD MSTORE SWAP1 JUMP JUMPDEST DUP2 MSTORE PUSH1 0x20 ADD PUSH1 0x0 DUP2 MSTORE PUSH1 0x20 ADD PUSH1 0x0 DUP2 MSTORE PUSH1 0x20 ADD PUSH1 0x0 DUP2 MSTORE POP SWAP1 JUMP JUMPDEST DUP1 CALLDATALOAD PUSH1 0x1 PUSH1 0x1 PUSH1 0xA0 SHL SUB DUP2 AND DUP2 EQ PUSH2 0x1347 JUMPI PUSH1 0x0 DUP1 REVERT JUMPDEST PUSH1 0x0 PUSH1 0x20 DUP3 DUP5 SUB SLT ISZERO PUSH2 0x16CA JUMPI PUSH1 0x0 DUP1 REVERT JUMPDEST PUSH2 0xAB5 DUP3 PUSH2 0x16A1 JUMP JUMPDEST PUSH1 0x20 DUP1 DUP3 MSTORE DUP3 MLOAD DUP3 DUP3 ADD DUP2 SWAP1 MSTORE PUSH1 0x0 SWAP2 SWAP1 DUP5 DUP3 ADD SWAP1 PUSH1 0x40 DUP6 ADD SWAP1 DUP5 JUMPDEST DUP2 DUP2 LT ISZERO PUSH2 0x170B JUMPI DUP4 MLOAD DUP4 MSTORE SWAP3 DUP5 ADD SWAP3 SWAP2 DUP5 ADD SWAP2 PUSH1 0x1 ADD PUSH2 0x16EF JUMP JUMPDEST POP SWAP1 SWAP7 SWAP6 POP POP POP POP POP POP JUMP JUMPDEST PUSH1 0x0 PUSH1 0x20 DUP3 DUP5 SUB SLT ISZERO PUSH2 0x1729 JUMPI PUSH1 0x0 DUP1 REVERT JUMPDEST POP CALLDATALOAD SWAP2 SWAP1 POP JUMP JUMPDEST PUSH1 0x20 DUP1 DUP3 MSTORE DUP3 MLOAD DUP3 DUP3 ADD DUP2 SWAP1 MSTORE PUSH1 0x0 SWAP2 SWAP1 DUP5 DUP3 ADD SWAP1 PUSH1 0x40 DUP6 ADD SWAP1 DUP5 JUMPDEST DUP2 DUP2 LT ISZERO PUSH2 0x170B JUMPI DUP4 MLOAD PUSH1 0x1 PUSH1 0x1 PUSH1 0xA0 SHL SUB AND DUP4 MSTORE SWAP3 DUP5 ADD SWAP3 SWAP2 DUP5 ADD SWAP2 PUSH1 0x1 ADD PUSH2 0x174C JUMP JUMPDEST PUSH1 0x0 JUMPDEST DUP4 DUP2 LT ISZERO PUSH2 0x178C JUMPI DUP2 DUP2 ADD MLOAD DUP4 DUP3 ADD MSTORE PUSH1 0x20 ADD PUSH2 0x1774 JUMP JUMPDEST POP POP PUSH1 0x0 SWAP2 ADD MSTORE JUMP JUMPDEST PUSH1 0x0 DUP2 MLOAD DUP1 DUP5 MSTORE PUSH2 0x17AD DUP2 PUSH1 0x20 DUP7 ADD PUSH1 0x20 DUP7 ADD PUSH2 0x1771 JUMP JUMPDEST PUSH1 0x1F ADD PUSH1 0x1F NOT AND SWAP3 SWAP1 SWAP3 ADD PUSH1 0x20 ADD SWAP3 SWAP2 POP POP JUMP JUMPDEST PUSH4 0x4E487B71 PUSH1 0xE0 SHL PUSH1 0x0 MSTORE PUSH1 0x21 PUSH1 0x4 MSTORE PUSH1 0x24 PUSH1 0x0 REVERT JUMPDEST PUSH1 0x5 DUP2 LT PUSH2 0x13B5 JUMPI PUSH4 0x4E487B71 PUSH1 0xE0 SHL PUSH1 0x0 MSTORE PUSH1 0x21 PUSH1 0x4 MSTORE PUSH1 0x24 PUSH1 0x0 REVERT JUMPDEST PUSH2 0x17FE DUP2 PUSH2 0x17D7 JUMP JUMPDEST SWAP1 MSTORE JUMP JUMPDEST PUSH1 0xFF DUP2 MLOAD AND DUP3 MSTORE PUSH1 0x20 DUP2 ADD MLOAD ISZERO ISZERO PUSH1 0x20 DUP4 ADD MSTORE PUSH1 0x40 DUP2 ADD MLOAD PUSH1 0x40 DUP4 ADD MSTORE PUSH1 0x60 DUP2 ADD MLOAD PUSH2 0x182D DUP2 PUSH2 0x17D7 JUMP JUMPDEST DUP1 PUSH1 0x60 DUP5 ADD MSTORE POP POP POP JUMP JUMPDEST PUSH1 0x20 DUP2 MSTORE DUP2 MLOAD PUSH1 0x20 DUP3 ADD MSTORE PUSH1 0x0 PUSH1 0x20 DUP4 ADD MLOAD PUSH2 0x185F PUSH1 0x40 DUP5 ADD DUP3 PUSH1 0x1 PUSH1 0x1 PUSH1 0xA0 SHL SUB AND SWAP1 MSTORE JUMP JUMPDEST POP PUSH1 0x40 DUP4 ADD MLOAD PUSH2 0x240 DUP1 PUSH1 0x60 DUP6 ADD MSTORE PUSH2 0x187C PUSH2 0x260 DUP6 ADD DUP4 PUSH2 0x1795 JUMP JUMPDEST SWAP2 POP PUSH1 0x60 DUP6 ADD MLOAD PUSH2 0x1890 PUSH1 0x80 DUP7 ADD DUP3 PUSH2 0x17F5 JUMP JUMPDEST POP PUSH1 0x80 DUP6 ADD MLOAD PUSH1 0xA0 DUP6 ADD MSTORE PUSH1 0xA0 DUP6 ADD MLOAD PUSH1 0xC0 DUP6 ADD MSTORE PUSH1 0xC0 DUP6 ADD MLOAD PUSH2 0x18CB PUSH1 0xE0 DUP7 ADD DUP3 DUP1 MLOAD DUP3 MSTORE PUSH1 0x20 DUP1 DUP3 ADD MLOAD SWAP1 DUP4 ADD MSTORE PUSH1 0x40 SWAP1 DUP2 ADD MLOAD SWAP2 ADD MSTORE JUMP JUMPDEST POP PUSH1 0xE0 DUP6 ADD MLOAD PUSH2 0x140 DUP2 DUP2 DUP8 ADD MSTORE PUSH2 0x100 DUP8 ADD MLOAD SWAP2 POP PUSH2 0x160 PUSH2 0x18F0 DUP2 DUP9 ADD DUP5 PUSH2 0x17F5 JUMP JUMPDEST PUSH2 0x120 DUP9 ADD MLOAD SWAP3 POP PUSH2 0x180 PUSH2 0x1907 DUP2 DUP10 ADD DUP6 PUSH2 0x1802 JUMP JUMPDEST SWAP2 DUP9 ADD MLOAD PUSH2 0x200 DUP9 ADD MSTORE DUP8 ADD MLOAD PUSH2 0x220 DUP8 ADD MSTORE SWAP1 SWAP6 ADD MLOAD SWAP4 ADD SWAP3 SWAP1 SWAP3 MSTORE POP SWAP2 SWAP1 POP JUMP JUMPDEST PUSH4 0x4E487B71 PUSH1 0xE0 SHL PUSH1 0x0 MSTORE PUSH1 0x41 PUSH1 0x4 MSTORE PUSH1 0x24 PUSH1 0x0 REVERT JUMPDEST PUSH1 0x40 MLOAD PUSH1 0x80 DUP2 ADD PUSH8 0xFFFFFFFFFFFFFFFF DUP2 GT DUP3 DUP3 LT OR ISZERO PUSH2 0x1963 JUMPI PUSH2 0x1963 PUSH2 0x192A JUMP JUMPDEST PUSH1 0x40 MSTORE SWAP1 JUMP JUMPDEST PUSH1 0x0 DUP3 PUSH1 0x1F DUP4 ADD SLT PUSH2 0x197A JUMPI PUSH1 0x0 DUP1 REVERT JUMPDEST DUP2 CALLDATALOAD PUSH8 0xFFFFFFFFFFFFFFFF DUP1 DUP3 GT ISZERO PUSH2 0x1995 JUMPI PUSH2 0x1995 PUSH2 0x192A JUMP JUMPDEST PUSH1 0x40 MLOAD PUSH1 0x1F DUP4 ADD PUSH1 0x1F NOT SWAP1 DUP2 AND PUSH1 0x3F ADD AND DUP2 ADD SWAP1 DUP3 DUP3 GT DUP2 DUP4 LT OR ISZERO PUSH2 0x19BD JUMPI PUSH2 0x19BD PUSH2 0x192A JUMP JUMPDEST DUP2 PUSH1 0x40 MSTORE DUP4 DUP2 MSTORE DUP7 PUSH1 0x20 DUP6 DUP9 ADD ADD GT ISZERO PUSH2 0x19D6 JUMPI PUSH1 0x0 DUP1 REVERT JUMPDEST DUP4 PUSH1 0x20 DUP8 ADD PUSH1 0x20 DUP4 ADD CALLDATACOPY PUSH1 0x0 PUSH1 0x20 DUP6 DUP4 ADD ADD MSTORE DUP1 SWAP5 POP POP POP POP POP SWAP3 SWAP2 POP POP JUMP JUMPDEST PUSH1 0x0 PUSH1 0x60 DUP3 DUP5 SUB SLT ISZERO PUSH2 0x1A08 JUMPI PUSH1 0x0 DUP1 REVERT JUMPDEST PUSH1 0x40 MLOAD PUSH1 0x60 DUP2 ADD DUP2 DUP2 LT PUSH8 0xFFFFFFFFFFFFFFFF DUP3 GT OR ISZERO PUSH2 0x1A2B JUMPI PUSH2 0x1A2B PUSH2 0x192A JUMP JUMPDEST DUP1 PUSH1 0x40 MSTORE POP DUP1 SWAP2 POP DUP3 CALLDATALOAD DUP2 MSTORE PUSH1 0x20 DUP4 ADD CALLDATALOAD PUSH1 0x20 DUP3 ADD MSTORE PUSH1 0x40 DUP4 ADD CALLDATALOAD PUSH1 0x40 DUP3 ADD MSTORE POP SWAP3 SWAP2 POP POP JUMP JUMPDEST PUSH1 0x0 DUP1 PUSH1 0x0 PUSH1 0xA0 DUP5 DUP7 SUB SLT ISZERO PUSH2 0x1A67 JUMPI PUSH1 0x0 DUP1 REVERT JUMPDEST DUP4 CALLDATALOAD SWAP3 POP PUSH1 0x20 DUP5 ADD CALLDATALOAD PUSH8 0xFFFFFFFFFFFFFFFF DUP2 GT ISZERO PUSH2 0x1A85 JUMPI PUSH1 0x0 DUP1 REVERT JUMPDEST PUSH2 0x1A91 DUP7 DUP3 DUP8 ADD PUSH2 0x1969 JUMP JUMPDEST SWAP3 POP POP PUSH2 0x1AA1 DUP6 PUSH1 0x40 DUP7 ADD PUSH2 0x19F6 JUMP JUMPDEST SWAP1 POP SWAP3 POP SWAP3 POP SWAP3 JUMP JUMPDEST DUP1 CALLDATALOAD PUSH1 0x5 DUP2 LT PUSH2 0x1347 JUMPI PUSH1 0x0 DUP1 REVERT JUMPDEST DUP1 ISZERO ISZERO DUP2 EQ PUSH2 0x13B5 JUMPI PUSH1 0x0 DUP1 REVERT JUMPDEST PUSH1 0x0 DUP1 PUSH1 0x0 DUP1 PUSH1 0x0 DUP1 PUSH1 0x0 DUP8 DUP10 SUB PUSH2 0x180 DUP2 SLT ISZERO PUSH2 0x1AE4 JUMPI PUSH1 0x0 DUP1 REVERT JUMPDEST DUP9 CALLDATALOAD PUSH8 0xFFFFFFFFFFFFFFFF DUP2 GT ISZERO PUSH2 0x1AFB JUMPI PUSH1 0x0 DUP1 REVERT JUMPDEST PUSH2 0x1B07 DUP12 DUP3 DUP13 ADD PUSH2 0x1969 JUMP JUMPDEST SWAP9 POP POP PUSH2 0x1B16 PUSH1 0x20 DUP11 ADD PUSH2 0x1AAA JUMP JUMPDEST SWAP7 POP PUSH1 0x40 DUP10 ADD CALLDATALOAD SWAP6 POP PUSH1 0x60 DUP10 ADD CALLDATALOAD SWAP5 POP PUSH2 0x1B33 DUP11 PUSH1 0x80 DUP12 ADD PUSH2 0x19F6 JUMP JUMPDEST SWAP4 POP PUSH1 0xE0 DUP10 ADD CALLDATALOAD SWAP3 POP PUSH1 0x80 PUSH1 0xFF NOT DUP3 ADD SLT ISZERO PUSH2 0x1B4E JUMPI PUSH1 0x0 DUP1 REVERT JUMPDEST POP PUSH2 0x1B57 PUSH2 0x1940 JUMP JUMPDEST PUSH2 0x100 DUP10 ADD CALLDATALOAD PUSH1 0xFF DUP2 AND DUP2 EQ PUSH2 0x1B6C JUMPI PUSH1 0x0 DUP1 REVERT JUMPDEST DUP2 MSTORE PUSH2 0x120 DUP10 ADD CALLDATALOAD PUSH2 0x1B7D DUP2 PUSH2 0x1AB9 JUMP JUMPDEST PUSH1 0x20 DUP3 ADD MSTORE PUSH2 0x140 DUP10 ADD CALLDATALOAD PUSH1 0x40 DUP3 ADD MSTORE PUSH2 0x1B9A PUSH2 0x160 DUP11 ADD PUSH2 0x1AAA JUMP JUMPDEST PUSH1 0x60 DUP3 ADD MSTORE DUP1 SWAP2 POP POP SWAP3 SWAP6 SWAP9 SWAP2 SWAP5 SWAP8 POP SWAP3 SWAP6 POP JUMP JUMPDEST PUSH1 0x0 DUP1 PUSH1 0x40 DUP4 DUP6 SUB SLT ISZERO PUSH2 0x1BC2 JUMPI PUSH1 0x0 DUP1 REVERT JUMPDEST DUP3 CALLDATALOAD SWAP2 POP PUSH2 0x1BD2 PUSH1 0x20 DUP5 ADD PUSH2 0x16A1 JUMP JUMPDEST SWAP1 POP SWAP3 POP SWAP3 SWAP1 POP JUMP JUMPDEST PUSH1 0x0 DUP1 PUSH1 0x40 DUP4 DUP6 SUB SLT ISZERO PUSH2 0x1BEE JUMPI PUSH1 0x0 DUP1 REVERT JUMPDEST PUSH2 0x1BF7 DUP4 PUSH2 0x16A1 JUMP JUMPDEST SWAP5 PUSH1 0x20 SWAP4 SWAP1 SWAP4 ADD CALLDATALOAD SWAP4 POP POP POP JUMP JUMPDEST PUSH1 0x0 DUP1 PUSH1 0x40 DUP4 DUP6 SUB SLT ISZERO PUSH2 0x1C18 JUMPI PUSH1 0x0 DUP1 REVERT JUMPDEST POP POP DUP1 CALLDATALOAD SWAP3 PUSH1 0x20 SWAP1 SWAP2 ADD CALLDATALOAD SWAP2 POP JUMP JUMPDEST DUP14 DUP2 MSTORE PUSH1 0x1 PUSH1 0x1 PUSH1 0xA0 SHL SUB DUP14 AND PUSH1 0x20 DUP3 ADD MSTORE PUSH2 0x240 PUSH1 0x40 DUP3 ADD DUP2 SWAP1 MSTORE PUSH1 0x0 SWAP1 PUSH2 0x1C52 DUP4 DUP3 ADD DUP16 PUSH2 0x1795 JUMP JUMPDEST SWAP2 POP POP PUSH2 0x1C5E DUP13 PUSH2 0x17D7 JUMP JUMPDEST DUP12 PUSH1 0x60 DUP4 ADD MSTORE DUP11 PUSH1 0x80 DUP4 ADD MSTORE DUP10 PUSH1 0xA0 DUP4 ADD MSTORE PUSH2 0x1C91 PUSH1 0xC0 DUP4 ADD DUP11 DUP1 MLOAD DUP3 MSTORE PUSH1 0x20 DUP1 DUP3 ADD MLOAD SWAP1 DUP4 ADD MSTORE PUSH1 0x40 SWAP1 DUP2 ADD MLOAD SWAP2 ADD MSTORE JUMP JUMPDEST DUP8 PUSH2 0x120 DUP4 ADD MSTORE PUSH2 0x1CA1 DUP8 PUSH2 0x17D7 JUMP JUMPDEST DUP7 PUSH2 0x140 DUP4 ADD MSTORE PUSH2 0x1CB6 PUSH2 0x160 DUP4 ADD DUP8 PUSH2 0x1802 JUMP JUMPDEST DUP5 PUSH2 0x1E0 DUP4 ADD MSTORE DUP4 PUSH2 0x200 DUP4 ADD MSTORE DUP3 PUSH2 0x220 DUP4 ADD MSTORE SWAP15 SWAP14 POP POP POP POP POP POP POP POP POP POP POP POP POP POP JUMP JUMPDEST PUSH1 0x1 DUP2 DUP2 SHR SWAP1 DUP3 AND DUP1 PUSH2 0x1CF1 JUMPI PUSH1 0x7F DUP3 AND SWAP2 POP JUMPDEST PUSH1 0x20 DUP3 LT DUP2 SUB PUSH2 0x1D11 JUMPI PUSH4 0x4E487B71 PUSH1 0xE0 SHL PUSH1 0x0 MSTORE PUSH1 0x22 PUSH1 0x4 MSTORE PUSH1 0x24 PUSH1 0x0 REVERT JUMPDEST POP SWAP2 SWAP1 POP JUMP JUMPDEST PUSH4 0x4E487B71 PUSH1 0xE0 SHL PUSH1 0x0 MSTORE PUSH1 0x11 PUSH1 0x4 MSTORE PUSH1 0x24 PUSH1 0x0 REVERT JUMPDEST DUP1 DUP3 ADD DUP1 DUP3 GT ISZERO PUSH2 0x1374 JUMPI PUSH2 0x1374 PUSH2 0x1D17 JUMP JUMPDEST DUP7 DUP2 MSTORE PUSH12 0xFFFFFFFFFFFFFFFFFFFFFFFF NOT DUP7 PUSH1 0x60 SHL AND PUSH1 0x20 DUP3 ADD MSTORE PUSH1 0x0 DUP6 MLOAD PUSH2 0x1D70 DUP2 PUSH1 0x34 DUP6 ADD PUSH1 0x20 DUP11 ADD PUSH2 0x1771 JUMP JUMPDEST PUSH1 0x34 SWAP3 ADD SWAP2 DUP3 ADD SWAP5 SWAP1 SWAP5 MSTORE PUSH1 0x54 DUP2 ADD SWAP3 SWAP1 SWAP3 MSTORE PUSH1 0x74 DUP3 ADD MSTORE PUSH1 0x94 ADD SWAP5 SWAP4 POP POP POP POP JUMP JUMPDEST PUSH1 0x1 DUP1 PUSH1 0xA0 SHL SUB DUP6 AND DUP2 MSTORE DUP4 PUSH1 0x20 DUP3 ADD MSTORE PUSH1 0x80 PUSH1 0x40 DUP3 ADD MSTORE PUSH1 0x0 PUSH2 0x1DBA PUSH1 0x80 DUP4 ADD DUP6 PUSH2 0x1795 JUMP JUMPDEST SWAP1 POP DUP3 PUSH1 0x60 DUP4 ADD MSTORE SWAP6 SWAP5 POP POP POP POP POP JUMP JUMPDEST PUSH1 0x0 PUSH1 0x20 DUP3 DUP5 SUB SLT ISZERO PUSH2 0x1DDD JUMPI PUSH1 0x0 DUP1 REVERT JUMPDEST DUP2 MLOAD PUSH2 0xAB5 DUP2 PUSH2 0x1AB9 JUMP JUMPDEST PUSH1 0x0 PUSH1 0x1 DUP3 ADD PUSH2 0x1DFA JUMPI PUSH2 0x1DFA PUSH2 0x1D17 JUMP JUMPDEST POP PUSH1 0x1 ADD SWAP1 JUMP JUMPDEST PUSH1 0x40 DUP2 MSTORE PUSH1 0x0 PUSH2 0x1E14 PUSH1 0x40 DUP4 ADD DUP6 PUSH2 0x1795 JUMP JUMPDEST SWAP1 POP DUP3 PUSH1 0x20 DUP4 ADD MSTORE SWAP4 SWAP3 POP POP POP JUMP JUMPDEST PUSH1 0x1F DUP3 GT ISZERO PUSH2 0x1E6D JUMPI PUSH1 0x0 DUP2 DUP2 MSTORE PUSH1 0x20 DUP2 KECCAK256 PUSH1 0x1F DUP6 ADD PUSH1 0x5 SHR DUP2 ADD PUSH1 0x20 DUP7 LT ISZERO PUSH2 0x1E4A JUMPI POP DUP1 JUMPDEST PUSH1 0x1F DUP6 ADD PUSH1 0x5 SHR DUP3 ADD SWAP2 POP JUMPDEST DUP2 DUP2 LT ISZERO PUSH2 0x1E69 JUMPI DUP3 DUP2 SSTORE PUSH1 0x1 ADD PUSH2 0x1E56 JUMP JUMPDEST POP POP POP JUMPDEST POP POP POP JUMP JUMPDEST DUP2 MLOAD PUSH8 0xFFFFFFFFFFFFFFFF DUP2 GT ISZERO PUSH2 0x1E8C JUMPI PUSH2 0x1E8C PUSH2 0x192A JUMP JUMPDEST PUSH2 0x1EA0 DUP2 PUSH2 0x1E9A DUP5 SLOAD PUSH2 0x1CDD JUMP JUMPDEST DUP5 PUSH2 0x1E23 JUMP JUMPDEST PUSH1 0x20 DUP1 PUSH1 0x1F DUP4 GT PUSH1 0x1 DUP2 EQ PUSH2 0x1ED5 JUMPI PUSH1 0x0 DUP5 ISZERO PUSH2 0x1EBD JUMPI POP DUP6 DUP4 ADD MLOAD JUMPDEST PUSH1 0x0 NOT PUSH1 0x3 DUP7 SWAP1 SHL SHR NOT AND PUSH1 0x1 DUP6 SWAP1 SHL OR DUP6 SSTORE PUSH2 0x1E69 JUMP JUMPDEST PUSH1 0x0 DUP6 DUP2 MSTORE PUSH1 0x20 DUP2 KECCAK256 PUSH1 0x1F NOT DUP7 AND SWAP2 JUMPDEST DUP3 DUP2 LT ISZERO PUSH2 0x1F04 JUMPI DUP9 DUP7 ADD MLOAD DUP3 SSTORE SWAP5 DUP5 ADD SWAP5 PUSH1 0x1 SWAP1 SWAP2 ADD SWAP1 DUP5 ADD PUSH2 0x1EE5 JUMP JUMPDEST POP DUP6 DUP3 LT ISZERO PUSH2 0x1F22 JUMPI DUP8 DUP6 ADD MLOAD PUSH1 0x0 NOT PUSH1 0x3 DUP9 SWAP1 SHL PUSH1 0xF8 AND SHR NOT AND DUP2 SSTORE JUMPDEST POP POP POP POP POP PUSH1 0x1 SWAP1 DUP2 SHL ADD SWAP1 SSTORE POP JUMP JUMPDEST PUSH1 0x60 DUP2 ADD PUSH2 0x1F3F DUP6 PUSH2 0x17D7 JUMP JUMPDEST SWAP4 DUP2 MSTORE PUSH1 0x20 DUP2 ADD SWAP3 SWAP1 SWAP3 MSTORE PUSH1 0x40 SWAP1 SWAP2 ADD MSTORE SWAP1 JUMP JUMPDEST DUP2 DUP2 SUB PUSH1 0x0 DUP4 SLT DUP1 ISZERO DUP4 DUP4 SGT AND DUP4 DUP4 SLT DUP3 AND OR ISZERO PUSH2 0x1F73 JUMPI PUSH2 0x1F73 PUSH2 0x1D17 JUMP JUMPDEST POP SWAP3 SWAP2 POP POP JUMP JUMPDEST DUP1 DUP3 MUL PUSH1 0x0 DUP3 SLT PUSH1 0x1 PUSH1 0xFF SHL DUP5 EQ AND ISZERO PUSH2 0x1F96 JUMPI PUSH2 0x1F96 PUSH2 0x1D17 JUMP JUMPDEST DUP2 DUP2 SDIV DUP4 EQ DUP3 ISZERO OR PUSH2 0x1374 JUMPI PUSH2 0x1374 PUSH2 0x1D17 JUMP JUMPDEST DUP1 DUP3 ADD DUP3 DUP2 SLT PUSH1 0x0 DUP4 SLT DUP1 ISZERO DUP3 AND DUP3 ISZERO DUP3 AND OR ISZERO PUSH2 0x1FCA JUMPI PUSH2 0x1FCA PUSH2 0x1D17 JUMP JUMPDEST POP POP SWAP3 SWAP2 POP POP JUMP JUMPDEST DUP1 DUP3 MUL DUP2 ISZERO DUP3 DUP3 DIV DUP5 EQ OR PUSH2 0x1374 JUMPI PUSH2 0x1374 PUSH2 0x1D17 JUMP JUMPDEST PUSH1 0x0 DUP3 PUSH2 0x2006 JUMPI PUSH4 0x4E487B71 PUSH1 0xE0 SHL PUSH1 0x0 MSTORE PUSH1 0x12 PUSH1 0x4 MSTORE PUSH1 0x24 PUSH1 0x0 REVERT JUMPDEST POP DIV SWAP1 JUMP JUMPDEST PUSH4 0x4E487B71 PUSH1 0xE0 SHL PUSH1 0x0 MSTORE PUSH1 0x32 PUSH1 0x4 MSTORE PUSH1 0x24 PUSH1 0x0 REVERT JUMPDEST DUP2 DUP2 SUB DUP2 DUP2 GT ISZERO PUSH2 0x1374 JUMPI PUSH2 0x1374 PUSH2 0x1D17 JUMP JUMPDEST PUSH4 0x4E487B71 PUSH1 0xE0 SHL PUSH1 0x0 MSTORE PUSH1 0x31 PUSH1 0x4 MSTORE PUSH1 0x24 PUSH1 0x0 REVERT INVALID LOG2 PUSH5 0x6970667358 0x22 SLT KECCAK256 PUSH13 0xF719179B74C1A526DA4F3A936D PUSH30 0xFBFFC48FDC6BC62A697D733F9C7BCA9A6464736F6C634300081400330000 "},"methodIdentifiers":{"MAX_ACTIVE_TASKS_PER_WORKER()":"37392f9c","MINIMUM_BOUNTY()":"c8e627bf","TASK_COMPLETION_TIMEOUT()":"1656967a","antiFraudAddress()":"a56686d6","claimTask(uint256)":"8dd33495","createTask(string,uint8,uint256,uint256,(int256,int256,uint256),uint256,(uint8,bool,uint256,uint8))":"3aeda095","expireTask(uint256)":"62ecc47a","getTask(uint256)":"1d65e77e","getTaskWorkers(uint256)":"02d64b52","getWorkerActiveTasks(address)":"01732576","hasWorkerClaimed(uint256,address)":"d50ddca1","owner()":"8da5cb5b","renounceOwnership()":"715018a6","setAntiFraud(address)":"09437837","submitTaskCompletion(uint256,string,(int256,int256,uint256))":"3138d112","taskClaims(uint256,address)":"3d1be73d","taskWorkers(uint256,uint256)":"8aecde44","tasks(uint256)":"8d977672","transferOwnership(address)":"f2fde38b","workerActiveTasks(address,uint256)":"8943adae"}}}}}